{
  "address": "0x9D2A5eb15B4c0E30e45215b6f635a19f65C15999",
  "abi": [
    {
      "inputs": [
        {
          "internalType": "address",
          "name": "_owner",
          "type": "address"
        },
        {
          "internalType": "contract ERC20Votes",
          "name": "_governanceToken",
          "type": "address"
        },
        {
          "internalType": "address",
          "name": "_UsulModule",
          "type": "address"
        },
        {
          "internalType": "uint256",
          "name": "_votingPeriod",
          "type": "uint256"
        },
        {
          "internalType": "uint256",
          "name": "quorumNumerator_",
          "type": "uint256"
        },
        {
          "internalType": "uint256",
          "name": "_timeLockPeriod",
          "type": "uint256"
        },
        {
          "internalType": "string",
          "name": "name_",
          "type": "string"
        },
        {
          "internalType": "address[]",
          "name": "_members",
          "type": "address[]"
        }
      ],
      "stateMutability": "nonpayable",
      "type": "constructor"
    },
    {
      "anonymous": false,
      "inputs": [
        {
          "indexed": false,
          "internalType": "address",
          "name": "member",
          "type": "address"
        }
      ],
      "name": "MemberAdded",
      "type": "event"
    },
    {
      "anonymous": false,
      "inputs": [
        {
          "indexed": false,
          "internalType": "address",
          "name": "member",
          "type": "address"
        }
      ],
      "name": "MemberRemoved",
      "type": "event"
    },
    {
      "anonymous": false,
      "inputs": [
        {
          "indexed": true,
          "internalType": "address",
          "name": "previousOwner",
          "type": "address"
        },
        {
          "indexed": true,
          "internalType": "address",
          "name": "newOwner",
          "type": "address"
        }
      ],
      "name": "OwnershipTransferred",
      "type": "event"
    },
    {
      "anonymous": false,
      "inputs": [
        {
          "indexed": false,
          "internalType": "uint256",
          "name": "proposalId",
          "type": "uint256"
        },
        {
          "indexed": false,
          "internalType": "uint256",
          "name": "timestamp",
          "type": "uint256"
        }
      ],
      "name": "ProposalReceived",
      "type": "event"
    },
    {
      "anonymous": false,
      "inputs": [
        {
          "indexed": false,
          "internalType": "uint256",
          "name": "oldQuorumNumerator",
          "type": "uint256"
        },
        {
          "indexed": false,
          "internalType": "uint256",
          "name": "newQuorumNumerator",
          "type": "uint256"
        }
      ],
      "name": "QuorumNumeratorUpdated",
      "type": "event"
    },
    {
      "anonymous": false,
      "inputs": [
        {
          "indexed": true,
          "internalType": "address",
          "name": "UsulModule",
          "type": "address"
        },
        {
          "indexed": true,
          "internalType": "address",
          "name": "owner",
          "type": "address"
        }
      ],
      "name": "StrategySetup",
      "type": "event"
    },
    {
      "anonymous": false,
      "inputs": [
        {
          "indexed": false,
          "internalType": "uint256",
          "name": "previousTimeLock",
          "type": "uint256"
        },
        {
          "indexed": false,
          "internalType": "uint256",
          "name": "newTimeLockPeriod",
          "type": "uint256"
        }
      ],
      "name": "TimeLockUpdated",
      "type": "event"
    },
    {
      "anonymous": false,
      "inputs": [
        {
          "indexed": true,
          "internalType": "address",
          "name": "previousUsul",
          "type": "address"
        },
        {
          "indexed": true,
          "internalType": "address",
          "name": "newUsul",
          "type": "address"
        }
      ],
      "name": "UsulSet",
      "type": "event"
    },
    {
      "anonymous": false,
      "inputs": [
        {
          "indexed": false,
          "internalType": "uint256",
          "name": "proposalId",
          "type": "uint256"
        },
        {
          "indexed": false,
          "internalType": "uint256",
          "name": "timestamp",
          "type": "uint256"
        }
      ],
      "name": "VoteFinalized",
      "type": "event"
    },
    {
      "anonymous": false,
      "inputs": [
        {
          "indexed": false,
          "internalType": "address",
          "name": "voter",
          "type": "address"
        },
        {
          "indexed": false,
          "internalType": "uint256",
          "name": "proposalId",
          "type": "uint256"
        },
        {
          "indexed": false,
          "internalType": "uint8",
          "name": "support",
          "type": "uint8"
        },
        {
          "indexed": false,
          "internalType": "uint256",
          "name": "weight",
          "type": "uint256"
        }
      ],
      "name": "Voted",
      "type": "event"
    },
    {
      "anonymous": false,
      "inputs": [
        {
          "indexed": false,
          "internalType": "uint256",
          "name": "previousVotingPeriod",
          "type": "uint256"
        },
        {
          "indexed": false,
          "internalType": "uint256",
          "name": "newVotingPeriod",
          "type": "uint256"
        }
      ],
      "name": "VotingPeriodUpdated",
      "type": "event"
    },
    {
      "inputs": [],
      "name": "UsulModule",
      "outputs": [
        {
          "internalType": "address",
          "name": "",
          "type": "address"
        }
      ],
      "stateMutability": "view",
      "type": "function"
    },
    {
      "inputs": [],
      "name": "VOTE_TYPEHASH",
      "outputs": [
        {
          "internalType": "bytes32",
          "name": "",
          "type": "bytes32"
        }
      ],
      "stateMutability": "view",
      "type": "function"
    },
    {
      "inputs": [
        {
          "internalType": "address",
          "name": "member",
          "type": "address"
        }
      ],
      "name": "addMember",
      "outputs": [],
      "stateMutability": "nonpayable",
      "type": "function"
    },
    {
      "inputs": [
        {
          "internalType": "address",
          "name": "voter",
          "type": "address"
        },
        {
          "internalType": "uint256",
          "name": "proposalId",
          "type": "uint256"
        }
      ],
      "name": "calculateWeight",
      "outputs": [
        {
          "internalType": "uint256",
          "name": "",
          "type": "uint256"
        }
      ],
      "stateMutability": "view",
      "type": "function"
    },
    {
      "inputs": [
        {
          "internalType": "uint256",
          "name": "proposalId",
          "type": "uint256"
        }
      ],
      "name": "finalizeStrategy",
      "outputs": [],
      "stateMutability": "nonpayable",
      "type": "function"
    },
    {
      "inputs": [],
      "name": "governanceToken",
      "outputs": [
        {
          "internalType": "contract ERC20Votes",
          "name": "",
          "type": "address"
        }
      ],
      "stateMutability": "view",
      "type": "function"
    },
    {
      "inputs": [
        {
          "internalType": "uint256",
          "name": "proposalId",
          "type": "uint256"
        },
        {
          "internalType": "address",
          "name": "account",
          "type": "address"
        }
      ],
      "name": "hasVoted",
      "outputs": [
        {
          "internalType": "bool",
          "name": "",
          "type": "bool"
        }
      ],
      "stateMutability": "view",
      "type": "function"
    },
    {
      "inputs": [
        {
          "internalType": "uint256",
          "name": "proposalId",
          "type": "uint256"
        }
      ],
      "name": "isPassed",
      "outputs": [
        {
          "internalType": "bool",
          "name": "",
          "type": "bool"
        }
      ],
      "stateMutability": "view",
      "type": "function"
    },
    {
      "inputs": [],
      "name": "memberCount",
      "outputs": [
        {
          "internalType": "uint256",
          "name": "",
          "type": "uint256"
        }
      ],
      "stateMutability": "view",
      "type": "function"
    },
    {
      "inputs": [
        {
          "internalType": "address",
          "name": "",
          "type": "address"
        }
      ],
      "name": "members",
      "outputs": [
        {
          "internalType": "bool",
          "name": "",
          "type": "bool"
        }
      ],
      "stateMutability": "view",
      "type": "function"
    },
    {
      "inputs": [],
      "name": "name",
      "outputs": [
        {
          "internalType": "string",
          "name": "",
          "type": "string"
        }
      ],
      "stateMutability": "view",
      "type": "function"
    },
    {
      "inputs": [],
      "name": "owner",
      "outputs": [
        {
          "internalType": "address",
          "name": "",
          "type": "address"
        }
      ],
      "stateMutability": "view",
      "type": "function"
    },
    {
      "inputs": [
        {
          "internalType": "uint256",
          "name": "",
          "type": "uint256"
        }
      ],
      "name": "proposals",
      "outputs": [
        {
          "internalType": "uint256",
          "name": "yesVotes",
          "type": "uint256"
        },
        {
          "internalType": "uint256",
          "name": "noVotes",
          "type": "uint256"
        },
        {
          "internalType": "uint256",
          "name": "abstainVotes",
          "type": "uint256"
        },
        {
          "internalType": "uint256",
          "name": "deadline",
          "type": "uint256"
        },
        {
          "internalType": "uint256",
          "name": "startBlock",
          "type": "uint256"
        }
      ],
      "stateMutability": "view",
      "type": "function"
    },
    {
      "inputs": [
        {
          "internalType": "uint256",
          "name": "blockNumber",
          "type": "uint256"
        }
      ],
      "name": "quorum",
      "outputs": [
        {
          "internalType": "uint256",
          "name": "",
          "type": "uint256"
        }
      ],
      "stateMutability": "view",
      "type": "function"
    },
    {
      "inputs": [],
      "name": "quorumDenominator",
      "outputs": [
        {
          "internalType": "uint256",
          "name": "",
          "type": "uint256"
        }
      ],
      "stateMutability": "pure",
      "type": "function"
    },
    {
      "inputs": [],
      "name": "quorumNumerator",
      "outputs": [
        {
          "internalType": "uint256",
          "name": "",
          "type": "uint256"
        }
      ],
      "stateMutability": "view",
      "type": "function"
    },
    {
      "inputs": [
        {
          "internalType": "bytes",
          "name": "data",
          "type": "bytes"
        }
      ],
      "name": "receiveProposal",
      "outputs": [],
      "stateMutability": "nonpayable",
      "type": "function"
    },
    {
      "inputs": [
        {
          "internalType": "address",
          "name": "member",
          "type": "address"
        }
      ],
      "name": "removeMember",
      "outputs": [],
      "stateMutability": "nonpayable",
      "type": "function"
    },
    {
      "inputs": [],
      "name": "renounceOwnership",
      "outputs": [],
      "stateMutability": "nonpayable",
      "type": "function"
    },
    {
      "inputs": [
        {
          "internalType": "bytes",
          "name": "initParams",
          "type": "bytes"
        }
      ],
      "name": "setUp",
      "outputs": [],
      "stateMutability": "nonpayable",
      "type": "function"
    },
    {
      "inputs": [
        {
          "internalType": "address",
          "name": "_Usul",
          "type": "address"
        }
      ],
      "name": "setUsul",
      "outputs": [],
      "stateMutability": "nonpayable",
      "type": "function"
    },
    {
      "inputs": [],
      "name": "timeLockPeriod",
      "outputs": [
        {
          "internalType": "uint256",
          "name": "",
          "type": "uint256"
        }
      ],
      "stateMutability": "view",
      "type": "function"
    },
    {
      "inputs": [
        {
          "internalType": "address",
          "name": "newOwner",
          "type": "address"
        }
      ],
      "name": "transferOwnership",
      "outputs": [],
      "stateMutability": "nonpayable",
      "type": "function"
    },
    {
      "inputs": [
        {
          "internalType": "uint256",
          "name": "newQuorumNumerator",
          "type": "uint256"
        }
      ],
      "name": "updateQuorumNumerator",
      "outputs": [],
      "stateMutability": "nonpayable",
      "type": "function"
    },
    {
      "inputs": [
        {
          "internalType": "uint256",
          "name": "newTimeLockPeriod",
          "type": "uint256"
        }
      ],
      "name": "updateTimeLockPeriod",
      "outputs": [],
      "stateMutability": "nonpayable",
      "type": "function"
    },
    {
      "inputs": [
        {
          "internalType": "uint256",
          "name": "newPeriod",
          "type": "uint256"
        }
      ],
      "name": "updateVotingPeriod",
      "outputs": [],
      "stateMutability": "nonpayable",
      "type": "function"
    },
    {
      "inputs": [],
      "name": "version",
      "outputs": [
        {
          "internalType": "string",
          "name": "",
          "type": "string"
        }
      ],
      "stateMutability": "view",
      "type": "function"
    },
    {
      "inputs": [
        {
          "internalType": "uint256",
          "name": "proposalId",
          "type": "uint256"
        },
        {
          "internalType": "uint8",
          "name": "support",
          "type": "uint8"
        },
        {
          "internalType": "bytes",
          "name": "",
          "type": "bytes"
        }
      ],
      "name": "vote",
      "outputs": [],
      "stateMutability": "nonpayable",
      "type": "function"
    },
    {
      "inputs": [
        {
          "internalType": "uint256",
          "name": "proposalId",
          "type": "uint256"
        },
        {
          "internalType": "uint8",
          "name": "support",
          "type": "uint8"
        },
        {
          "internalType": "bytes",
          "name": "signature",
          "type": "bytes"
        },
        {
          "internalType": "bytes",
          "name": "",
          "type": "bytes"
        }
      ],
      "name": "voteSignature",
      "outputs": [],
      "stateMutability": "nonpayable",
      "type": "function"
    },
    {
      "inputs": [],
      "name": "votingPeriod",
      "outputs": [
        {
          "internalType": "uint256",
          "name": "",
          "type": "uint256"
        }
      ],
      "stateMutability": "view",
      "type": "function"
    }
  ],
  "transactionHash": "0xcbff91f4f5d69a3b551cbd8e5b76fc8685e624a8f2e2432c38af59f127309383",
  "args": [
    "0x0000000000000000000000000000000000000001",
    "0x0000000000000000000000000000000000000001",
    "0x0000000000000000000000000000000000000001",
    2,
    1,
    1,
    "SimpleMemberVoting",
    [
      "0x0000000000000000000000000000000000000001"
    ]
  ],
  "solcInputHash": "d0b4647745462b72c7949d559e034e2c",
  "bytecode": "0x60806040523480156200001157600080fd5b50604051620056b9380380620056b9833981810160405281019062000037919062000e78565b600088888888888888886040516020016200005a989796959493929190620011dd565b60405160208183030381529060405290506200007c816200008b60201b60201c565b505050505050505050620019cc565b600060019054906101000a900460ff16620000b55760008054906101000a900460ff1615620000c6565b620000c56200043660201b60201c565b5b62000108576040517f08c379a0000000000000000000000000000000000000000000000000000000008152600401620000ff9062001301565b60405180910390fd5b60008060019054906101000a900460ff16159050801562000159576001600060016101000a81548160ff02191690831515021790555060016000806101000a81548160ff0219169083151502179055505b600080600080600080600080898060200190518101906200017b919062000d71565b9750975097509750975097509750975060018511620001d1576040517f08c379a0000000000000000000000000000000000000000000000000000000008152600401620001c89062001279565b60405180910390fd5b600073ffffffffffffffffffffffffffffffffffffffff168773ffffffffffffffffffffffffffffffffffffffff16141562000244576040517f08c379a00000000000000000000000000000000000000000000000000000000081526004016200023b906200129b565b60405180910390fd5b620002546200045460201b60201c565b60005b8151811015620002a5576200028f8282815181106200027b576200027a620016d6565b5b6020026020010151620004b860201b60201c565b80806200029c906200162a565b91505062000257565b508660a160006101000a81548173ffffffffffffffffffffffffffffffffffffffff021916908373ffffffffffffffffffffffffffffffffffffffff1602179055506200030882620002fc6200068b60201b60201c565b620006c860201b60201c565b62000319846200074660201b60201c565b6200032a88620007e960201b60201c565b60018562000339919062001499565b609a8190555085606560006101000a81548173ffffffffffffffffffffffffffffffffffffffff021916908373ffffffffffffffffffffffffffffffffffffffff1602179055506001836200038f919062001499565b609b8190555081609c9080519060200190620003ad92919062000b39565b508773ffffffffffffffffffffffffffffffffffffffff168673ffffffffffffffffffffffffffffffffffffffff167f61586574b8b0edca97136ad4cb664eec4742d53de53403d531506632e6342a3960405160405180910390a350505050505050508015620004325760008060016101000a81548160ff0219169083151502179055505b5050565b60006200044e30620008ff60201b620019c91760201c565b15905090565b600060019054906101000a900460ff16620004a6576040517f08c379a00000000000000000000000000000000000000000000000000000000081526004016200049d9062001367565b60405180910390fd5b620004b66200092260201b60201c565b565b620004c86200099660201b60201c565b73ffffffffffffffffffffffffffffffffffffffff16620004ee6200099e60201b60201c565b73ffffffffffffffffffffffffffffffffffffffff161462000547576040517f08c379a00000000000000000000000000000000000000000000000000000000081526004016200053e9062001323565b60405180910390fd5b60001515609f60008373ffffffffffffffffffffffffffffffffffffffff1673ffffffffffffffffffffffffffffffffffffffff16815260200190815260200160002060009054906101000a900460ff16151514620005dd576040517f08c379a0000000000000000000000000000000000000000000000000000000008152600401620005d490620012df565b60405180910390fd5b6001609f60008373ffffffffffffffffffffffffffffffffffffffff1673ffffffffffffffffffffffffffffffffffffffff16815260200190815260200160002060006101000a81548160ff021916908315150217905550609e60008154809291906200064a906200162a565b91905055507fb251eb052afc73ffd02ffe85ad79990a8b3fed60d76dbc2fa2fdd7123dffd91481604051620006809190620011c0565b60405180910390a150565b60606040518060400160405280600181526020017f3100000000000000000000000000000000000000000000000000000000000000815250905090565b600060019054906101000a900460ff166200071a576040517f08c379a0000000000000000000000000000000000000000000000000000000008152600401620007119062001367565b60405180910390fd5b600082805190602001209050600082805190602001209050816066819055508060678190555050505050565b620007566200099660201b60201c565b73ffffffffffffffffffffffffffffffffffffffff166200077c6200099e60201b60201c565b73ffffffffffffffffffffffffffffffffffffffff1614620007d5576040517f08c379a0000000000000000000000000000000000000000000000000000000008152600401620007cc9062001323565b60405180910390fd5b620007e681620009c860201b60201c565b50565b620007f96200099660201b60201c565b73ffffffffffffffffffffffffffffffffffffffff166200081f6200099e60201b60201c565b73ffffffffffffffffffffffffffffffffffffffff161462000878576040517f08c379a00000000000000000000000000000000000000000000000000000000081526004016200086f9062001323565b60405180910390fd5b600073ffffffffffffffffffffffffffffffffffffffff168173ffffffffffffffffffffffffffffffffffffffff161415620008eb576040517f08c379a0000000000000000000000000000000000000000000000000000000008152600401620008e290620012bd565b60405180910390fd5b620008fc8162000a6a60201b60201c565b50565b6000808273ffffffffffffffffffffffffffffffffffffffff163b119050919050565b600060019054906101000a900460ff1662000974576040517f08c379a00000000000000000000000000000000000000000000000000000000081526004016200096b9062001367565b60405180910390fd5b62000994620009886200099660201b60201c565b62000a6a60201b60201c565b565b600033905090565b6000603360009054906101000a900473ffffffffffffffffffffffffffffffffffffffff16905090565b620009d862000b3060201b60201c565b81111562000a1d576040517f08c379a000000000000000000000000000000000000000000000000000000000815260040162000a149062001345565b60405180910390fd5b600060a05490508160a0819055507f0553476bf02ef2726e8ce5ced78d63e26e602e4a2257b1f559418e24b4633997818360405162000a5e92919062001389565b60405180910390a15050565b6000603360009054906101000a900473ffffffffffffffffffffffffffffffffffffffff16905081603360006101000a81548173ffffffffffffffffffffffffffffffffffffffff021916908373ffffffffffffffffffffffffffffffffffffffff1602179055508173ffffffffffffffffffffffffffffffffffffffff168173ffffffffffffffffffffffffffffffffffffffff167f8be0079c531659141344cd1fd0a4f28419497f9722a3daafe3b4186f6b6457e060405160405180910390a35050565b60006064905090565b82805462000b4790620015be565b90600052602060002090601f01602090048101928262000b6b576000855562000bb7565b82601f1062000b8657805160ff191683800117855562000bb7565b8280016001018555821562000bb7579182015b8281111562000bb657825182559160200191906001019062000b99565b5b50905062000bc6919062000bca565b5090565b5b8082111562000be557600081600090555060010162000bcb565b5090565b600062000c0062000bfa84620013df565b620013b6565b9050808382526020820190508285602086028201111562000c265762000c2562001739565b5b60005b8581101562000c5a578162000c3f888262000caf565b84526020840193506020830192505060018101905062000c29565b5050509392505050565b600062000c7b62000c75846200140e565b620013b6565b90508281526020810184848401111562000c9a5762000c996200173e565b5b62000ca784828562001588565b509392505050565b60008151905062000cc08162001964565b92915050565b60008151905062000cd7816200197e565b92915050565b600082601f83011262000cf55762000cf462001734565b5b815162000d0784826020860162000be9565b91505092915050565b60008151905062000d218162001998565b92915050565b600082601f83011262000d3f5762000d3e62001734565b5b815162000d5184826020860162000c64565b91505092915050565b60008151905062000d6b81620019b2565b92915050565b600080600080600080600080610100898b03121562000d955762000d9462001748565b5b600062000da58b828c0162000cc6565b985050602062000db88b828c0162000d10565b975050604062000dcb8b828c0162000cc6565b965050606062000dde8b828c0162000d5a565b955050608062000df18b828c0162000d5a565b94505060a062000e048b828c0162000d5a565b93505060c089015167ffffffffffffffff81111562000e285762000e2762001743565b5b62000e368b828c0162000d27565b92505060e089015167ffffffffffffffff81111562000e5a5762000e5962001743565b5b62000e688b828c0162000cdd565b9150509295985092959890939650565b600080600080600080600080610100898b03121562000e9c5762000e9b62001748565b5b600062000eac8b828c0162000caf565b985050602062000ebf8b828c0162000d10565b975050604062000ed28b828c0162000caf565b965050606062000ee58b828c0162000d5a565b955050608062000ef88b828c0162000d5a565b94505060a062000f0b8b828c0162000d5a565b93505060c089015167ffffffffffffffff81111562000f2f5762000f2e62001743565b5b62000f3d8b828c0162000d27565b92505060e089015167ffffffffffffffff81111562000f615762000f6062001743565b5b62000f6f8b828c0162000cdd565b9150509295985092959890939650565b600062000f8d838362000f99565b60208301905092915050565b62000fa481620014fa565b82525050565b62000fb581620014fa565b82525050565b600062000fc88262001454565b62000fd4818562001477565b935062000fe18362001444565b8060005b838110156200101857815162000ffc888262000f7f565b975062001009836200146a565b92505060018101905062000fe5565b5085935050505092915050565b620010308162001560565b82525050565b600062001043826200145f565b6200104f818562001488565b93506200106181856020860162001588565b6200106c816200174d565b840191505092915050565b60006200108660238362001488565b915062001093826200175e565b604082019050919050565b6000620010ad60208362001488565b9150620010ba82620017ad565b602082019050919050565b6000620010d460268362001488565b9150620010e182620017d6565b604082019050919050565b6000620010fb601c8362001488565b9150620011088262001825565b602082019050919050565b600062001122602e8362001488565b91506200112f826200184e565b604082019050919050565b60006200114960208362001488565b915062001156826200189d565b602082019050919050565b60006200117060268362001488565b91506200117d82620018c6565b604082019050919050565b600062001197602b8362001488565b9150620011a48262001915565b604082019050919050565b620011ba8162001556565b82525050565b6000602082019050620011d7600083018462000faa565b92915050565b600061010082019050620011f5600083018b62000faa565b62001204602083018a62001025565b62001213604083018962000faa565b620012226060830188620011af565b620012316080830187620011af565b6200124060a0830186620011af565b81810360c083015262001254818562001036565b905081810360e08301526200126a818462000fbb565b90509998505050505050505050565b60006020820190508181036000830152620012948162001077565b9050919050565b60006020820190508181036000830152620012b6816200109e565b9050919050565b60006020820190508181036000830152620012d881620010c5565b9050919050565b60006020820190508181036000830152620012fa81620010ec565b9050919050565b600060208201905081810360008301526200131c8162001113565b9050919050565b600060208201905081810360008301526200133e816200113a565b9050919050565b60006020820190508181036000830152620013608162001161565b9050919050565b60006020820190508181036000830152620013828162001188565b9050919050565b6000604082019050620013a06000830185620011af565b620013af6020830184620011af565b9392505050565b6000620013c2620013d5565b9050620013d08282620015f4565b919050565b6000604051905090565b600067ffffffffffffffff821115620013fd57620013fc62001705565b5b602082029050602081019050919050565b600067ffffffffffffffff8211156200142c576200142b62001705565b5b62001437826200174d565b9050602081019050919050565b6000819050602082019050919050565b600081519050919050565b600081519050919050565b6000602082019050919050565b600082825260208201905092915050565b600082825260208201905092915050565b6000620014a68262001556565b9150620014b38362001556565b9250817fffffffffffffffffffffffffffffffffffffffffffffffffffffffffffffffff0483118215151615620014ef57620014ee62001678565b5b828202905092915050565b6000620015078262001536565b9050919050565b60006200151b8262001536565b9050919050565b60006200152f82620014fa565b9050919050565b600073ffffffffffffffffffffffffffffffffffffffff82169050919050565b6000819050919050565b60006200156d8262001574565b9050919050565b6000620015818262001536565b9050919050565b60005b83811015620015a85780820151818401526020810190506200158b565b83811115620015b8576000848401525b50505050565b60006002820490506001821680620015d757607f821691505b60208210811415620015ee57620015ed620016a7565b5b50919050565b620015ff826200174d565b810181811067ffffffffffffffff8211171562001621576200162062001705565b5b80604052505050565b6000620016378262001556565b91507fffffffffffffffffffffffffffffffffffffffffffffffffffffffffffffffff8214156200166d576200166c62001678565b5b600182019050919050565b7f4e487b7100000000000000000000000000000000000000000000000000000000600052601160045260246000fd5b7f4e487b7100000000000000000000000000000000000000000000000000000000600052602260045260246000fd5b7f4e487b7100000000000000000000000000000000000000000000000000000000600052603260045260246000fd5b7f4e487b7100000000000000000000000000000000000000000000000000000000600052604160045260246000fd5b600080fd5b600080fd5b600080fd5b600080fd5b600080fd5b6000601f19601f8301169050919050565b7f766f74696e67506572696f64206d75737420626520677265617465722074686160008201527f6e20310000000000000000000000000000000000000000000000000000000000602082015250565b7f696e76616c696420676f7665726e616e636520746f6b656e2061646472657373600082015250565b7f4f776e61626c653a206e6577206f776e657220697320746865207a65726f206160008201527f6464726573730000000000000000000000000000000000000000000000000000602082015250565b7f6d656d62657220697320616c7265616479207265676973746572656400000000600082015250565b7f496e697469616c697a61626c653a20636f6e747261637420697320616c72656160008201527f647920696e697469616c697a6564000000000000000000000000000000000000602082015250565b7f4f776e61626c653a2063616c6c6572206973206e6f7420746865206f776e6572600082015250565b7f71756f72756d4e756d657261746f72206f7665722071756f72756d44656e6f6d60008201527f696e61746f720000000000000000000000000000000000000000000000000000602082015250565b7f496e697469616c697a61626c653a20636f6e7472616374206973206e6f74206960008201527f6e697469616c697a696e67000000000000000000000000000000000000000000602082015250565b6200196f81620014fa565b81146200197b57600080fd5b50565b62001989816200150e565b81146200199557600080fd5b50565b620019a38162001522565b8114620019af57600080fd5b50565b620019bd8162001556565b8114620019c957600080fd5b50565b613cdd80620019dc6000396000f3fe608060405234801561001057600080fd5b50600436106101da5760003560e01c806379bfb08911610104578063a8a829c1116100a2578063ef00ef4311610071578063ef00ef4314610521578063f2fde38b1461053d578063f8ce560a14610559578063f96dae0a14610589576101da565b8063a8a829c11461049d578063bf1b5efd146104b9578063ca6d56dc146104d5578063d69be91c146104f1576101da565b80638da5cb5b116100de5780638da5cb5b1461042757806397c3d33414610445578063a4f9edbf14610463578063a7713a701461047f576101da565b806379bfb089146103d15780637a3ff4d2146103ed5780638652297314610409576101da565b80631f2c562e1161017c57806354fd4d501161014b57806354fd4d501461036d578063715018a61461038b578063747691df1461039557806378446bc1146103b3576101da565b80631f2c562e146102d5578063224f3263146102f1578063438596321461030d578063494031831461033d576101da565b806306fdde03116101b857806306fdde031461024d57806308ae4b0c1461026b5780630b1ca49a1461029b57806311aee380146102b7576101da565b8063013cf08b146101df57806302a251a31461021357806306f3f9e614610231575b600080fd5b6101f960048036038101906101f49190612829565b6105a7565b60405161020a959493929190613263565b60405180910390f35b61021b6105dd565b604051610228919061321f565b60405180910390f35b61024b60048036038101906102469190612829565b6105e3565b005b61025561066b565b6040516102629190612f5d565b60405180910390f35b61028560048036038101906102809190612685565b6106f9565b6040516102929190612e3d565b60405180910390f35b6102b560048036038101906102b09190612685565b610719565b005b6102bf6108d2565b6040516102cc919061321f565b60405180910390f35b6102ef60048036038101906102ea9190612932565b6108d8565b005b61030b600480360381019061030691906127e0565b610954565b005b61032760048036038101906103229190612883565b610a7c565b6040516103349190612e3d565b60405180910390f35b61035760048036038101906103529190612829565b610ae7565b6040516103649190612e3d565b60405180910390f35b610375610c50565b6040516103829190612f5d565b60405180910390f35b610393610c8d565b005b61039d610d15565b6040516103aa9190612db4565b60405180910390f35b6103bb610d3b565b6040516103c8919061321f565b60405180910390f35b6103eb60048036038101906103e69190612829565b610d41565b005b61040760048036038101906104029190612829565b610e1d565b005b610411610ee4565b60405161041e9190612e58565b60405180910390f35b61042f610f08565b60405161043c9190612db4565b60405180910390f35b61044d610f32565b60405161045a919061321f565b60405180910390f35b61047d600480360381019061047891906127e0565b610f3b565b005b610487611292565b604051610494919061321f565b60405180910390f35b6104b760048036038101906104b29190612685565b61129c565b005b6104d360048036038101906104ce91906128c3565b6113de565b005b6104ef60048036038101906104ea9190612685565b6113f8565b005b61050b600480360381019061050691906127a0565b6115b1565b604051610518919061321f565b60405180910390f35b61053b60048036038101906105369190612829565b61170c565b005b61055760048036038101906105529190612685565b6117d3565b005b610573600480360381019061056e9190612829565b6118cb565b604051610580919061321f565b60405180910390f35b6105916119a3565b60405161059e9190612f42565b60405180910390f35b609d6020528060005260406000206000915090508060000154908060010154908060020154908060030154908060040154905085565b609a5481565b6105eb6119ec565b73ffffffffffffffffffffffffffffffffffffffff16610609610f08565b73ffffffffffffffffffffffffffffffffffffffff161461065f576040517f08c379a00000000000000000000000000000000000000000000000000000000081526004016106569061313f565b60405180910390fd5b610668816119f4565b50565b609c805461067890613584565b80601f01602080910402602001604051908101604052809291908181526020018280546106a490613584565b80156106f15780601f106106c6576101008083540402835291602001916106f1565b820191906000526020600020905b8154815290600101906020018083116106d457829003601f168201915b505050505081565b609f6020528060005260406000206000915054906101000a900460ff1681565b6107216119ec565b73ffffffffffffffffffffffffffffffffffffffff1661073f610f08565b73ffffffffffffffffffffffffffffffffffffffff1614610795576040517f08c379a000000000000000000000000000000000000000000000000000000000815260040161078c9061313f565b60405180910390fd5b60011515609f60008373ffffffffffffffffffffffffffffffffffffffff1673ffffffffffffffffffffffffffffffffffffffff16815260200190815260200160002060009054906101000a900460ff16151514610828576040517f08c379a000000000000000000000000000000000000000000000000000000000815260040161081f906131bf565b60405180910390fd5b6000609f60008373ffffffffffffffffffffffffffffffffffffffff1673ffffffffffffffffffffffffffffffffffffffff16815260200190815260200160002060006101000a81548160ff021916908315150217905550609e60008154809291906108939061355a565b91905055507f6e76fb4c77256006d9c38ec7d82b45a8c8f3c27b1d6766fffc42dfb8de684492816040516108c79190612db4565b60405180910390a150565b609e5481565b60006109366109307fb780761e36898d7ec1cc0fb66fdd6a8a42e635ee643709d6b20652c68a3b29f5878760405160200161091593929190612ec6565b60405160208183030381529060405280519060200120611a89565b84611aa3565b905061094d858286610948858a6115b1565b611aca565b5050505050565b606560009054906101000a900473ffffffffffffffffffffffffffffffffffffffff1673ffffffffffffffffffffffffffffffffffffffff163373ffffffffffffffffffffffffffffffffffffffff16146109e4576040517f08c379a00000000000000000000000000000000000000000000000000000000081526004016109db9061311f565b60405180910390fd5b6000818060200190518101906109fa9190612856565b905042609a54610a0a9190613390565b609d60008381526020019081526020016000206003018190555043609d6000838152602001908152602001600020600401819055507f3aeda78f6230a590817748b94b63d690cec4d1a15d494dfc7006e0a39e77f81a8142604051610a7092919061323a565b60405180910390a15050565b6000609d600084815260200190815260200160002060050160008373ffffffffffffffffffffffffffffffffffffffff1673ffffffffffffffffffffffffffffffffffffffff16815260200190815260200160002060009054906101000a900460ff16905092915050565b6000609d600083815260200190815260200160002060010154609d60008481526020019081526020016000206000015411610b57576040517f08c379a0000000000000000000000000000000000000000000000000000000008152600401610b4e90612fbf565b60405180910390fd5b610b76609d6000848152602001908152602001600020600401546118cb565b609d600084815260200190815260200160002060020154609d600085815260200190815260200160002060000154610bae9190613390565b1015610bef576040517f08c379a0000000000000000000000000000000000000000000000000000000008152600401610be69061303f565b60405180910390fd5b42609d60008481526020019081526020016000206003015410610c47576040517f08c379a0000000000000000000000000000000000000000000000000000000008152600401610c3e9061315f565b60405180910390fd5b60019050919050565b60606040518060400160405280600181526020017f3100000000000000000000000000000000000000000000000000000000000000815250905090565b610c956119ec565b73ffffffffffffffffffffffffffffffffffffffff16610cb3610f08565b73ffffffffffffffffffffffffffffffffffffffff1614610d09576040517f08c379a0000000000000000000000000000000000000000000000000000000008152600401610d009061313f565b60405180910390fd5b610d136000611d51565b565b606560009054906101000a900473ffffffffffffffffffffffffffffffffffffffff1681565b609b5481565b610d4a81610ae7565b15610de157606560009054906101000a900473ffffffffffffffffffffffffffffffffffffffff1673ffffffffffffffffffffffffffffffffffffffff16634fd6134882609b546040518363ffffffff1660e01b8152600401610dae92919061323a565b600060405180830381600087803b158015610dc857600080fd5b505af1158015610ddc573d6000803e3d6000fd5b505050505b7f54ffcee03e8b80c05e4d1c55e3dc60602d9082a899e50337b680c9c4c4d80a3a8142604051610e1292919061323a565b60405180910390a150565b610e256119ec565b73ffffffffffffffffffffffffffffffffffffffff16610e43610f08565b73ffffffffffffffffffffffffffffffffffffffff1614610e99576040517f08c379a0000000000000000000000000000000000000000000000000000000008152600401610e909061313f565b60405180910390fd5b6000609b54905081609b819055507f2a72574d775756e698a258fc07c826b7185131fff8a96b868feacab45fb234328183604051610ed892919061323a565b60405180910390a15050565b7fb780761e36898d7ec1cc0fb66fdd6a8a42e635ee643709d6b20652c68a3b29f581565b6000603360009054906101000a900473ffffffffffffffffffffffffffffffffffffffff16905090565b60006064905090565b600060019054906101000a900460ff16610f635760008054906101000a900460ff1615610f6c565b610f6b611e17565b5b610fab576040517f08c379a0000000000000000000000000000000000000000000000000000000008152600401610fa2906130df565b60405180910390fd5b60008060019054906101000a900460ff161590508015610ffb576001600060016101000a81548160ff02191690831515021790555060016000806101000a81548160ff0219169083151502179055505b6000806000806000806000808980602001905181019061101b91906126b2565b975097509750975097509750975097506001851161106e576040517f08c379a000000000000000000000000000000000000000000000000000000000815260040161106590612f9f565b60405180910390fd5b600073ffffffffffffffffffffffffffffffffffffffff168773ffffffffffffffffffffffffffffffffffffffff1614156110de576040517f08c379a00000000000000000000000000000000000000000000000000000000081526004016110d590612fdf565b60405180910390fd5b6110e6611e28565b60005b815181101561112857611115828281518110611108576111076136f6565b5b60200260200101516113f8565b8080611120906135e7565b9150506110e9565b508660a160006101000a81548173ffffffffffffffffffffffffffffffffffffffff021916908373ffffffffffffffffffffffffffffffffffffffff16021790555061117b82611176610c50565b611e81565b611184846105e3565b61118d886117d3565b60018561119a9190613417565b609a8190555085606560006101000a81548173ffffffffffffffffffffffffffffffffffffffff021916908373ffffffffffffffffffffffffffffffffffffffff1602179055506001836111ee9190613417565b609b8190555081609c908051906020019061120a9291906123d1565b508773ffffffffffffffffffffffffffffffffffffffff168673ffffffffffffffffffffffffffffffffffffffff167f61586574b8b0edca97136ad4cb664eec4742d53de53403d531506632e6342a3960405160405180910390a35050505050505050801561128e5760008060016101000a81548160ff0219169083151502179055505b5050565b600060a054905090565b6112a46119ec565b73ffffffffffffffffffffffffffffffffffffffff166112c2610f08565b73ffffffffffffffffffffffffffffffffffffffff1614611318576040517f08c379a000000000000000000000000000000000000000000000000000000000815260040161130f9061313f565b60405180910390fd5b6000606560009054906101000a900473ffffffffffffffffffffffffffffffffffffffff16905081606560006101000a81548173ffffffffffffffffffffffffffffffffffffffff021916908373ffffffffffffffffffffffffffffffffffffffff1602179055508173ffffffffffffffffffffffffffffffffffffffff168173ffffffffffffffffffffffffffffffffffffffff167f20c8544544aefaefdf339d996d855f2d4040cf93548344aa7dcb03b19e160cd160405160405180910390a35050565b6113f38333846113ee33886115b1565b611aca565b505050565b6114006119ec565b73ffffffffffffffffffffffffffffffffffffffff1661141e610f08565b73ffffffffffffffffffffffffffffffffffffffff1614611474576040517f08c379a000000000000000000000000000000000000000000000000000000000815260040161146b9061313f565b60405180910390fd5b60001515609f60008373ffffffffffffffffffffffffffffffffffffffff1673ffffffffffffffffffffffffffffffffffffffff16815260200190815260200160002060009054906101000a900460ff16151514611507576040517f08c379a00000000000000000000000000000000000000000000000000000000081526004016114fe9061307f565b60405180910390fd5b6001609f60008373ffffffffffffffffffffffffffffffffffffffff1673ffffffffffffffffffffffffffffffffffffffff16815260200190815260200160002060006101000a81548160ff021916908315150217905550609e6000815480929190611572906135e7565b91905055507fb251eb052afc73ffd02ffe85ad79990a8b3fed60d76dbc2fa2fdd7123dffd914816040516115a69190612db4565b60405180910390a150565b600082609f60008273ffffffffffffffffffffffffffffffffffffffff1673ffffffffffffffffffffffffffffffffffffffff16815260200190815260200160002060009054906101000a900460ff16611640576040517f08c379a00000000000000000000000000000000000000000000000000000000081526004016116379061319f565b60405180910390fd5b60a160009054906101000a900473ffffffffffffffffffffffffffffffffffffffff1673ffffffffffffffffffffffffffffffffffffffff16633a46b1a885609d6000878152602001908152602001600020600401546040518363ffffffff1660e01b81526004016116b3929190612dcf565b60206040518083038186803b1580156116cb57600080fd5b505afa1580156116df573d6000803e3d6000fd5b505050506040513d601f19601f820116820180604052508101906117039190612856565b91505092915050565b6117146119ec565b73ffffffffffffffffffffffffffffffffffffffff16611732610f08565b73ffffffffffffffffffffffffffffffffffffffff1614611788576040517f08c379a000000000000000000000000000000000000000000000000000000000815260040161177f9061313f565b60405180910390fd5b6000609a54905081609a819055507fffc708f072ca56e3d45ef0cb288b96cb9378f5f63e1646868bfbc9c38f4263a181836040516117c792919061323a565b60405180910390a15050565b6117db6119ec565b73ffffffffffffffffffffffffffffffffffffffff166117f9610f08565b73ffffffffffffffffffffffffffffffffffffffff161461184f576040517f08c379a00000000000000000000000000000000000000000000000000000000081526004016118469061313f565b60405180910390fd5b600073ffffffffffffffffffffffffffffffffffffffff168173ffffffffffffffffffffffffffffffffffffffff1614156118bf576040517f08c379a00000000000000000000000000000000000000000000000000000000081526004016118b69061305f565b60405180910390fd5b6118c881611d51565b50565b60006118d5610f32565b6118dd611292565b60a160009054906101000a900473ffffffffffffffffffffffffffffffffffffffff1673ffffffffffffffffffffffffffffffffffffffff16638e539e8c856040518263ffffffff1660e01b8152600401611938919061321f565b60206040518083038186803b15801561195057600080fd5b505afa158015611964573d6000803e3d6000fd5b505050506040513d601f19601f820116820180604052508101906119889190612856565b6119929190613417565b61199c91906133e6565b9050919050565b60a160009054906101000a900473ffffffffffffffffffffffffffffffffffffffff1681565b6000808273ffffffffffffffffffffffffffffffffffffffff163b119050919050565b600033905090565b6119fc610f32565b811115611a3e576040517f08c379a0000000000000000000000000000000000000000000000000000000008152600401611a359061317f565b60405180910390fd5b600060a05490508160a0819055507f0553476bf02ef2726e8ce5ced78d63e26e602e4a2257b1f559418e24b46339978183604051611a7d92919061323a565b60405180910390a15050565b6000611a9c611a96611efc565b83611f3c565b9050919050565b6000806000611ab28585611f6f565b91509150611abf81611ff2565b819250505092915050565b609d600085815260200190815260200160002060030154421115611b23576040517f08c379a0000000000000000000000000000000000000000000000000000000008152600401611b1a9061301f565b60405180910390fd5b611b2d8484610a7c565b15611b6d576040517f08c379a0000000000000000000000000000000000000000000000000000000008152600401611b64906130bf565b60405180910390fd5b6001609d600086815260200190815260200160002060050160008573ffffffffffffffffffffffffffffffffffffffff1673ffffffffffffffffffffffffffffffffffffffff16815260200190815260200160002060006101000a81548160ff02191690831515021790555060006002811115611bed57611bec613698565b5b60ff168260ff161415611c2c5780609d60008681526020019081526020016000206001016000828254611c209190613390565b92505081905550611d0e565b60016002811115611c4057611c3f613698565b5b60ff168260ff161415611c7f5780609d60008681526020019081526020016000206000016000828254611c739190613390565b92505081905550611d0d565b600280811115611c9257611c91613698565b5b60ff168260ff161415611cd15780609d60008681526020019081526020016000206002016000828254611cc59190613390565b92505081905550611d0c565b6040517f08c379a0000000000000000000000000000000000000000000000000000000008152600401611d03906131ff565b60405180910390fd5b5b5b7f27eb20ecadc80d52f641a540b295d208f7c3735545d321b08e505116c601319983858484604051611d439493929190612df8565b60405180910390a150505050565b6000603360009054906101000a900473ffffffffffffffffffffffffffffffffffffffff16905081603360006101000a81548173ffffffffffffffffffffffffffffffffffffffff021916908373ffffffffffffffffffffffffffffffffffffffff1602179055508173ffffffffffffffffffffffffffffffffffffffff168173ffffffffffffffffffffffffffffffffffffffff167f8be0079c531659141344cd1fd0a4f28419497f9722a3daafe3b4186f6b6457e060405160405180910390a35050565b6000611e22306119c9565b15905090565b600060019054906101000a900460ff16611e77576040517f08c379a0000000000000000000000000000000000000000000000000000000008152600401611e6e906131df565b60405180910390fd5b611e7f6121c7565b565b600060019054906101000a900460ff16611ed0576040517f08c379a0000000000000000000000000000000000000000000000000000000008152600401611ec7906131df565b60405180910390fd5b600082805190602001209050600082805190602001209050816066819055508060678190555050505050565b6000611f377f8b73c3c69bb8fe3d512ecc4cf759cc79239f7b179b0ffacaa9a75d522b39400f611f2a612228565b611f32612232565b61223c565b905090565b60008282604051602001611f51929190612d7d565b60405160208183030381529060405280519060200120905092915050565b600080604183511415611fb15760008060006020860151925060408601519150606086015160001a9050611fa587828585612276565b94509450505050611feb565b604083511415611fe2576000806020850151915060408501519050611fd7868383612383565b935093505050611feb565b60006002915091505b9250929050565b6000600481111561200657612005613698565b5b81600481111561201957612018613698565b5b1415612024576121c4565b6001600481111561203857612037613698565b5b81600481111561204b5761204a613698565b5b141561208c576040517f08c379a000000000000000000000000000000000000000000000000000000000815260040161208390612f7f565b60405180910390fd5b600260048111156120a05761209f613698565b5b8160048111156120b3576120b2613698565b5b14156120f4576040517f08c379a00000000000000000000000000000000000000000000000000000000081526004016120eb90612fff565b60405180910390fd5b6003600481111561210857612107613698565b5b81600481111561211b5761211a613698565b5b141561215c576040517f08c379a00000000000000000000000000000000000000000000000000000000081526004016121539061309f565b60405180910390fd5b60048081111561216f5761216e613698565b5b81600481111561218257612181613698565b5b14156121c3576040517f08c379a00000000000000000000000000000000000000000000000000000000081526004016121ba906130ff565b60405180910390fd5b5b50565b600060019054906101000a900460ff16612216576040517f08c379a000000000000000000000000000000000000000000000000000000000815260040161220d906131df565b60405180910390fd5b6122266122216119ec565b611d51565b565b6000606654905090565b6000606754905090565b60008383834630604051602001612257959493929190612e73565b6040516020818303038152906040528051906020012090509392505050565b6000807f7fffffffffffffffffffffffffffffff5d576e7357a4501ddfe92f46681b20a08360001c11156122b157600060039150915061237a565b601b8560ff16141580156122c95750601c8560ff1614155b156122db57600060049150915061237a565b6000600187878787604051600081526020016040526040516123009493929190612efd565b6020604051602081039080840390855afa158015612322573d6000803e3d6000fd5b505050602060405103519050600073ffffffffffffffffffffffffffffffffffffffff168173ffffffffffffffffffffffffffffffffffffffff1614156123715760006001925092505061237a565b80600092509250505b94509492505050565b6000806000807f7fffffffffffffffffffffffffffffffffffffffffffffffffffffffffffffff85169150601b8560ff1c0190506123c387828885612276565b935093505050935093915050565b8280546123dd90613584565b90600052602060002090601f0160209004810192826123ff5760008555612446565b82601f1061241857805160ff1916838001178555612446565b82800160010185558215612446579182015b8281111561244557825182559160200191906001019061242a565b5b5090506124539190612457565b5090565b5b80821115612470576000816000905550600101612458565b5090565b6000612487612482846132db565b6132b6565b905080838252602082019050828560208602820111156124aa576124a9613759565b5b60005b858110156124da57816124c0888261257d565b8452602084019350602083019250506001810190506124ad565b5050509392505050565b60006124f76124f284613307565b6132b6565b9050828152602081018484840111156125135761251261375e565b5b61251e848285613518565b509392505050565b600061253961253484613338565b6132b6565b9050828152602081018484840111156125555761255461375e565b5b612560848285613527565b509392505050565b60008135905061257781613c34565b92915050565b60008151905061258c81613c34565b92915050565b6000815190506125a181613c4b565b92915050565b600082601f8301126125bc576125bb613754565b5b81516125cc848260208601612474565b91505092915050565b600082601f8301126125ea576125e9613754565b5b81356125fa8482602086016124e4565b91505092915050565b60008151905061261281613c62565b92915050565b600082601f83011261262d5761262c613754565b5b815161263d848260208601612526565b91505092915050565b60008135905061265581613c79565b92915050565b60008151905061266a81613c79565b92915050565b60008135905061267f81613c90565b92915050565b60006020828403121561269b5761269a613768565b5b60006126a984828501612568565b91505092915050565b600080600080600080600080610100898b0312156126d3576126d2613768565b5b60006126e18b828c01612592565b98505060206126f28b828c01612603565b97505060406127038b828c01612592565b96505060606127148b828c0161265b565b95505060806127258b828c0161265b565b94505060a06127368b828c0161265b565b93505060c089015167ffffffffffffffff81111561275757612756613763565b5b6127638b828c01612618565b92505060e089015167ffffffffffffffff81111561278457612783613763565b5b6127908b828c016125a7565b9150509295985092959890939650565b600080604083850312156127b7576127b6613768565b5b60006127c585828601612568565b92505060206127d685828601612646565b9150509250929050565b6000602082840312156127f6576127f5613768565b5b600082013567ffffffffffffffff81111561281457612813613763565b5b612820848285016125d5565b91505092915050565b60006020828403121561283f5761283e613768565b5b600061284d84828501612646565b91505092915050565b60006020828403121561286c5761286b613768565b5b600061287a8482850161265b565b91505092915050565b6000806040838503121561289a57612899613768565b5b60006128a885828601612646565b92505060206128b985828601612568565b9150509250929050565b6000806000606084860312156128dc576128db613768565b5b60006128ea86828701612646565b93505060206128fb86828701612670565b925050604084013567ffffffffffffffff81111561291c5761291b613763565b5b612928868287016125d5565b9150509250925092565b6000806000806080858703121561294c5761294b613768565b5b600061295a87828801612646565b945050602061296b87828801612670565b935050604085013567ffffffffffffffff81111561298c5761298b613763565b5b612998878288016125d5565b925050606085013567ffffffffffffffff8111156129b9576129b8613763565b5b6129c5878288016125d5565b91505092959194509250565b6129da81613471565b82525050565b6129e981613495565b82525050565b6129f8816134a1565b82525050565b612a0f612a0a826134a1565b613630565b82525050565b612a1e816134f4565b82525050565b6000612a2f82613369565b612a398185613374565b9350612a49818560208601613527565b612a528161376d565b840191505092915050565b6000612a6a601883613374565b9150612a758261377e565b602082019050919050565b6000612a8d602383613374565b9150612a98826137a7565b604082019050919050565b6000612ab0601d83613374565b9150612abb826137f6565b602082019050919050565b6000612ad3602083613374565b9150612ade8261381f565b602082019050919050565b6000612af6601f83613374565b9150612b0182613848565b602082019050919050565b6000612b19601883613374565b9150612b2482613871565b602082019050919050565b6000612b3c602e83613374565b9150612b478261389a565b604082019050919050565b6000612b5f602683613374565b9150612b6a826138e9565b604082019050919050565b6000612b82600283613385565b9150612b8d82613938565b600282019050919050565b6000612ba5601c83613374565b9150612bb082613961565b602082019050919050565b6000612bc8602283613374565b9150612bd38261398a565b604082019050919050565b6000612beb601783613374565b9150612bf6826139d9565b602082019050919050565b6000612c0e602e83613374565b9150612c1982613a02565b604082019050919050565b6000612c31602283613374565b9150612c3c82613a51565b604082019050919050565b6000612c54601a83613374565b9150612c5f82613aa0565b602082019050919050565b6000612c77602083613374565b9150612c8282613ac9565b602082019050919050565b6000612c9a602083613374565b9150612ca582613af2565b602082019050919050565b6000612cbd602683613374565b9150612cc882613b1b565b604082019050919050565b6000612ce0601583613374565b9150612ceb82613b6a565b602082019050919050565b6000612d03601883613374565b9150612d0e82613b93565b602082019050919050565b6000612d26602b83613374565b9150612d3182613bbc565b604082019050919050565b6000612d49601f83613374565b9150612d5482613c0b565b602082019050919050565b612d68816134dd565b82525050565b612d77816134e7565b82525050565b6000612d8882612b75565b9150612d9482856129fe565b602082019150612da482846129fe565b6020820191508190509392505050565b6000602082019050612dc960008301846129d1565b92915050565b6000604082019050612de460008301856129d1565b612df16020830184612d5f565b9392505050565b6000608082019050612e0d60008301876129d1565b612e1a6020830186612d5f565b612e276040830185612d6e565b612e346060830184612d5f565b95945050505050565b6000602082019050612e5260008301846129e0565b92915050565b6000602082019050612e6d60008301846129ef565b92915050565b600060a082019050612e8860008301886129ef565b612e9560208301876129ef565b612ea260408301866129ef565b612eaf6060830185612d5f565b612ebc60808301846129d1565b9695505050505050565b6000606082019050612edb60008301866129ef565b612ee86020830185612d5f565b612ef56040830184612d6e565b949350505050565b6000608082019050612f1260008301876129ef565b612f1f6020830186612d6e565b612f2c60408301856129ef565b612f3960608301846129ef565b95945050505050565b6000602082019050612f576000830184612a15565b92915050565b60006020820190508181036000830152612f778184612a24565b905092915050565b60006020820190508181036000830152612f9881612a5d565b9050919050565b60006020820190508181036000830152612fb881612a80565b9050919050565b60006020820190508181036000830152612fd881612aa3565b9050919050565b60006020820190508181036000830152612ff881612ac6565b9050919050565b6000602082019050818103600083015261301881612ae9565b9050919050565b6000602082019050818103600083015261303881612b0c565b9050919050565b6000602082019050818103600083015261305881612b2f565b9050919050565b6000602082019050818103600083015261307881612b52565b9050919050565b6000602082019050818103600083015261309881612b98565b9050919050565b600060208201905081810360008301526130b881612bbb565b9050919050565b600060208201905081810360008301526130d881612bde565b9050919050565b600060208201905081810360008301526130f881612c01565b9050919050565b6000602082019050818103600083015261311881612c24565b9050919050565b6000602082019050818103600083015261313881612c47565b9050919050565b6000602082019050818103600083015261315881612c6a565b9050919050565b6000602082019050818103600083015261317881612c8d565b9050919050565b6000602082019050818103600083015261319881612cb0565b9050919050565b600060208201905081810360008301526131b881612cd3565b9050919050565b600060208201905081810360008301526131d881612cf6565b9050919050565b600060208201905081810360008301526131f881612d19565b9050919050565b6000602082019050818103600083015261321881612d3c565b9050919050565b60006020820190506132346000830184612d5f565b92915050565b600060408201905061324f6000830185612d5f565b61325c6020830184612d5f565b9392505050565b600060a0820190506132786000830188612d5f565b6132856020830187612d5f565b6132926040830186612d5f565b61329f6060830185612d5f565b6132ac6080830184612d5f565b9695505050505050565b60006132c06132d1565b90506132cc82826135b6565b919050565b6000604051905090565b600067ffffffffffffffff8211156132f6576132f5613725565b5b602082029050602081019050919050565b600067ffffffffffffffff82111561332257613321613725565b5b61332b8261376d565b9050602081019050919050565b600067ffffffffffffffff82111561335357613352613725565b5b61335c8261376d565b9050602081019050919050565b600081519050919050565b600082825260208201905092915050565b600081905092915050565b600061339b826134dd565b91506133a6836134dd565b9250827fffffffffffffffffffffffffffffffffffffffffffffffffffffffffffffffff038211156133db576133da61363a565b5b828201905092915050565b60006133f1826134dd565b91506133fc836134dd565b92508261340c5761340b613669565b5b828204905092915050565b6000613422826134dd565b915061342d836134dd565b9250817fffffffffffffffffffffffffffffffffffffffffffffffffffffffffffffffff04831182151516156134665761346561363a565b5b828202905092915050565b600061347c826134bd565b9050919050565b600061348e826134bd565b9050919050565b60008115159050919050565b6000819050919050565b60006134b682613471565b9050919050565b600073ffffffffffffffffffffffffffffffffffffffff82169050919050565b6000819050919050565b600060ff82169050919050565b60006134ff82613506565b9050919050565b6000613511826134bd565b9050919050565b82818337600083830152505050565b60005b8381101561354557808201518184015260208101905061352a565b83811115613554576000848401525b50505050565b6000613565826134dd565b915060008214156135795761357861363a565b5b600182039050919050565b6000600282049050600182168061359c57607f821691505b602082108114156135b0576135af6136c7565b5b50919050565b6135bf8261376d565b810181811067ffffffffffffffff821117156135de576135dd613725565b5b80604052505050565b60006135f2826134dd565b91507fffffffffffffffffffffffffffffffffffffffffffffffffffffffffffffffff8214156136255761362461363a565b5b600182019050919050565b6000819050919050565b7f4e487b7100000000000000000000000000000000000000000000000000000000600052601160045260246000fd5b7f4e487b7100000000000000000000000000000000000000000000000000000000600052601260045260246000fd5b7f4e487b7100000000000000000000000000000000000000000000000000000000600052602160045260246000fd5b7f4e487b7100000000000000000000000000000000000000000000000000000000600052602260045260246000fd5b7f4e487b7100000000000000000000000000000000000000000000000000000000600052603260045260246000fd5b7f4e487b7100000000000000000000000000000000000000000000000000000000600052604160045260246000fd5b600080fd5b600080fd5b600080fd5b600080fd5b600080fd5b6000601f19601f8301169050919050565b7f45434453413a20696e76616c6964207369676e61747572650000000000000000600082015250565b7f766f74696e67506572696f64206d75737420626520677265617465722074686160008201527f6e20310000000000000000000000000000000000000000000000000000000000602082015250565b7f6d616a6f7269747920796573566f746573206e6f742072656163686564000000600082015250565b7f696e76616c696420676f7665726e616e636520746f6b656e2061646472657373600082015250565b7f45434453413a20696e76616c6964207369676e6174757265206c656e67746800600082015250565b7f766f74696e6720706572696f6420686173207061737365640000000000000000600082015250565b7f612071756f72756d20686173206e6f74206265656e207265616368656420666f60008201527f72207468652070726f706f73616c000000000000000000000000000000000000602082015250565b7f4f776e61626c653a206e6577206f776e657220697320746865207a65726f206160008201527f6464726573730000000000000000000000000000000000000000000000000000602082015250565b7f1901000000000000000000000000000000000000000000000000000000000000600082015250565b7f6d656d62657220697320616c7265616479207265676973746572656400000000600082015250565b7f45434453413a20696e76616c6964207369676e6174757265202773272076616c60008201527f7565000000000000000000000000000000000000000000000000000000000000602082015250565b7f766f7465722068617320616c726561647920766f746564000000000000000000600082015250565b7f496e697469616c697a61626c653a20636f6e747261637420697320616c72656160008201527f647920696e697469616c697a6564000000000000000000000000000000000000602082015250565b7f45434453413a20696e76616c6964207369676e6174757265202776272076616c60008201527f7565000000000000000000000000000000000000000000000000000000000000602082015250565b7f6f6e6c79205573756c206d6f64756c65206d617920656e746572000000000000600082015250565b7f4f776e61626c653a2063616c6c6572206973206e6f7420746865206f776e6572600082015250565b7f766f74696e6720706572696f6420686173206e6f742070617373656420796574600082015250565b7f71756f72756d4e756d657261746f72206f7665722071756f72756d44656e6f6d60008201527f696e61746f720000000000000000000000000000000000000000000000000000602082015250565b7f766f746572206973206e6f742061206d656d6265720000000000000000000000600082015250565b7f6d656d626572206973206e6f7420726567697374657265640000000000000000600082015250565b7f496e697469616c697a61626c653a20636f6e7472616374206973206e6f74206960008201527f6e697469616c697a696e67000000000000000000000000000000000000000000602082015250565b7f696e76616c69642076616c756520666f7220656e756d20566f74655479706500600082015250565b613c3d81613471565b8114613c4857600080fd5b50565b613c5481613483565b8114613c5f57600080fd5b50565b613c6b816134ab565b8114613c7657600080fd5b50565b613c82816134dd565b8114613c8d57600080fd5b50565b613c99816134e7565b8114613ca457600080fd5b5056fea2646970667358221220e220e48eb7354f7d7826d9ddf9457c848b5d10ba6ddedb96b513b9c477ebede364736f6c63430008060033",
  "devdoc": {
    "author": "Nathan Ginnever - <team@sekerdao.com>",
    "kind": "dev",
    "methods": {
      "finalizeStrategy(uint256)": {
        "details": "Calls the proposal module to notify that a quorum has been reached.",
        "params": {
          "proposalId": "the proposal to vote for."
        }
      },
      "hasVoted(uint256,address)": {
        "details": "Returns true if an account has voted on a specific proposal.",
        "params": {
          "account": "the account to inspect.",
          "proposalId": "the proposal to inspect."
        },
        "returns": {
          "_0": "boolean."
        }
      },
      "isPassed(uint256)": {
        "details": "Determines if a proposal has succeeded.",
        "params": {
          "proposalId": "the proposal to vote for."
        },
        "returns": {
          "_0": "boolean."
        }
      },
      "owner()": {
        "details": "Returns the address of the current owner."
      },
      "receiveProposal(bytes)": {
        "details": "Called by the proposal module, this notifes the strategy of a new proposal.",
        "params": {
          "data": "any extra data to pass to the voting strategy"
        }
      },
      "renounceOwnership()": {
        "details": "Leaves the contract without owner. It will not be possible to call `onlyOwner` functions anymore. Can only be called by the current owner. NOTE: Renouncing ownership will leave the contract without an owner, thereby removing any functionality that is only available to the owner."
      },
      "setUsul(address)": {
        "details": "Sets the executor to a new account (`newExecutor`)."
      },
      "transferOwnership(address)": {
        "details": "Transfers ownership of the contract to a new account (`newOwner`). Can only be called by the current owner."
      },
      "updateTimeLockPeriod(uint256)": {
        "details": "Updates the grace period time after a proposal passed before it can execute.",
        "params": {
          "newTimeLockPeriod": "the new delay before execution."
        }
      },
      "updateVotingPeriod(uint256)": {
        "details": "Updates the time that proposals are active for voting.",
        "params": {
          "newPeriod": "the voting window."
        }
      },
      "version()": {
        "details": "ERC712 version."
      },
      "vote(uint256,uint8,bytes)": {
        "details": "Submits a vote for a proposal.",
        "params": {
          "proposalId": "the proposal to vote for.",
          "support": "against, for, or abstain."
        }
      },
      "voteSignature(uint256,uint8,bytes,bytes)": {
        "details": "Submits a vote for a proposal by ERC712 signature.",
        "params": {
          "proposalId": "the proposal to vote for.",
          "signature": "712 signed vote.",
          "support": "against, for, or abstain."
        }
      }
    },
    "title": "OpenZeppelin Linear Voting Strategy - A Usul strategy that enables compount like voting.",
    "version": 1
  },
  "userdoc": {
    "kind": "user",
    "methods": {
      "setUsul(address)": {
        "notice": "Can only be called by the current owner."
      }
    },
    "version": 1
  },
  "storageLayout": {
    "storage": [
      {
        "astId": 3500,
        "contract": "contracts/votingStrategies/MemberLinearVoting.sol:MemberLinearVoting",
        "label": "_initialized",
        "offset": 0,
        "slot": "0",
        "type": "t_bool"
      },
      {
        "astId": 3503,
        "contract": "contracts/votingStrategies/MemberLinearVoting.sol:MemberLinearVoting",
        "label": "_initializing",
        "offset": 1,
        "slot": "0",
        "type": "t_bool"
      },
      {
        "astId": 3851,
        "contract": "contracts/votingStrategies/MemberLinearVoting.sol:MemberLinearVoting",
        "label": "__gap",
        "offset": 0,
        "slot": "1",
        "type": "t_array(t_uint256)50_storage"
      },
      {
        "astId": 3380,
        "contract": "contracts/votingStrategies/MemberLinearVoting.sol:MemberLinearVoting",
        "label": "_owner",
        "offset": 0,
        "slot": "51",
        "type": "t_address"
      },
      {
        "astId": 3492,
        "contract": "contracts/votingStrategies/MemberLinearVoting.sol:MemberLinearVoting",
        "label": "__gap",
        "offset": 0,
        "slot": "52",
        "type": "t_array(t_uint256)49_storage"
      },
      {
        "astId": 7346,
        "contract": "contracts/votingStrategies/MemberLinearVoting.sol:MemberLinearVoting",
        "label": "UsulModule",
        "offset": 0,
        "slot": "101",
        "type": "t_address"
      },
      {
        "astId": 4471,
        "contract": "contracts/votingStrategies/MemberLinearVoting.sol:MemberLinearVoting",
        "label": "_HASHED_NAME",
        "offset": 0,
        "slot": "102",
        "type": "t_bytes32"
      },
      {
        "astId": 4473,
        "contract": "contracts/votingStrategies/MemberLinearVoting.sol:MemberLinearVoting",
        "label": "_HASHED_VERSION",
        "offset": 0,
        "slot": "103",
        "type": "t_bytes32"
      },
      {
        "astId": 4611,
        "contract": "contracts/votingStrategies/MemberLinearVoting.sol:MemberLinearVoting",
        "label": "__gap",
        "offset": 0,
        "slot": "104",
        "type": "t_array(t_uint256)50_storage"
      },
      {
        "astId": 8696,
        "contract": "contracts/votingStrategies/MemberLinearVoting.sol:MemberLinearVoting",
        "label": "votingPeriod",
        "offset": 0,
        "slot": "154",
        "type": "t_uint256"
      },
      {
        "astId": 8698,
        "contract": "contracts/votingStrategies/MemberLinearVoting.sol:MemberLinearVoting",
        "label": "timeLockPeriod",
        "offset": 0,
        "slot": "155",
        "type": "t_uint256"
      },
      {
        "astId": 8700,
        "contract": "contracts/votingStrategies/MemberLinearVoting.sol:MemberLinearVoting",
        "label": "name",
        "offset": 0,
        "slot": "156",
        "type": "t_string_storage"
      },
      {
        "astId": 8705,
        "contract": "contracts/votingStrategies/MemberLinearVoting.sol:MemberLinearVoting",
        "label": "proposals",
        "offset": 0,
        "slot": "157",
        "type": "t_mapping(t_uint256,t_struct(ProposalVoting)8694_storage)"
      },
      {
        "astId": 8438,
        "contract": "contracts/votingStrategies/MemberLinearVoting.sol:MemberLinearVoting",
        "label": "memberCount",
        "offset": 0,
        "slot": "158",
        "type": "t_uint256"
      },
      {
        "astId": 8442,
        "contract": "contracts/votingStrategies/MemberLinearVoting.sol:MemberLinearVoting",
        "label": "members",
        "offset": 0,
        "slot": "159",
        "type": "t_mapping(t_address,t_bool)"
      },
      {
        "astId": 8591,
        "contract": "contracts/votingStrategies/MemberLinearVoting.sol:MemberLinearVoting",
        "label": "_quorumNumerator",
        "offset": 0,
        "slot": "160",
        "type": "t_uint256"
      },
      {
        "astId": 11404,
        "contract": "contracts/votingStrategies/MemberLinearVoting.sol:MemberLinearVoting",
        "label": "governanceToken",
        "offset": 0,
        "slot": "161",
        "type": "t_contract(ERC20Votes)5882"
      }
    ],
    "types": {
      "t_address": {
        "encoding": "inplace",
        "label": "address",
        "numberOfBytes": "20"
      },
      "t_array(t_uint256)49_storage": {
        "base": "t_uint256",
        "encoding": "inplace",
        "label": "uint256[49]",
        "numberOfBytes": "1568"
      },
      "t_array(t_uint256)50_storage": {
        "base": "t_uint256",
        "encoding": "inplace",
        "label": "uint256[50]",
        "numberOfBytes": "1600"
      },
      "t_bool": {
        "encoding": "inplace",
        "label": "bool",
        "numberOfBytes": "1"
      },
      "t_bytes32": {
        "encoding": "inplace",
        "label": "bytes32",
        "numberOfBytes": "32"
      },
      "t_contract(ERC20Votes)5882": {
        "encoding": "inplace",
        "label": "contract ERC20Votes",
        "numberOfBytes": "20"
      },
      "t_mapping(t_address,t_bool)": {
        "encoding": "mapping",
        "key": "t_address",
        "label": "mapping(address => bool)",
        "numberOfBytes": "32",
        "value": "t_bool"
      },
      "t_mapping(t_uint256,t_struct(ProposalVoting)8694_storage)": {
        "encoding": "mapping",
        "key": "t_uint256",
        "label": "mapping(uint256 => struct BaseTokenVoting.ProposalVoting)",
        "numberOfBytes": "32",
        "value": "t_struct(ProposalVoting)8694_storage"
      },
      "t_string_storage": {
        "encoding": "bytes",
        "label": "string",
        "numberOfBytes": "32"
      },
      "t_struct(ProposalVoting)8694_storage": {
        "encoding": "inplace",
        "label": "struct BaseTokenVoting.ProposalVoting",
        "members": [
          {
            "astId": 8681,
            "contract": "contracts/votingStrategies/MemberLinearVoting.sol:MemberLinearVoting",
            "label": "yesVotes",
            "offset": 0,
            "slot": "0",
            "type": "t_uint256"
          },
          {
            "astId": 8683,
            "contract": "contracts/votingStrategies/MemberLinearVoting.sol:MemberLinearVoting",
            "label": "noVotes",
            "offset": 0,
            "slot": "1",
            "type": "t_uint256"
          },
          {
            "astId": 8685,
            "contract": "contracts/votingStrategies/MemberLinearVoting.sol:MemberLinearVoting",
            "label": "abstainVotes",
            "offset": 0,
            "slot": "2",
            "type": "t_uint256"
          },
          {
            "astId": 8687,
            "contract": "contracts/votingStrategies/MemberLinearVoting.sol:MemberLinearVoting",
            "label": "deadline",
            "offset": 0,
            "slot": "3",
            "type": "t_uint256"
          },
          {
            "astId": 8689,
            "contract": "contracts/votingStrategies/MemberLinearVoting.sol:MemberLinearVoting",
            "label": "startBlock",
            "offset": 0,
            "slot": "4",
            "type": "t_uint256"
          },
          {
            "astId": 8693,
            "contract": "contracts/votingStrategies/MemberLinearVoting.sol:MemberLinearVoting",
            "label": "hasVoted",
            "offset": 0,
            "slot": "5",
            "type": "t_mapping(t_address,t_bool)"
          }
        ],
        "numberOfBytes": "192"
      },
      "t_uint256": {
        "encoding": "inplace",
        "label": "uint256",
        "numberOfBytes": "32"
      }
    }
  }
}