{
  "address": "0x2157a807448E58e02924c444137f8e3F047bd8c3",
  "abi": [
    {
      "inputs": [
        {
          "internalType": "address",
          "name": "_owner",
          "type": "address"
        },
        {
          "internalType": "address",
          "name": "_UsulModule",
          "type": "address"
        },
        {
          "internalType": "uint256",
          "name": "_votingPeriod",
          "type": "uint256"
        },
        {
          "internalType": "uint256",
          "name": "quorumNumerator_",
          "type": "uint256"
        },
        {
          "internalType": "uint256",
          "name": "_timeLockPeriod",
          "type": "uint256"
        },
        {
          "internalType": "string",
          "name": "name_",
          "type": "string"
        },
        {
          "internalType": "address[]",
          "name": "_members",
          "type": "address[]"
        }
      ],
      "stateMutability": "nonpayable",
      "type": "constructor"
    },
    {
      "anonymous": false,
      "inputs": [
        {
          "indexed": false,
          "internalType": "address",
          "name": "member",
          "type": "address"
        }
      ],
      "name": "MemberAdded",
      "type": "event"
    },
    {
      "anonymous": false,
      "inputs": [
        {
          "indexed": false,
          "internalType": "address",
          "name": "member",
          "type": "address"
        }
      ],
      "name": "MemberRemoved",
      "type": "event"
    },
    {
      "anonymous": false,
      "inputs": [
        {
          "indexed": true,
          "internalType": "address",
          "name": "previousOwner",
          "type": "address"
        },
        {
          "indexed": true,
          "internalType": "address",
          "name": "newOwner",
          "type": "address"
        }
      ],
      "name": "OwnershipTransferred",
      "type": "event"
    },
    {
      "anonymous": false,
      "inputs": [
        {
          "indexed": false,
          "internalType": "uint256",
          "name": "proposalId",
          "type": "uint256"
        },
        {
          "indexed": false,
          "internalType": "uint256",
          "name": "timestamp",
          "type": "uint256"
        }
      ],
      "name": "ProposalReceived",
      "type": "event"
    },
    {
      "anonymous": false,
      "inputs": [
        {
          "indexed": false,
          "internalType": "uint256",
          "name": "oldQuorumNumerator",
          "type": "uint256"
        },
        {
          "indexed": false,
          "internalType": "uint256",
          "name": "newQuorumNumerator",
          "type": "uint256"
        }
      ],
      "name": "QuorumNumeratorUpdated",
      "type": "event"
    },
    {
      "anonymous": false,
      "inputs": [
        {
          "indexed": true,
          "internalType": "address",
          "name": "UsulModule",
          "type": "address"
        },
        {
          "indexed": true,
          "internalType": "address",
          "name": "owner",
          "type": "address"
        }
      ],
      "name": "StrategySetup",
      "type": "event"
    },
    {
      "anonymous": false,
      "inputs": [
        {
          "indexed": false,
          "internalType": "uint256",
          "name": "previousTimeLock",
          "type": "uint256"
        },
        {
          "indexed": false,
          "internalType": "uint256",
          "name": "newTimeLockPeriod",
          "type": "uint256"
        }
      ],
      "name": "TimeLockUpdated",
      "type": "event"
    },
    {
      "anonymous": false,
      "inputs": [
        {
          "indexed": true,
          "internalType": "address",
          "name": "previousUsul",
          "type": "address"
        },
        {
          "indexed": true,
          "internalType": "address",
          "name": "newUsul",
          "type": "address"
        }
      ],
      "name": "UsulSet",
      "type": "event"
    },
    {
      "anonymous": false,
      "inputs": [
        {
          "indexed": false,
          "internalType": "uint256",
          "name": "proposalId",
          "type": "uint256"
        },
        {
          "indexed": false,
          "internalType": "uint256",
          "name": "timestamp",
          "type": "uint256"
        }
      ],
      "name": "VoteFinalized",
      "type": "event"
    },
    {
      "anonymous": false,
      "inputs": [
        {
          "indexed": false,
          "internalType": "address",
          "name": "voter",
          "type": "address"
        },
        {
          "indexed": false,
          "internalType": "uint256",
          "name": "proposalId",
          "type": "uint256"
        },
        {
          "indexed": false,
          "internalType": "uint8",
          "name": "support",
          "type": "uint8"
        },
        {
          "indexed": false,
          "internalType": "uint256",
          "name": "weight",
          "type": "uint256"
        }
      ],
      "name": "Voted",
      "type": "event"
    },
    {
      "anonymous": false,
      "inputs": [
        {
          "indexed": false,
          "internalType": "uint256",
          "name": "previousVotingPeriod",
          "type": "uint256"
        },
        {
          "indexed": false,
          "internalType": "uint256",
          "name": "newVotingPeriod",
          "type": "uint256"
        }
      ],
      "name": "VotingPeriodUpdated",
      "type": "event"
    },
    {
      "inputs": [],
      "name": "UsulModule",
      "outputs": [
        {
          "internalType": "address",
          "name": "",
          "type": "address"
        }
      ],
      "stateMutability": "view",
      "type": "function"
    },
    {
      "inputs": [],
      "name": "VOTE_TYPEHASH",
      "outputs": [
        {
          "internalType": "bytes32",
          "name": "",
          "type": "bytes32"
        }
      ],
      "stateMutability": "view",
      "type": "function"
    },
    {
      "inputs": [
        {
          "internalType": "address",
          "name": "member",
          "type": "address"
        }
      ],
      "name": "addMember",
      "outputs": [],
      "stateMutability": "nonpayable",
      "type": "function"
    },
    {
      "inputs": [
        {
          "internalType": "address",
          "name": "voter",
          "type": "address"
        },
        {
          "internalType": "uint256",
          "name": "",
          "type": "uint256"
        }
      ],
      "name": "calculateWeight",
      "outputs": [
        {
          "internalType": "uint256",
          "name": "",
          "type": "uint256"
        }
      ],
      "stateMutability": "view",
      "type": "function"
    },
    {
      "inputs": [
        {
          "internalType": "uint256",
          "name": "proposalId",
          "type": "uint256"
        }
      ],
      "name": "finalizeStrategy",
      "outputs": [],
      "stateMutability": "nonpayable",
      "type": "function"
    },
    {
      "inputs": [
        {
          "internalType": "uint256",
          "name": "proposalId",
          "type": "uint256"
        },
        {
          "internalType": "address",
          "name": "account",
          "type": "address"
        }
      ],
      "name": "hasVoted",
      "outputs": [
        {
          "internalType": "bool",
          "name": "",
          "type": "bool"
        }
      ],
      "stateMutability": "view",
      "type": "function"
    },
    {
      "inputs": [
        {
          "internalType": "uint256",
          "name": "proposalId",
          "type": "uint256"
        }
      ],
      "name": "isPassed",
      "outputs": [
        {
          "internalType": "bool",
          "name": "",
          "type": "bool"
        }
      ],
      "stateMutability": "view",
      "type": "function"
    },
    {
      "inputs": [],
      "name": "memberCount",
      "outputs": [
        {
          "internalType": "uint256",
          "name": "",
          "type": "uint256"
        }
      ],
      "stateMutability": "view",
      "type": "function"
    },
    {
      "inputs": [
        {
          "internalType": "address",
          "name": "",
          "type": "address"
        }
      ],
      "name": "members",
      "outputs": [
        {
          "internalType": "bool",
          "name": "",
          "type": "bool"
        }
      ],
      "stateMutability": "view",
      "type": "function"
    },
    {
      "inputs": [],
      "name": "name",
      "outputs": [
        {
          "internalType": "string",
          "name": "",
          "type": "string"
        }
      ],
      "stateMutability": "view",
      "type": "function"
    },
    {
      "inputs": [],
      "name": "owner",
      "outputs": [
        {
          "internalType": "address",
          "name": "",
          "type": "address"
        }
      ],
      "stateMutability": "view",
      "type": "function"
    },
    {
      "inputs": [
        {
          "internalType": "uint256",
          "name": "",
          "type": "uint256"
        }
      ],
      "name": "proposals",
      "outputs": [
        {
          "internalType": "uint256",
          "name": "yesVotes",
          "type": "uint256"
        },
        {
          "internalType": "uint256",
          "name": "noVotes",
          "type": "uint256"
        },
        {
          "internalType": "uint256",
          "name": "abstainVotes",
          "type": "uint256"
        },
        {
          "internalType": "uint256",
          "name": "deadline",
          "type": "uint256"
        },
        {
          "internalType": "uint256",
          "name": "startBlock",
          "type": "uint256"
        }
      ],
      "stateMutability": "view",
      "type": "function"
    },
    {
      "inputs": [
        {
          "internalType": "uint256",
          "name": "",
          "type": "uint256"
        }
      ],
      "name": "quorum",
      "outputs": [
        {
          "internalType": "uint256",
          "name": "",
          "type": "uint256"
        }
      ],
      "stateMutability": "view",
      "type": "function"
    },
    {
      "inputs": [],
      "name": "quorumDenominator",
      "outputs": [
        {
          "internalType": "uint256",
          "name": "",
          "type": "uint256"
        }
      ],
      "stateMutability": "pure",
      "type": "function"
    },
    {
      "inputs": [],
      "name": "quorumNumerator",
      "outputs": [
        {
          "internalType": "uint256",
          "name": "",
          "type": "uint256"
        }
      ],
      "stateMutability": "view",
      "type": "function"
    },
    {
      "inputs": [
        {
          "internalType": "bytes",
          "name": "data",
          "type": "bytes"
        }
      ],
      "name": "receiveProposal",
      "outputs": [],
      "stateMutability": "nonpayable",
      "type": "function"
    },
    {
      "inputs": [
        {
          "internalType": "address",
          "name": "member",
          "type": "address"
        }
      ],
      "name": "removeMember",
      "outputs": [],
      "stateMutability": "nonpayable",
      "type": "function"
    },
    {
      "inputs": [],
      "name": "renounceOwnership",
      "outputs": [],
      "stateMutability": "nonpayable",
      "type": "function"
    },
    {
      "inputs": [
        {
          "internalType": "bytes",
          "name": "initParams",
          "type": "bytes"
        }
      ],
      "name": "setUp",
      "outputs": [],
      "stateMutability": "nonpayable",
      "type": "function"
    },
    {
      "inputs": [
        {
          "internalType": "address",
          "name": "_Usul",
          "type": "address"
        }
      ],
      "name": "setUsul",
      "outputs": [],
      "stateMutability": "nonpayable",
      "type": "function"
    },
    {
      "inputs": [],
      "name": "timeLockPeriod",
      "outputs": [
        {
          "internalType": "uint256",
          "name": "",
          "type": "uint256"
        }
      ],
      "stateMutability": "view",
      "type": "function"
    },
    {
      "inputs": [
        {
          "internalType": "address",
          "name": "newOwner",
          "type": "address"
        }
      ],
      "name": "transferOwnership",
      "outputs": [],
      "stateMutability": "nonpayable",
      "type": "function"
    },
    {
      "inputs": [
        {
          "internalType": "uint256",
          "name": "newQuorumNumerator",
          "type": "uint256"
        }
      ],
      "name": "updateQuorumNumerator",
      "outputs": [],
      "stateMutability": "nonpayable",
      "type": "function"
    },
    {
      "inputs": [
        {
          "internalType": "uint256",
          "name": "newTimeLockPeriod",
          "type": "uint256"
        }
      ],
      "name": "updateTimeLockPeriod",
      "outputs": [],
      "stateMutability": "nonpayable",
      "type": "function"
    },
    {
      "inputs": [
        {
          "internalType": "uint256",
          "name": "newPeriod",
          "type": "uint256"
        }
      ],
      "name": "updateVotingPeriod",
      "outputs": [],
      "stateMutability": "nonpayable",
      "type": "function"
    },
    {
      "inputs": [],
      "name": "version",
      "outputs": [
        {
          "internalType": "string",
          "name": "",
          "type": "string"
        }
      ],
      "stateMutability": "view",
      "type": "function"
    },
    {
      "inputs": [
        {
          "internalType": "uint256",
          "name": "proposalId",
          "type": "uint256"
        },
        {
          "internalType": "uint8",
          "name": "support",
          "type": "uint8"
        },
        {
          "internalType": "bytes",
          "name": "",
          "type": "bytes"
        }
      ],
      "name": "vote",
      "outputs": [],
      "stateMutability": "nonpayable",
      "type": "function"
    },
    {
      "inputs": [
        {
          "internalType": "uint256",
          "name": "proposalId",
          "type": "uint256"
        },
        {
          "internalType": "uint8",
          "name": "support",
          "type": "uint8"
        },
        {
          "internalType": "bytes",
          "name": "signature",
          "type": "bytes"
        },
        {
          "internalType": "bytes",
          "name": "",
          "type": "bytes"
        }
      ],
      "name": "voteSignature",
      "outputs": [],
      "stateMutability": "nonpayable",
      "type": "function"
    },
    {
      "inputs": [],
      "name": "votingPeriod",
      "outputs": [
        {
          "internalType": "uint256",
          "name": "",
          "type": "uint256"
        }
      ],
      "stateMutability": "view",
      "type": "function"
    }
  ],
  "transactionHash": "0x31a51a4318e607cf9f4cf3d2e6a2f12a60e1602500db6576cae28e6836738ab6",
  "args": [
    "0x0000000000000000000000000000000000000001",
    "0x0000000000000000000000000000000000000001",
    2,
    1,
    1,
    "SimpleMemberVoting",
    [
      "0x0000000000000000000000000000000000000001"
    ]
  ],
  "solcInputHash": "d0b4647745462b72c7949d559e034e2c",
  "bytecode": "0x60806040523480156200001157600080fd5b506040516200511938038062005119833981810160405281019062000037919062000d90565b600087878787878787604051602001620000589796959493929190620010a7565b60405160208183030381529060405290506200007a816200008860201b60201c565b5050505050505050620017e4565b600060019054906101000a900460ff16620000b25760008054906101000a900460ff1615620000c3565b620000c26200037b60201b60201c565b5b62000105576040517f08c379a0000000000000000000000000000000000000000000000000000000008152600401620000fc9062001198565b60405180910390fd5b60008060019054906101000a900460ff16159050801562000156576001600060016101000a81548160ff02191690831515021790555060016000806101000a81548160ff0219169083151502179055505b60008060008060008060008880602001905181019062000177919062000c9f565b965096509650965096509650965060018511620001cb576040517f08c379a0000000000000000000000000000000000000000000000000000000008152600401620001c29062001132565b60405180910390fd5b620001db6200039960201b60201c565b60005b81518110156200022c576200021682828151811062000202576200020162001531565b5b6020026020010151620003fd60201b60201c565b8080620002239062001485565b915050620001de565b506200024e8262000242620005d060201b60201c565b6200060d60201b60201c565b6200025f846200068b60201b60201c565b62000270876200072e60201b60201c565b6001856200027f919062001330565b609a8190555085606560006101000a81548173ffffffffffffffffffffffffffffffffffffffff021916908373ffffffffffffffffffffffffffffffffffffffff160217905550600183620002d5919062001330565b609b8190555081609c9080519060200190620002f392919062000a7e565b508673ffffffffffffffffffffffffffffffffffffffff168673ffffffffffffffffffffffffffffffffffffffff167f61586574b8b0edca97136ad4cb664eec4742d53de53403d531506632e6342a3960405160405180910390a3505050505050508015620003775760008060016101000a81548160ff0219169083151502179055505b5050565b600062000393306200084460201b620017461760201c565b15905090565b600060019054906101000a900460ff16620003eb576040517f08c379a0000000000000000000000000000000000000000000000000000000008152600401620003e290620011fe565b60405180910390fd5b620003fb6200086760201b60201c565b565b6200040d620008db60201b60201c565b73ffffffffffffffffffffffffffffffffffffffff1662000433620008e360201b60201c565b73ffffffffffffffffffffffffffffffffffffffff16146200048c576040517f08c379a00000000000000000000000000000000000000000000000000000000081526004016200048390620011ba565b60405180910390fd5b60001515609f60008373ffffffffffffffffffffffffffffffffffffffff1673ffffffffffffffffffffffffffffffffffffffff16815260200190815260200160002060009054906101000a900460ff1615151462000522576040517f08c379a0000000000000000000000000000000000000000000000000000000008152600401620005199062001176565b60405180910390fd5b6001609f60008373ffffffffffffffffffffffffffffffffffffffff1673ffffffffffffffffffffffffffffffffffffffff16815260200190815260200160002060006101000a81548160ff021916908315150217905550609e60008154809291906200058f9062001485565b91905055507fb251eb052afc73ffd02ffe85ad79990a8b3fed60d76dbc2fa2fdd7123dffd91481604051620005c591906200108a565b60405180910390a150565b60606040518060400160405280600181526020017f3100000000000000000000000000000000000000000000000000000000000000815250905090565b600060019054906101000a900460ff166200065f576040517f08c379a00000000000000000000000000000000000000000000000000000000081526004016200065690620011fe565b60405180910390fd5b600082805190602001209050600082805190602001209050816066819055508060678190555050505050565b6200069b620008db60201b60201c565b73ffffffffffffffffffffffffffffffffffffffff16620006c1620008e360201b60201c565b73ffffffffffffffffffffffffffffffffffffffff16146200071a576040517f08c379a00000000000000000000000000000000000000000000000000000000081526004016200071190620011ba565b60405180910390fd5b6200072b816200090d60201b60201c565b50565b6200073e620008db60201b60201c565b73ffffffffffffffffffffffffffffffffffffffff1662000764620008e360201b60201c565b73ffffffffffffffffffffffffffffffffffffffff1614620007bd576040517f08c379a0000000000000000000000000000000000000000000000000000000008152600401620007b490620011ba565b60405180910390fd5b600073ffffffffffffffffffffffffffffffffffffffff168173ffffffffffffffffffffffffffffffffffffffff16141562000830576040517f08c379a0000000000000000000000000000000000000000000000000000000008152600401620008279062001154565b60405180910390fd5b6200084181620009af60201b60201c565b50565b6000808273ffffffffffffffffffffffffffffffffffffffff163b119050919050565b600060019054906101000a900460ff16620008b9576040517f08c379a0000000000000000000000000000000000000000000000000000000008152600401620008b090620011fe565b60405180910390fd5b620008d9620008cd620008db60201b60201c565b620009af60201b60201c565b565b600033905090565b6000603360009054906101000a900473ffffffffffffffffffffffffffffffffffffffff16905090565b6200091d62000a7560201b60201c565b81111562000962576040517f08c379a00000000000000000000000000000000000000000000000000000000081526004016200095990620011dc565b60405180910390fd5b600060a05490508160a0819055507f0553476bf02ef2726e8ce5ced78d63e26e602e4a2257b1f559418e24b46339978183604051620009a392919062001220565b60405180910390a15050565b6000603360009054906101000a900473ffffffffffffffffffffffffffffffffffffffff16905081603360006101000a81548173ffffffffffffffffffffffffffffffffffffffff021916908373ffffffffffffffffffffffffffffffffffffffff1602179055508173ffffffffffffffffffffffffffffffffffffffff168173ffffffffffffffffffffffffffffffffffffffff167f8be0079c531659141344cd1fd0a4f28419497f9722a3daafe3b4186f6b6457e060405160405180910390a35050565b60006064905090565b82805462000a8c9062001419565b90600052602060002090601f01602090048101928262000ab0576000855562000afc565b82601f1062000acb57805160ff191683800117855562000afc565b8280016001018555821562000afc579182015b8281111562000afb57825182559160200191906001019062000ade565b5b50905062000b0b919062000b0f565b5090565b5b8082111562000b2a57600081600090555060010162000b10565b5090565b600062000b4562000b3f8462001276565b6200124d565b9050808382526020820190508285602086028201111562000b6b5762000b6a62001594565b5b60005b8581101562000b9f578162000b84888262000bf4565b84526020840193506020830192505060018101905062000b6e565b5050509392505050565b600062000bc062000bba84620012a5565b6200124d565b90508281526020810184848401111562000bdf5762000bde62001599565b5b62000bec848285620013e3565b509392505050565b60008151905062000c058162001796565b92915050565b60008151905062000c1c81620017b0565b92915050565b600082601f83011262000c3a5762000c396200158f565b5b815162000c4c84826020860162000b2e565b91505092915050565b600082601f83011262000c6d5762000c6c6200158f565b5b815162000c7f84826020860162000ba9565b91505092915050565b60008151905062000c9981620017ca565b92915050565b600080600080600080600060e0888a03121562000cc15762000cc0620015a3565b5b600062000cd18a828b0162000c0b565b975050602062000ce48a828b0162000c0b565b965050604062000cf78a828b0162000c88565b955050606062000d0a8a828b0162000c88565b945050608062000d1d8a828b0162000c88565b93505060a088015167ffffffffffffffff81111562000d415762000d406200159e565b5b62000d4f8a828b0162000c55565b92505060c088015167ffffffffffffffff81111562000d735762000d726200159e565b5b62000d818a828b0162000c22565b91505092959891949750929550565b600080600080600080600060e0888a03121562000db25762000db1620015a3565b5b600062000dc28a828b0162000bf4565b975050602062000dd58a828b0162000bf4565b965050604062000de88a828b0162000c88565b955050606062000dfb8a828b0162000c88565b945050608062000e0e8a828b0162000c88565b93505060a088015167ffffffffffffffff81111562000e325762000e316200159e565b5b62000e408a828b0162000c55565b92505060c088015167ffffffffffffffff81111562000e645762000e636200159e565b5b62000e728a828b0162000c22565b91505092959891949750929550565b600062000e8f838362000e9b565b60208301905092915050565b62000ea68162001391565b82525050565b62000eb78162001391565b82525050565b600062000eca82620012eb565b62000ed681856200130e565b935062000ee383620012db565b8060005b8381101562000f1a57815162000efe888262000e81565b975062000f0b8362001301565b92505060018101905062000ee7565b5085935050505092915050565b600062000f3482620012f6565b62000f4081856200131f565b935062000f52818560208601620013e3565b62000f5d81620015a8565b840191505092915050565b600062000f776023836200131f565b915062000f8482620015b9565b604082019050919050565b600062000f9e6026836200131f565b915062000fab8262001608565b604082019050919050565b600062000fc5601c836200131f565b915062000fd28262001657565b602082019050919050565b600062000fec602e836200131f565b915062000ff98262001680565b604082019050919050565b6000620010136020836200131f565b91506200102082620016cf565b602082019050919050565b60006200103a6026836200131f565b91506200104782620016f8565b604082019050919050565b600062001061602b836200131f565b91506200106e8262001747565b604082019050919050565b6200108481620013d9565b82525050565b6000602082019050620010a1600083018462000eac565b92915050565b600060e082019050620010be600083018a62000eac565b620010cd602083018962000eac565b620010dc604083018862001079565b620010eb606083018762001079565b620010fa608083018662001079565b81810360a08301526200110e818562000f27565b905081810360c083015262001124818462000ebd565b905098975050505050505050565b600060208201905081810360008301526200114d8162000f68565b9050919050565b600060208201905081810360008301526200116f8162000f8f565b9050919050565b60006020820190508181036000830152620011918162000fb6565b9050919050565b60006020820190508181036000830152620011b38162000fdd565b9050919050565b60006020820190508181036000830152620011d58162001004565b9050919050565b60006020820190508181036000830152620011f7816200102b565b9050919050565b60006020820190508181036000830152620012198162001052565b9050919050565b600060408201905062001237600083018562001079565b62001246602083018462001079565b9392505050565b6000620012596200126c565b90506200126782826200144f565b919050565b6000604051905090565b600067ffffffffffffffff82111562001294576200129362001560565b5b602082029050602081019050919050565b600067ffffffffffffffff821115620012c357620012c262001560565b5b620012ce82620015a8565b9050602081019050919050565b6000819050602082019050919050565b600081519050919050565b600081519050919050565b6000602082019050919050565b600082825260208201905092915050565b600082825260208201905092915050565b60006200133d82620013d9565b91506200134a83620013d9565b9250817fffffffffffffffffffffffffffffffffffffffffffffffffffffffffffffffff0483118215151615620013865762001385620014d3565b5b828202905092915050565b60006200139e82620013b9565b9050919050565b6000620013b282620013b9565b9050919050565b600073ffffffffffffffffffffffffffffffffffffffff82169050919050565b6000819050919050565b60005b8381101562001403578082015181840152602081019050620013e6565b8381111562001413576000848401525b50505050565b600060028204905060018216806200143257607f821691505b6020821081141562001449576200144862001502565b5b50919050565b6200145a82620015a8565b810181811067ffffffffffffffff821117156200147c576200147b62001560565b5b80604052505050565b60006200149282620013d9565b91507fffffffffffffffffffffffffffffffffffffffffffffffffffffffffffffffff821415620014c857620014c7620014d3565b5b600182019050919050565b7f4e487b7100000000000000000000000000000000000000000000000000000000600052601160045260246000fd5b7f4e487b7100000000000000000000000000000000000000000000000000000000600052602260045260246000fd5b7f4e487b7100000000000000000000000000000000000000000000000000000000600052603260045260246000fd5b7f4e487b7100000000000000000000000000000000000000000000000000000000600052604160045260246000fd5b600080fd5b600080fd5b600080fd5b600080fd5b600080fd5b6000601f19601f8301169050919050565b7f766f74696e67506572696f64206d75737420626520677265617465722074686160008201527f6e20310000000000000000000000000000000000000000000000000000000000602082015250565b7f4f776e61626c653a206e6577206f776e657220697320746865207a65726f206160008201527f6464726573730000000000000000000000000000000000000000000000000000602082015250565b7f6d656d62657220697320616c7265616479207265676973746572656400000000600082015250565b7f496e697469616c697a61626c653a20636f6e747261637420697320616c72656160008201527f647920696e697469616c697a6564000000000000000000000000000000000000602082015250565b7f4f776e61626c653a2063616c6c6572206973206e6f7420746865206f776e6572600082015250565b7f71756f72756d4e756d657261746f72206f7665722071756f72756d44656e6f6d60008201527f696e61746f720000000000000000000000000000000000000000000000000000602082015250565b7f496e697469616c697a61626c653a20636f6e7472616374206973206e6f74206960008201527f6e697469616c697a696e67000000000000000000000000000000000000000000602082015250565b620017a18162001391565b8114620017ad57600080fd5b50565b620017bb81620013a5565b8114620017c757600080fd5b50565b620017d581620013d9565b8114620017e157600080fd5b50565b61392580620017f46000396000f3fe608060405234801561001057600080fd5b50600436106101cf5760003560e01c806378446bc111610104578063a7713a70116100a2578063d69be91c11610071578063d69be91c146104e6578063ef00ef4314610516578063f2fde38b14610532578063f8ce560a1461054e576101cf565b8063a7713a7014610474578063a8a829c114610492578063bf1b5efd146104ae578063ca6d56dc146104ca576101cf565b806386522973116100de57806386522973146103fe5780638da5cb5b1461041c57806397c3d3341461043a578063a4f9edbf14610458576101cf565b806378446bc1146103a857806379bfb089146103c65780637a3ff4d2146103e2576101cf565b80631f2c562e11610171578063494031831161014b578063494031831461033257806354fd4d5014610362578063715018a614610380578063747691df1461038a576101cf565b80631f2c562e146102ca578063224f3263146102e65780634385963214610302576101cf565b806306fdde03116101ad57806306fdde031461024257806308ae4b0c146102605780630b1ca49a1461029057806311aee380146102ac576101cf565b8063013cf08b146101d457806302a251a31461020857806306f3f9e614610226575b600080fd5b6101ee60048036038101906101e9919061257d565b61057e565b6040516101ff959493929190612f21565b60405180910390f35b6102106105b4565b60405161021d9190612edd565b60405180910390f35b610240600480360381019061023b919061257d565b6105ba565b005b61024a610642565b6040516102579190612c3b565b60405180910390f35b61027a600480360381019061027591906123ed565b6106d0565b6040516102879190612b36565b60405180910390f35b6102aa60048036038101906102a591906123ed565b6106f0565b005b6102b46108a9565b6040516102c19190612edd565b60405180910390f35b6102e460048036038101906102df9190612686565b6108af565b005b61030060048036038101906102fb9190612534565b61092b565b005b61031c600480360381019061031791906125d7565b610a53565b6040516103299190612b36565b60405180910390f35b61034c6004803603810190610347919061257d565b610abe565b6040516103599190612b36565b60405180910390f35b61036a610c11565b6040516103779190612c3b565b60405180910390f35b610388610c4e565b005b610392610cd6565b60405161039f9190612ad6565b60405180910390f35b6103b0610cfc565b6040516103bd9190612edd565b60405180910390f35b6103e060048036038101906103db919061257d565b610d02565b005b6103fc60048036038101906103f7919061257d565b610dde565b005b610406610ea5565b6040516104139190612b51565b60405180910390f35b610424610ec9565b6040516104319190612ad6565b60405180910390f35b610442610ef3565b60405161044f9190612edd565b60405180910390f35b610472600480360381019061046d9190612534565b610efc565b005b61047c61119e565b6040516104899190612edd565b60405180910390f35b6104ac60048036038101906104a791906123ed565b6111a8565b005b6104c860048036038101906104c39190612617565b6112ea565b005b6104e460048036038101906104df91906123ed565b611304565b005b61050060048036038101906104fb91906124f4565b6114bd565b60405161050d9190612edd565b60405180910390f35b610530600480360381019061052b919061257d565b611557565b005b61054c600480360381019061054791906123ed565b61161e565b005b6105686004803603810190610563919061257d565b611716565b6040516105759190612edd565b60405180910390f35b609d6020528060005260406000206000915090508060000154908060010154908060020154908060030154908060040154905085565b609a5481565b6105c2611769565b73ffffffffffffffffffffffffffffffffffffffff166105e0610ec9565b73ffffffffffffffffffffffffffffffffffffffff1614610636576040517f08c379a000000000000000000000000000000000000000000000000000000000815260040161062d90612dfd565b60405180910390fd5b61063f81611771565b50565b609c805461064f9061320c565b80601f016020809104026020016040519081016040528092919081815260200182805461067b9061320c565b80156106c85780601f1061069d576101008083540402835291602001916106c8565b820191906000526020600020905b8154815290600101906020018083116106ab57829003601f168201915b505050505081565b609f6020528060005260406000206000915054906101000a900460ff1681565b6106f8611769565b73ffffffffffffffffffffffffffffffffffffffff16610716610ec9565b73ffffffffffffffffffffffffffffffffffffffff161461076c576040517f08c379a000000000000000000000000000000000000000000000000000000000815260040161076390612dfd565b60405180910390fd5b60011515609f60008373ffffffffffffffffffffffffffffffffffffffff1673ffffffffffffffffffffffffffffffffffffffff16815260200190815260200160002060009054906101000a900460ff161515146107ff576040517f08c379a00000000000000000000000000000000000000000000000000000000081526004016107f690612e7d565b60405180910390fd5b6000609f60008373ffffffffffffffffffffffffffffffffffffffff1673ffffffffffffffffffffffffffffffffffffffff16815260200190815260200160002060006101000a81548160ff021916908315150217905550609e600081548092919061086a906131e2565b91905055507f6e76fb4c77256006d9c38ec7d82b45a8c8f3c27b1d6766fffc42dfb8de6844928160405161089e9190612ad6565b60405180910390a150565b609e5481565b600061090d6109077fb780761e36898d7ec1cc0fb66fdd6a8a42e635ee643709d6b20652c68a3b29f587876040516020016108ec93929190612bbf565b60405160208183030381529060405280519060200120611806565b84611820565b905061092485828661091f858a6114bd565b611847565b5050505050565b606560009054906101000a900473ffffffffffffffffffffffffffffffffffffffff1673ffffffffffffffffffffffffffffffffffffffff163373ffffffffffffffffffffffffffffffffffffffff16146109bb576040517f08c379a00000000000000000000000000000000000000000000000000000000081526004016109b290612ddd565b60405180910390fd5b6000818060200190518101906109d191906125aa565b905042609a546109e1919061304e565b609d60008381526020019081526020016000206003018190555043609d6000838152602001908152602001600020600401819055507f3aeda78f6230a590817748b94b63d690cec4d1a15d494dfc7006e0a39e77f81a8142604051610a47929190612ef8565b60405180910390a15050565b6000609d600084815260200190815260200160002060050160008373ffffffffffffffffffffffffffffffffffffffff1673ffffffffffffffffffffffffffffffffffffffff16815260200190815260200160002060009054906101000a900460ff16905092915050565b6000609d600083815260200190815260200160002060010154609d60008481526020019081526020016000206000015411610b2e576040517f08c379a0000000000000000000000000000000000000000000000000000000008152600401610b2590612c9d565b60405180910390fd5b610b3743611716565b609d600084815260200190815260200160002060020154609d600085815260200190815260200160002060000154610b6f919061304e565b1015610bb0576040517f08c379a0000000000000000000000000000000000000000000000000000000008152600401610ba790612cfd565b60405180910390fd5b42609d60008481526020019081526020016000206003015410610c08576040517f08c379a0000000000000000000000000000000000000000000000000000000008152600401610bff90612e1d565b60405180910390fd5b60019050919050565b60606040518060400160405280600181526020017f3100000000000000000000000000000000000000000000000000000000000000815250905090565b610c56611769565b73ffffffffffffffffffffffffffffffffffffffff16610c74610ec9565b73ffffffffffffffffffffffffffffffffffffffff1614610cca576040517f08c379a0000000000000000000000000000000000000000000000000000000008152600401610cc190612dfd565b60405180910390fd5b610cd46000611ace565b565b606560009054906101000a900473ffffffffffffffffffffffffffffffffffffffff1681565b609b5481565b610d0b81610abe565b15610da257606560009054906101000a900473ffffffffffffffffffffffffffffffffffffffff1673ffffffffffffffffffffffffffffffffffffffff16634fd6134882609b546040518363ffffffff1660e01b8152600401610d6f929190612ef8565b600060405180830381600087803b158015610d8957600080fd5b505af1158015610d9d573d6000803e3d6000fd5b505050505b7f54ffcee03e8b80c05e4d1c55e3dc60602d9082a899e50337b680c9c4c4d80a3a8142604051610dd3929190612ef8565b60405180910390a150565b610de6611769565b73ffffffffffffffffffffffffffffffffffffffff16610e04610ec9565b73ffffffffffffffffffffffffffffffffffffffff1614610e5a576040517f08c379a0000000000000000000000000000000000000000000000000000000008152600401610e5190612dfd565b60405180910390fd5b6000609b54905081609b819055507f2a72574d775756e698a258fc07c826b7185131fff8a96b868feacab45fb234328183604051610e99929190612ef8565b60405180910390a15050565b7fb780761e36898d7ec1cc0fb66fdd6a8a42e635ee643709d6b20652c68a3b29f581565b6000603360009054906101000a900473ffffffffffffffffffffffffffffffffffffffff16905090565b60006064905090565b600060019054906101000a900460ff16610f245760008054906101000a900460ff1615610f2d565b610f2c611b94565b5b610f6c576040517f08c379a0000000000000000000000000000000000000000000000000000000008152600401610f6390612d9d565b60405180910390fd5b60008060019054906101000a900460ff161590508015610fbc576001600060016101000a81548160ff02191690831515021790555060016000806101000a81548160ff0219169083151502179055505b600080600080600080600088806020019051810190610fdb919061241a565b96509650965096509650965096506001851161102c576040517f08c379a000000000000000000000000000000000000000000000000000000000815260040161102390612c7d565b60405180910390fd5b611034611ba5565b60005b8151811015611076576110638282815181106110565761105561337e565b5b6020026020010151611304565b808061106e9061326f565b915050611037565b5061108882611083610c11565b611bfe565b611091846105ba565b61109a8761161e565b6001856110a791906130d5565b609a8190555085606560006101000a81548173ffffffffffffffffffffffffffffffffffffffff021916908373ffffffffffffffffffffffffffffffffffffffff1602179055506001836110fb91906130d5565b609b8190555081609c908051906020019061111792919061214e565b508673ffffffffffffffffffffffffffffffffffffffff168673ffffffffffffffffffffffffffffffffffffffff167f61586574b8b0edca97136ad4cb664eec4742d53de53403d531506632e6342a3960405160405180910390a350505050505050801561119a5760008060016101000a81548160ff0219169083151502179055505b5050565b600060a054905090565b6111b0611769565b73ffffffffffffffffffffffffffffffffffffffff166111ce610ec9565b73ffffffffffffffffffffffffffffffffffffffff1614611224576040517f08c379a000000000000000000000000000000000000000000000000000000000815260040161121b90612dfd565b60405180910390fd5b6000606560009054906101000a900473ffffffffffffffffffffffffffffffffffffffff16905081606560006101000a81548173ffffffffffffffffffffffffffffffffffffffff021916908373ffffffffffffffffffffffffffffffffffffffff1602179055508173ffffffffffffffffffffffffffffffffffffffff168173ffffffffffffffffffffffffffffffffffffffff167f20c8544544aefaefdf339d996d855f2d4040cf93548344aa7dcb03b19e160cd160405160405180910390a35050565b6112ff8333846112fa33886114bd565b611847565b505050565b61130c611769565b73ffffffffffffffffffffffffffffffffffffffff1661132a610ec9565b73ffffffffffffffffffffffffffffffffffffffff1614611380576040517f08c379a000000000000000000000000000000000000000000000000000000000815260040161137790612dfd565b60405180910390fd5b60001515609f60008373ffffffffffffffffffffffffffffffffffffffff1673ffffffffffffffffffffffffffffffffffffffff16815260200190815260200160002060009054906101000a900460ff16151514611413576040517f08c379a000000000000000000000000000000000000000000000000000000000815260040161140a90612d3d565b60405180910390fd5b6001609f60008373ffffffffffffffffffffffffffffffffffffffff1673ffffffffffffffffffffffffffffffffffffffff16815260200190815260200160002060006101000a81548160ff021916908315150217905550609e600081548092919061147e9061326f565b91905055507fb251eb052afc73ffd02ffe85ad79990a8b3fed60d76dbc2fa2fdd7123dffd914816040516114b29190612ad6565b60405180910390a150565b600082609f60008273ffffffffffffffffffffffffffffffffffffffff1673ffffffffffffffffffffffffffffffffffffffff16815260200190815260200160002060009054906101000a900460ff1661154c576040517f08c379a000000000000000000000000000000000000000000000000000000000815260040161154390612e5d565b60405180910390fd5b600191505092915050565b61155f611769565b73ffffffffffffffffffffffffffffffffffffffff1661157d610ec9565b73ffffffffffffffffffffffffffffffffffffffff16146115d3576040517f08c379a00000000000000000000000000000000000000000000000000000000081526004016115ca90612dfd565b60405180910390fd5b6000609a54905081609a819055507fffc708f072ca56e3d45ef0cb288b96cb9378f5f63e1646868bfbc9c38f4263a18183604051611612929190612ef8565b60405180910390a15050565b611626611769565b73ffffffffffffffffffffffffffffffffffffffff16611644610ec9565b73ffffffffffffffffffffffffffffffffffffffff161461169a576040517f08c379a000000000000000000000000000000000000000000000000000000000815260040161169190612dfd565b60405180910390fd5b600073ffffffffffffffffffffffffffffffffffffffff168173ffffffffffffffffffffffffffffffffffffffff16141561170a576040517f08c379a000000000000000000000000000000000000000000000000000000000815260040161170190612d1d565b60405180910390fd5b61171381611ace565b50565b6000611720610ef3565b61172861119e565b609e5461173591906130d5565b61173f91906130a4565b9050919050565b6000808273ffffffffffffffffffffffffffffffffffffffff163b119050919050565b600033905090565b611779610ef3565b8111156117bb576040517f08c379a00000000000000000000000000000000000000000000000000000000081526004016117b290612e3d565b60405180910390fd5b600060a05490508160a0819055507f0553476bf02ef2726e8ce5ced78d63e26e602e4a2257b1f559418e24b463399781836040516117fa929190612ef8565b60405180910390a15050565b6000611819611813611c79565b83611cb9565b9050919050565b600080600061182f8585611cec565b9150915061183c81611d6f565b819250505092915050565b609d6000858152602001908152602001600020600301544211156118a0576040517f08c379a000000000000000000000000000000000000000000000000000000000815260040161189790612cdd565b60405180910390fd5b6118aa8484610a53565b156118ea576040517f08c379a00000000000000000000000000000000000000000000000000000000081526004016118e190612d7d565b60405180910390fd5b6001609d600086815260200190815260200160002060050160008573ffffffffffffffffffffffffffffffffffffffff1673ffffffffffffffffffffffffffffffffffffffff16815260200190815260200160002060006101000a81548160ff0219169083151502179055506000600281111561196a57611969613320565b5b60ff168260ff1614156119a95780609d6000868152602001908152602001600020600101600082825461199d919061304e565b92505081905550611a8b565b600160028111156119bd576119bc613320565b5b60ff168260ff1614156119fc5780609d600086815260200190815260200160002060000160008282546119f0919061304e565b92505081905550611a8a565b600280811115611a0f57611a0e613320565b5b60ff168260ff161415611a4e5780609d60008681526020019081526020016000206002016000828254611a42919061304e565b92505081905550611a89565b6040517f08c379a0000000000000000000000000000000000000000000000000000000008152600401611a8090612ebd565b60405180910390fd5b5b5b7f27eb20ecadc80d52f641a540b295d208f7c3735545d321b08e505116c601319983858484604051611ac09493929190612af1565b60405180910390a150505050565b6000603360009054906101000a900473ffffffffffffffffffffffffffffffffffffffff16905081603360006101000a81548173ffffffffffffffffffffffffffffffffffffffff021916908373ffffffffffffffffffffffffffffffffffffffff1602179055508173ffffffffffffffffffffffffffffffffffffffff168173ffffffffffffffffffffffffffffffffffffffff167f8be0079c531659141344cd1fd0a4f28419497f9722a3daafe3b4186f6b6457e060405160405180910390a35050565b6000611b9f30611746565b15905090565b600060019054906101000a900460ff16611bf4576040517f08c379a0000000000000000000000000000000000000000000000000000000008152600401611beb90612e9d565b60405180910390fd5b611bfc611f44565b565b600060019054906101000a900460ff16611c4d576040517f08c379a0000000000000000000000000000000000000000000000000000000008152600401611c4490612e9d565b60405180910390fd5b600082805190602001209050600082805190602001209050816066819055508060678190555050505050565b6000611cb47f8b73c3c69bb8fe3d512ecc4cf759cc79239f7b179b0ffacaa9a75d522b39400f611ca7611fa5565b611caf611faf565b611fb9565b905090565b60008282604051602001611cce929190612a9f565b60405160208183030381529060405280519060200120905092915050565b600080604183511415611d2e5760008060006020860151925060408601519150606086015160001a9050611d2287828585611ff3565b94509450505050611d68565b604083511415611d5f576000806020850151915060408501519050611d54868383612100565b935093505050611d68565b60006002915091505b9250929050565b60006004811115611d8357611d82613320565b5b816004811115611d9657611d95613320565b5b1415611da157611f41565b60016004811115611db557611db4613320565b5b816004811115611dc857611dc7613320565b5b1415611e09576040517f08c379a0000000000000000000000000000000000000000000000000000000008152600401611e0090612c5d565b60405180910390fd5b60026004811115611e1d57611e1c613320565b5b816004811115611e3057611e2f613320565b5b1415611e71576040517f08c379a0000000000000000000000000000000000000000000000000000000008152600401611e6890612cbd565b60405180910390fd5b60036004811115611e8557611e84613320565b5b816004811115611e9857611e97613320565b5b1415611ed9576040517f08c379a0000000000000000000000000000000000000000000000000000000008152600401611ed090612d5d565b60405180910390fd5b600480811115611eec57611eeb613320565b5b816004811115611eff57611efe613320565b5b1415611f40576040517f08c379a0000000000000000000000000000000000000000000000000000000008152600401611f3790612dbd565b60405180910390fd5b5b50565b600060019054906101000a900460ff16611f93576040517f08c379a0000000000000000000000000000000000000000000000000000000008152600401611f8a90612e9d565b60405180910390fd5b611fa3611f9e611769565b611ace565b565b6000606654905090565b6000606754905090565b60008383834630604051602001611fd4959493929190612b6c565b6040516020818303038152906040528051906020012090509392505050565b6000807f7fffffffffffffffffffffffffffffff5d576e7357a4501ddfe92f46681b20a08360001c111561202e5760006003915091506120f7565b601b8560ff16141580156120465750601c8560ff1614155b156120585760006004915091506120f7565b60006001878787876040516000815260200160405260405161207d9493929190612bf6565b6020604051602081039080840390855afa15801561209f573d6000803e3d6000fd5b505050602060405103519050600073ffffffffffffffffffffffffffffffffffffffff168173ffffffffffffffffffffffffffffffffffffffff1614156120ee576000600192509250506120f7565b80600092509250505b94509492505050565b6000806000807f7fffffffffffffffffffffffffffffffffffffffffffffffffffffffffffffff85169150601b8560ff1c01905061214087828885611ff3565b935093505050935093915050565b82805461215a9061320c565b90600052602060002090601f01602090048101928261217c57600085556121c3565b82601f1061219557805160ff19168380011785556121c3565b828001600101855582156121c3579182015b828111156121c25782518255916020019190600101906121a7565b5b5090506121d091906121d4565b5090565b5b808211156121ed5760008160009055506001016121d5565b5090565b60006122046121ff84612f99565b612f74565b90508083825260208201905082856020860282011115612227576122266133e1565b5b60005b85811015612257578161223d88826122fa565b84526020840193506020830192505060018101905061222a565b5050509392505050565b600061227461226f84612fc5565b612f74565b9050828152602081018484840111156122905761228f6133e6565b5b61229b8482856131a0565b509392505050565b60006122b66122b184612ff6565b612f74565b9050828152602081018484840111156122d2576122d16133e6565b5b6122dd8482856131af565b509392505050565b6000813590506122f481613893565b92915050565b60008151905061230981613893565b92915050565b60008151905061231e816138aa565b92915050565b600082601f830112612339576123386133dc565b5b81516123498482602086016121f1565b91505092915050565b600082601f830112612367576123666133dc565b5b8135612377848260208601612261565b91505092915050565b600082601f830112612395576123946133dc565b5b81516123a58482602086016122a3565b91505092915050565b6000813590506123bd816138c1565b92915050565b6000815190506123d2816138c1565b92915050565b6000813590506123e7816138d8565b92915050565b600060208284031215612403576124026133f0565b5b6000612411848285016122e5565b91505092915050565b600080600080600080600060e0888a031215612439576124386133f0565b5b60006124478a828b0161230f565b97505060206124588a828b0161230f565b96505060406124698a828b016123c3565b955050606061247a8a828b016123c3565b945050608061248b8a828b016123c3565b93505060a088015167ffffffffffffffff8111156124ac576124ab6133eb565b5b6124b88a828b01612380565b92505060c088015167ffffffffffffffff8111156124d9576124d86133eb565b5b6124e58a828b01612324565b91505092959891949750929550565b6000806040838503121561250b5761250a6133f0565b5b6000612519858286016122e5565b925050602061252a858286016123ae565b9150509250929050565b60006020828403121561254a576125496133f0565b5b600082013567ffffffffffffffff811115612568576125676133eb565b5b61257484828501612352565b91505092915050565b600060208284031215612593576125926133f0565b5b60006125a1848285016123ae565b91505092915050565b6000602082840312156125c0576125bf6133f0565b5b60006125ce848285016123c3565b91505092915050565b600080604083850312156125ee576125ed6133f0565b5b60006125fc858286016123ae565b925050602061260d858286016122e5565b9150509250929050565b6000806000606084860312156126305761262f6133f0565b5b600061263e868287016123ae565b935050602061264f868287016123d8565b925050604084013567ffffffffffffffff8111156126705761266f6133eb565b5b61267c86828701612352565b9150509250925092565b600080600080608085870312156126a05761269f6133f0565b5b60006126ae878288016123ae565b94505060206126bf878288016123d8565b935050604085013567ffffffffffffffff8111156126e0576126df6133eb565b5b6126ec87828801612352565b925050606085013567ffffffffffffffff81111561270d5761270c6133eb565b5b61271987828801612352565b91505092959194509250565b61272e8161312f565b82525050565b61273d81613153565b82525050565b61274c8161315f565b82525050565b61276361275e8261315f565b6132b8565b82525050565b600061277482613027565b61277e8185613032565b935061278e8185602086016131af565b612797816133f5565b840191505092915050565b60006127af601883613032565b91506127ba82613406565b602082019050919050565b60006127d2602383613032565b91506127dd8261342f565b604082019050919050565b60006127f5601d83613032565b91506128008261347e565b602082019050919050565b6000612818601f83613032565b9150612823826134a7565b602082019050919050565b600061283b601883613032565b9150612846826134d0565b602082019050919050565b600061285e602e83613032565b9150612869826134f9565b604082019050919050565b6000612881602683613032565b915061288c82613548565b604082019050919050565b60006128a4600283613043565b91506128af82613597565b600282019050919050565b60006128c7601c83613032565b91506128d2826135c0565b602082019050919050565b60006128ea602283613032565b91506128f5826135e9565b604082019050919050565b600061290d601783613032565b915061291882613638565b602082019050919050565b6000612930602e83613032565b915061293b82613661565b604082019050919050565b6000612953602283613032565b915061295e826136b0565b604082019050919050565b6000612976601a83613032565b9150612981826136ff565b602082019050919050565b6000612999602083613032565b91506129a482613728565b602082019050919050565b60006129bc602083613032565b91506129c782613751565b602082019050919050565b60006129df602683613032565b91506129ea8261377a565b604082019050919050565b6000612a02601583613032565b9150612a0d826137c9565b602082019050919050565b6000612a25601883613032565b9150612a30826137f2565b602082019050919050565b6000612a48602b83613032565b9150612a538261381b565b604082019050919050565b6000612a6b601f83613032565b9150612a768261386a565b602082019050919050565b612a8a81613189565b82525050565b612a9981613193565b82525050565b6000612aaa82612897565b9150612ab68285612752565b602082019150612ac68284612752565b6020820191508190509392505050565b6000602082019050612aeb6000830184612725565b92915050565b6000608082019050612b066000830187612725565b612b136020830186612a81565b612b206040830185612a90565b612b2d6060830184612a81565b95945050505050565b6000602082019050612b4b6000830184612734565b92915050565b6000602082019050612b666000830184612743565b92915050565b600060a082019050612b816000830188612743565b612b8e6020830187612743565b612b9b6040830186612743565b612ba86060830185612a81565b612bb56080830184612725565b9695505050505050565b6000606082019050612bd46000830186612743565b612be16020830185612a81565b612bee6040830184612a90565b949350505050565b6000608082019050612c0b6000830187612743565b612c186020830186612a90565b612c256040830185612743565b612c326060830184612743565b95945050505050565b60006020820190508181036000830152612c558184612769565b905092915050565b60006020820190508181036000830152612c76816127a2565b9050919050565b60006020820190508181036000830152612c96816127c5565b9050919050565b60006020820190508181036000830152612cb6816127e8565b9050919050565b60006020820190508181036000830152612cd68161280b565b9050919050565b60006020820190508181036000830152612cf68161282e565b9050919050565b60006020820190508181036000830152612d1681612851565b9050919050565b60006020820190508181036000830152612d3681612874565b9050919050565b60006020820190508181036000830152612d56816128ba565b9050919050565b60006020820190508181036000830152612d76816128dd565b9050919050565b60006020820190508181036000830152612d9681612900565b9050919050565b60006020820190508181036000830152612db681612923565b9050919050565b60006020820190508181036000830152612dd681612946565b9050919050565b60006020820190508181036000830152612df681612969565b9050919050565b60006020820190508181036000830152612e168161298c565b9050919050565b60006020820190508181036000830152612e36816129af565b9050919050565b60006020820190508181036000830152612e56816129d2565b9050919050565b60006020820190508181036000830152612e76816129f5565b9050919050565b60006020820190508181036000830152612e9681612a18565b9050919050565b60006020820190508181036000830152612eb681612a3b565b9050919050565b60006020820190508181036000830152612ed681612a5e565b9050919050565b6000602082019050612ef26000830184612a81565b92915050565b6000604082019050612f0d6000830185612a81565b612f1a6020830184612a81565b9392505050565b600060a082019050612f366000830188612a81565b612f436020830187612a81565b612f506040830186612a81565b612f5d6060830185612a81565b612f6a6080830184612a81565b9695505050505050565b6000612f7e612f8f565b9050612f8a828261323e565b919050565b6000604051905090565b600067ffffffffffffffff821115612fb457612fb36133ad565b5b602082029050602081019050919050565b600067ffffffffffffffff821115612fe057612fdf6133ad565b5b612fe9826133f5565b9050602081019050919050565b600067ffffffffffffffff821115613011576130106133ad565b5b61301a826133f5565b9050602081019050919050565b600081519050919050565b600082825260208201905092915050565b600081905092915050565b600061305982613189565b915061306483613189565b9250827fffffffffffffffffffffffffffffffffffffffffffffffffffffffffffffffff03821115613099576130986132c2565b5b828201905092915050565b60006130af82613189565b91506130ba83613189565b9250826130ca576130c96132f1565b5b828204905092915050565b60006130e082613189565b91506130eb83613189565b9250817fffffffffffffffffffffffffffffffffffffffffffffffffffffffffffffffff0483118215151615613124576131236132c2565b5b828202905092915050565b600061313a82613169565b9050919050565b600061314c82613169565b9050919050565b60008115159050919050565b6000819050919050565b600073ffffffffffffffffffffffffffffffffffffffff82169050919050565b6000819050919050565b600060ff82169050919050565b82818337600083830152505050565b60005b838110156131cd5780820151818401526020810190506131b2565b838111156131dc576000848401525b50505050565b60006131ed82613189565b91506000821415613201576132006132c2565b5b600182039050919050565b6000600282049050600182168061322457607f821691505b602082108114156132385761323761334f565b5b50919050565b613247826133f5565b810181811067ffffffffffffffff82111715613266576132656133ad565b5b80604052505050565b600061327a82613189565b91507fffffffffffffffffffffffffffffffffffffffffffffffffffffffffffffffff8214156132ad576132ac6132c2565b5b600182019050919050565b6000819050919050565b7f4e487b7100000000000000000000000000000000000000000000000000000000600052601160045260246000fd5b7f4e487b7100000000000000000000000000000000000000000000000000000000600052601260045260246000fd5b7f4e487b7100000000000000000000000000000000000000000000000000000000600052602160045260246000fd5b7f4e487b7100000000000000000000000000000000000000000000000000000000600052602260045260246000fd5b7f4e487b7100000000000000000000000000000000000000000000000000000000600052603260045260246000fd5b7f4e487b7100000000000000000000000000000000000000000000000000000000600052604160045260246000fd5b600080fd5b600080fd5b600080fd5b600080fd5b600080fd5b6000601f19601f8301169050919050565b7f45434453413a20696e76616c6964207369676e61747572650000000000000000600082015250565b7f766f74696e67506572696f64206d75737420626520677265617465722074686160008201527f6e20310000000000000000000000000000000000000000000000000000000000602082015250565b7f6d616a6f7269747920796573566f746573206e6f742072656163686564000000600082015250565b7f45434453413a20696e76616c6964207369676e6174757265206c656e67746800600082015250565b7f766f74696e6720706572696f6420686173207061737365640000000000000000600082015250565b7f612071756f72756d20686173206e6f74206265656e207265616368656420666f60008201527f72207468652070726f706f73616c000000000000000000000000000000000000602082015250565b7f4f776e61626c653a206e6577206f776e657220697320746865207a65726f206160008201527f6464726573730000000000000000000000000000000000000000000000000000602082015250565b7f1901000000000000000000000000000000000000000000000000000000000000600082015250565b7f6d656d62657220697320616c7265616479207265676973746572656400000000600082015250565b7f45434453413a20696e76616c6964207369676e6174757265202773272076616c60008201527f7565000000000000000000000000000000000000000000000000000000000000602082015250565b7f766f7465722068617320616c726561647920766f746564000000000000000000600082015250565b7f496e697469616c697a61626c653a20636f6e747261637420697320616c72656160008201527f647920696e697469616c697a6564000000000000000000000000000000000000602082015250565b7f45434453413a20696e76616c6964207369676e6174757265202776272076616c60008201527f7565000000000000000000000000000000000000000000000000000000000000602082015250565b7f6f6e6c79205573756c206d6f64756c65206d617920656e746572000000000000600082015250565b7f4f776e61626c653a2063616c6c6572206973206e6f7420746865206f776e6572600082015250565b7f766f74696e6720706572696f6420686173206e6f742070617373656420796574600082015250565b7f71756f72756d4e756d657261746f72206f7665722071756f72756d44656e6f6d60008201527f696e61746f720000000000000000000000000000000000000000000000000000602082015250565b7f766f746572206973206e6f742061206d656d6265720000000000000000000000600082015250565b7f6d656d626572206973206e6f7420726567697374657265640000000000000000600082015250565b7f496e697469616c697a61626c653a20636f6e7472616374206973206e6f74206960008201527f6e697469616c697a696e67000000000000000000000000000000000000000000602082015250565b7f696e76616c69642076616c756520666f7220656e756d20566f74655479706500600082015250565b61389c8161312f565b81146138a757600080fd5b50565b6138b381613141565b81146138be57600080fd5b50565b6138ca81613189565b81146138d557600080fd5b50565b6138e181613193565b81146138ec57600080fd5b5056fea26469706673582212209ee369b338e26040e1ea07c86fe183e6de3dc2ebc2411321861733ed57ae9f2964736f6c63430008060033",
  "devdoc": {
    "author": "Nathan Ginnever - <team@hyphal.xyz>",
    "kind": "dev",
    "methods": {
      "finalizeStrategy(uint256)": {
        "details": "Calls the proposal module to notify that a quorum has been reached.",
        "params": {
          "proposalId": "the proposal to vote for."
        }
      },
      "hasVoted(uint256,address)": {
        "details": "Returns true if an account has voted on a specific proposal.",
        "params": {
          "account": "the account to inspect.",
          "proposalId": "the proposal to inspect."
        },
        "returns": {
          "_0": "boolean."
        }
      },
      "isPassed(uint256)": {
        "details": "Determines if a proposal has succeeded.",
        "params": {
          "proposalId": "the proposal to vote for."
        },
        "returns": {
          "_0": "boolean."
        }
      },
      "owner()": {
        "details": "Returns the address of the current owner."
      },
      "receiveProposal(bytes)": {
        "details": "Called by the proposal module, this notifes the strategy of a new proposal.",
        "params": {
          "data": "any extra data to pass to the voting strategy"
        }
      },
      "renounceOwnership()": {
        "details": "Leaves the contract without owner. It will not be possible to call `onlyOwner` functions anymore. Can only be called by the current owner. NOTE: Renouncing ownership will leave the contract without an owner, thereby removing any functionality that is only available to the owner."
      },
      "setUsul(address)": {
        "details": "Sets the executor to a new account (`newExecutor`)."
      },
      "transferOwnership(address)": {
        "details": "Transfers ownership of the contract to a new account (`newOwner`). Can only be called by the current owner."
      },
      "updateTimeLockPeriod(uint256)": {
        "details": "Updates the grace period time after a proposal passed before it can execute.",
        "params": {
          "newTimeLockPeriod": "the new delay before execution."
        }
      },
      "updateVotingPeriod(uint256)": {
        "details": "Updates the time that proposals are active for voting.",
        "params": {
          "newPeriod": "the voting window."
        }
      },
      "version()": {
        "details": "ERC712 version."
      },
      "vote(uint256,uint8,bytes)": {
        "details": "Submits a vote for a proposal.",
        "params": {
          "proposalId": "the proposal to vote for.",
          "support": "against, for, or abstain."
        }
      },
      "voteSignature(uint256,uint8,bytes,bytes)": {
        "details": "Submits a vote for a proposal by ERC712 signature.",
        "params": {
          "proposalId": "the proposal to vote for.",
          "signature": "712 signed vote.",
          "support": "against, for, or abstain."
        }
      }
    },
    "title": "OpenZeppelin Linear Voting Strategy - A Usul strategy that enables compount like voting.",
    "version": 1
  },
  "userdoc": {
    "kind": "user",
    "methods": {
      "setUsul(address)": {
        "notice": "Can only be called by the current owner."
      }
    },
    "version": 1
  },
  "storageLayout": {
    "storage": [
      {
        "astId": 3500,
        "contract": "contracts/votingStrategies/SimpleMemberVoting.sol:SimpleMemberVoting",
        "label": "_initialized",
        "offset": 0,
        "slot": "0",
        "type": "t_bool"
      },
      {
        "astId": 3503,
        "contract": "contracts/votingStrategies/SimpleMemberVoting.sol:SimpleMemberVoting",
        "label": "_initializing",
        "offset": 1,
        "slot": "0",
        "type": "t_bool"
      },
      {
        "astId": 3851,
        "contract": "contracts/votingStrategies/SimpleMemberVoting.sol:SimpleMemberVoting",
        "label": "__gap",
        "offset": 0,
        "slot": "1",
        "type": "t_array(t_uint256)50_storage"
      },
      {
        "astId": 3380,
        "contract": "contracts/votingStrategies/SimpleMemberVoting.sol:SimpleMemberVoting",
        "label": "_owner",
        "offset": 0,
        "slot": "51",
        "type": "t_address"
      },
      {
        "astId": 3492,
        "contract": "contracts/votingStrategies/SimpleMemberVoting.sol:SimpleMemberVoting",
        "label": "__gap",
        "offset": 0,
        "slot": "52",
        "type": "t_array(t_uint256)49_storage"
      },
      {
        "astId": 7346,
        "contract": "contracts/votingStrategies/SimpleMemberVoting.sol:SimpleMemberVoting",
        "label": "UsulModule",
        "offset": 0,
        "slot": "101",
        "type": "t_address"
      },
      {
        "astId": 4471,
        "contract": "contracts/votingStrategies/SimpleMemberVoting.sol:SimpleMemberVoting",
        "label": "_HASHED_NAME",
        "offset": 0,
        "slot": "102",
        "type": "t_bytes32"
      },
      {
        "astId": 4473,
        "contract": "contracts/votingStrategies/SimpleMemberVoting.sol:SimpleMemberVoting",
        "label": "_HASHED_VERSION",
        "offset": 0,
        "slot": "103",
        "type": "t_bytes32"
      },
      {
        "astId": 4611,
        "contract": "contracts/votingStrategies/SimpleMemberVoting.sol:SimpleMemberVoting",
        "label": "__gap",
        "offset": 0,
        "slot": "104",
        "type": "t_array(t_uint256)50_storage"
      },
      {
        "astId": 8696,
        "contract": "contracts/votingStrategies/SimpleMemberVoting.sol:SimpleMemberVoting",
        "label": "votingPeriod",
        "offset": 0,
        "slot": "154",
        "type": "t_uint256"
      },
      {
        "astId": 8698,
        "contract": "contracts/votingStrategies/SimpleMemberVoting.sol:SimpleMemberVoting",
        "label": "timeLockPeriod",
        "offset": 0,
        "slot": "155",
        "type": "t_uint256"
      },
      {
        "astId": 8700,
        "contract": "contracts/votingStrategies/SimpleMemberVoting.sol:SimpleMemberVoting",
        "label": "name",
        "offset": 0,
        "slot": "156",
        "type": "t_string_storage"
      },
      {
        "astId": 8705,
        "contract": "contracts/votingStrategies/SimpleMemberVoting.sol:SimpleMemberVoting",
        "label": "proposals",
        "offset": 0,
        "slot": "157",
        "type": "t_mapping(t_uint256,t_struct(ProposalVoting)8694_storage)"
      },
      {
        "astId": 8438,
        "contract": "contracts/votingStrategies/SimpleMemberVoting.sol:SimpleMemberVoting",
        "label": "memberCount",
        "offset": 0,
        "slot": "158",
        "type": "t_uint256"
      },
      {
        "astId": 8442,
        "contract": "contracts/votingStrategies/SimpleMemberVoting.sol:SimpleMemberVoting",
        "label": "members",
        "offset": 0,
        "slot": "159",
        "type": "t_mapping(t_address,t_bool)"
      },
      {
        "astId": 8591,
        "contract": "contracts/votingStrategies/SimpleMemberVoting.sol:SimpleMemberVoting",
        "label": "_quorumNumerator",
        "offset": 0,
        "slot": "160",
        "type": "t_uint256"
      }
    ],
    "types": {
      "t_address": {
        "encoding": "inplace",
        "label": "address",
        "numberOfBytes": "20"
      },
      "t_array(t_uint256)49_storage": {
        "base": "t_uint256",
        "encoding": "inplace",
        "label": "uint256[49]",
        "numberOfBytes": "1568"
      },
      "t_array(t_uint256)50_storage": {
        "base": "t_uint256",
        "encoding": "inplace",
        "label": "uint256[50]",
        "numberOfBytes": "1600"
      },
      "t_bool": {
        "encoding": "inplace",
        "label": "bool",
        "numberOfBytes": "1"
      },
      "t_bytes32": {
        "encoding": "inplace",
        "label": "bytes32",
        "numberOfBytes": "32"
      },
      "t_mapping(t_address,t_bool)": {
        "encoding": "mapping",
        "key": "t_address",
        "label": "mapping(address => bool)",
        "numberOfBytes": "32",
        "value": "t_bool"
      },
      "t_mapping(t_uint256,t_struct(ProposalVoting)8694_storage)": {
        "encoding": "mapping",
        "key": "t_uint256",
        "label": "mapping(uint256 => struct BaseTokenVoting.ProposalVoting)",
        "numberOfBytes": "32",
        "value": "t_struct(ProposalVoting)8694_storage"
      },
      "t_string_storage": {
        "encoding": "bytes",
        "label": "string",
        "numberOfBytes": "32"
      },
      "t_struct(ProposalVoting)8694_storage": {
        "encoding": "inplace",
        "label": "struct BaseTokenVoting.ProposalVoting",
        "members": [
          {
            "astId": 8681,
            "contract": "contracts/votingStrategies/SimpleMemberVoting.sol:SimpleMemberVoting",
            "label": "yesVotes",
            "offset": 0,
            "slot": "0",
            "type": "t_uint256"
          },
          {
            "astId": 8683,
            "contract": "contracts/votingStrategies/SimpleMemberVoting.sol:SimpleMemberVoting",
            "label": "noVotes",
            "offset": 0,
            "slot": "1",
            "type": "t_uint256"
          },
          {
            "astId": 8685,
            "contract": "contracts/votingStrategies/SimpleMemberVoting.sol:SimpleMemberVoting",
            "label": "abstainVotes",
            "offset": 0,
            "slot": "2",
            "type": "t_uint256"
          },
          {
            "astId": 8687,
            "contract": "contracts/votingStrategies/SimpleMemberVoting.sol:SimpleMemberVoting",
            "label": "deadline",
            "offset": 0,
            "slot": "3",
            "type": "t_uint256"
          },
          {
            "astId": 8689,
            "contract": "contracts/votingStrategies/SimpleMemberVoting.sol:SimpleMemberVoting",
            "label": "startBlock",
            "offset": 0,
            "slot": "4",
            "type": "t_uint256"
          },
          {
            "astId": 8693,
            "contract": "contracts/votingStrategies/SimpleMemberVoting.sol:SimpleMemberVoting",
            "label": "hasVoted",
            "offset": 0,
            "slot": "5",
            "type": "t_mapping(t_address,t_bool)"
          }
        ],
        "numberOfBytes": "192"
      },
      "t_uint256": {
        "encoding": "inplace",
        "label": "uint256",
        "numberOfBytes": "32"
      }
    }
  }
}