{
  "address": "0xcA9dee285513d5219b1b4c9D1A83Eb3Ed83A1065",
  "abi": [
    {
      "inputs": [
        {
          "internalType": "address",
          "name": "_owner",
          "type": "address"
        },
        {
          "internalType": "address",
          "name": "_avatar",
          "type": "address"
        },
        {
          "internalType": "address",
          "name": "_target",
          "type": "address"
        },
        {
          "internalType": "address[]",
          "name": "_strategies",
          "type": "address[]"
        }
      ],
      "stateMutability": "nonpayable",
      "type": "constructor"
    },
    {
      "anonymous": false,
      "inputs": [
        {
          "indexed": true,
          "internalType": "address",
          "name": "previousAvatar",
          "type": "address"
        },
        {
          "indexed": true,
          "internalType": "address",
          "name": "newAvatar",
          "type": "address"
        }
      ],
      "name": "AvatarSet",
      "type": "event"
    },
    {
      "anonymous": false,
      "inputs": [
        {
          "indexed": false,
          "internalType": "address",
          "name": "guard",
          "type": "address"
        }
      ],
      "name": "ChangedGuard",
      "type": "event"
    },
    {
      "anonymous": false,
      "inputs": [
        {
          "indexed": false,
          "internalType": "address",
          "name": "strategy",
          "type": "address"
        }
      ],
      "name": "DisabledStrategy",
      "type": "event"
    },
    {
      "anonymous": false,
      "inputs": [
        {
          "indexed": false,
          "internalType": "address",
          "name": "strategy",
          "type": "address"
        }
      ],
      "name": "EnabledStrategy",
      "type": "event"
    },
    {
      "anonymous": false,
      "inputs": [
        {
          "indexed": true,
          "internalType": "address",
          "name": "previousOwner",
          "type": "address"
        },
        {
          "indexed": true,
          "internalType": "address",
          "name": "newOwner",
          "type": "address"
        }
      ],
      "name": "OwnershipTransferred",
      "type": "event"
    },
    {
      "anonymous": false,
      "inputs": [
        {
          "indexed": false,
          "internalType": "uint256",
          "name": "proposalId",
          "type": "uint256"
        }
      ],
      "name": "ProposalCanceled",
      "type": "event"
    },
    {
      "anonymous": false,
      "inputs": [
        {
          "indexed": false,
          "internalType": "address",
          "name": "strategy",
          "type": "address"
        },
        {
          "indexed": false,
          "internalType": "uint256",
          "name": "proposalNumber",
          "type": "uint256"
        },
        {
          "indexed": false,
          "internalType": "address",
          "name": "proposer",
          "type": "address"
        }
      ],
      "name": "ProposalCreated",
      "type": "event"
    },
    {
      "anonymous": false,
      "inputs": [
        {
          "indexed": false,
          "internalType": "uint256",
          "name": "id",
          "type": "uint256"
        }
      ],
      "name": "ProposalExecuted",
      "type": "event"
    },
    {
      "anonymous": false,
      "inputs": [
        {
          "indexed": false,
          "internalType": "uint256",
          "name": "proposalId",
          "type": "uint256"
        },
        {
          "indexed": false,
          "internalType": "uint256",
          "name": "endDate",
          "type": "uint256"
        }
      ],
      "name": "StrategyFinalized",
      "type": "event"
    },
    {
      "anonymous": false,
      "inputs": [
        {
          "indexed": true,
          "internalType": "address",
          "name": "previousTarget",
          "type": "address"
        },
        {
          "indexed": true,
          "internalType": "address",
          "name": "newTarget",
          "type": "address"
        }
      ],
      "name": "TargetSet",
      "type": "event"
    },
    {
      "anonymous": false,
      "inputs": [
        {
          "indexed": false,
          "internalType": "uint256",
          "name": "proposalId",
          "type": "uint256"
        },
        {
          "indexed": false,
          "internalType": "bytes32",
          "name": "txHash",
          "type": "bytes32"
        }
      ],
      "name": "TransactionExecuted",
      "type": "event"
    },
    {
      "anonymous": false,
      "inputs": [
        {
          "indexed": false,
          "internalType": "uint256",
          "name": "startIndex",
          "type": "uint256"
        },
        {
          "indexed": false,
          "internalType": "uint256",
          "name": "endIndex",
          "type": "uint256"
        }
      ],
      "name": "TransactionExecutedBatch",
      "type": "event"
    },
    {
      "anonymous": false,
      "inputs": [
        {
          "indexed": true,
          "internalType": "address",
          "name": "initiator",
          "type": "address"
        },
        {
          "indexed": true,
          "internalType": "address",
          "name": "owner",
          "type": "address"
        },
        {
          "indexed": true,
          "internalType": "address",
          "name": "avatar",
          "type": "address"
        },
        {
          "indexed": false,
          "internalType": "address",
          "name": "target",
          "type": "address"
        }
      ],
      "name": "UsulSetup",
      "type": "event"
    },
    {
      "inputs": [],
      "name": "DOMAIN_SEPARATOR_TYPEHASH",
      "outputs": [
        {
          "internalType": "bytes32",
          "name": "",
          "type": "bytes32"
        }
      ],
      "stateMutability": "view",
      "type": "function"
    },
    {
      "inputs": [],
      "name": "TRANSACTION_TYPEHASH",
      "outputs": [
        {
          "internalType": "bytes32",
          "name": "",
          "type": "bytes32"
        }
      ],
      "stateMutability": "view",
      "type": "function"
    },
    {
      "inputs": [],
      "name": "avatar",
      "outputs": [
        {
          "internalType": "address",
          "name": "",
          "type": "address"
        }
      ],
      "stateMutability": "view",
      "type": "function"
    },
    {
      "inputs": [
        {
          "internalType": "uint256[]",
          "name": "proposalIds",
          "type": "uint256[]"
        }
      ],
      "name": "cancelProposals",
      "outputs": [],
      "stateMutability": "nonpayable",
      "type": "function"
    },
    {
      "inputs": [
        {
          "internalType": "address",
          "name": "prevStrategy",
          "type": "address"
        },
        {
          "internalType": "address",
          "name": "strategy",
          "type": "address"
        }
      ],
      "name": "disableStrategy",
      "outputs": [],
      "stateMutability": "nonpayable",
      "type": "function"
    },
    {
      "inputs": [
        {
          "internalType": "address",
          "name": "strategy",
          "type": "address"
        }
      ],
      "name": "enableStrategy",
      "outputs": [],
      "stateMutability": "nonpayable",
      "type": "function"
    },
    {
      "inputs": [
        {
          "internalType": "uint256",
          "name": "proposalId",
          "type": "uint256"
        },
        {
          "internalType": "address[]",
          "name": "targets",
          "type": "address[]"
        },
        {
          "internalType": "uint256[]",
          "name": "values",
          "type": "uint256[]"
        },
        {
          "internalType": "bytes[]",
          "name": "data",
          "type": "bytes[]"
        },
        {
          "internalType": "enum Enum.Operation[]",
          "name": "operations",
          "type": "uint8[]"
        }
      ],
      "name": "executeProposalBatch",
      "outputs": [],
      "stateMutability": "nonpayable",
      "type": "function"
    },
    {
      "inputs": [
        {
          "internalType": "uint256",
          "name": "proposalId",
          "type": "uint256"
        },
        {
          "internalType": "address",
          "name": "target",
          "type": "address"
        },
        {
          "internalType": "uint256",
          "name": "value",
          "type": "uint256"
        },
        {
          "internalType": "bytes",
          "name": "data",
          "type": "bytes"
        },
        {
          "internalType": "enum Enum.Operation",
          "name": "operation",
          "type": "uint8"
        }
      ],
      "name": "executeProposalByIndex",
      "outputs": [],
      "stateMutability": "nonpayable",
      "type": "function"
    },
    {
      "inputs": [
        {
          "internalType": "address",
          "name": "to",
          "type": "address"
        },
        {
          "internalType": "uint256",
          "name": "value",
          "type": "uint256"
        },
        {
          "internalType": "bytes",
          "name": "data",
          "type": "bytes"
        },
        {
          "internalType": "enum Enum.Operation",
          "name": "operation",
          "type": "uint8"
        },
        {
          "internalType": "uint256",
          "name": "nonce",
          "type": "uint256"
        }
      ],
      "name": "generateTransactionHashData",
      "outputs": [
        {
          "internalType": "bytes",
          "name": "",
          "type": "bytes"
        }
      ],
      "stateMutability": "view",
      "type": "function"
    },
    {
      "inputs": [],
      "name": "getGuard",
      "outputs": [
        {
          "internalType": "address",
          "name": "_guard",
          "type": "address"
        }
      ],
      "stateMutability": "view",
      "type": "function"
    },
    {
      "inputs": [
        {
          "internalType": "address",
          "name": "start",
          "type": "address"
        },
        {
          "internalType": "uint256",
          "name": "pageSize",
          "type": "uint256"
        }
      ],
      "name": "getStrategiesPaginated",
      "outputs": [
        {
          "internalType": "address[]",
          "name": "array",
          "type": "address[]"
        },
        {
          "internalType": "address",
          "name": "next",
          "type": "address"
        }
      ],
      "stateMutability": "view",
      "type": "function"
    },
    {
      "inputs": [
        {
          "internalType": "address",
          "name": "to",
          "type": "address"
        },
        {
          "internalType": "uint256",
          "name": "value",
          "type": "uint256"
        },
        {
          "internalType": "bytes",
          "name": "data",
          "type": "bytes"
        },
        {
          "internalType": "enum Enum.Operation",
          "name": "operation",
          "type": "uint8"
        }
      ],
      "name": "getTransactionHash",
      "outputs": [
        {
          "internalType": "bytes32",
          "name": "",
          "type": "bytes32"
        }
      ],
      "stateMutability": "view",
      "type": "function"
    },
    {
      "inputs": [
        {
          "internalType": "uint256",
          "name": "proposalId",
          "type": "uint256"
        },
        {
          "internalType": "uint256",
          "name": "index",
          "type": "uint256"
        }
      ],
      "name": "getTxHash",
      "outputs": [
        {
          "internalType": "bytes32",
          "name": "",
          "type": "bytes32"
        }
      ],
      "stateMutability": "view",
      "type": "function"
    },
    {
      "inputs": [],
      "name": "guard",
      "outputs": [
        {
          "internalType": "address",
          "name": "",
          "type": "address"
        }
      ],
      "stateMutability": "view",
      "type": "function"
    },
    {
      "inputs": [
        {
          "internalType": "address",
          "name": "_strategy",
          "type": "address"
        }
      ],
      "name": "isStrategyEnabled",
      "outputs": [
        {
          "internalType": "bool",
          "name": "",
          "type": "bool"
        }
      ],
      "stateMutability": "view",
      "type": "function"
    },
    {
      "inputs": [
        {
          "internalType": "uint256",
          "name": "proposalId",
          "type": "uint256"
        },
        {
          "internalType": "uint256",
          "name": "index",
          "type": "uint256"
        }
      ],
      "name": "isTxExecuted",
      "outputs": [
        {
          "internalType": "bool",
          "name": "",
          "type": "bool"
        }
      ],
      "stateMutability": "view",
      "type": "function"
    },
    {
      "inputs": [],
      "name": "owner",
      "outputs": [
        {
          "internalType": "address",
          "name": "",
          "type": "address"
        }
      ],
      "stateMutability": "view",
      "type": "function"
    },
    {
      "inputs": [
        {
          "internalType": "uint256",
          "name": "",
          "type": "uint256"
        }
      ],
      "name": "proposals",
      "outputs": [
        {
          "internalType": "bool",
          "name": "canceled",
          "type": "bool"
        },
        {
          "internalType": "uint256",
          "name": "timeLockPeriod",
          "type": "uint256"
        },
        {
          "internalType": "uint256",
          "name": "executionCounter",
          "type": "uint256"
        },
        {
          "internalType": "address",
          "name": "strategy",
          "type": "address"
        }
      ],
      "stateMutability": "view",
      "type": "function"
    },
    {
      "inputs": [
        {
          "internalType": "uint256",
          "name": "proposalId",
          "type": "uint256"
        },
        {
          "internalType": "uint256",
          "name": "timeLockPeriod",
          "type": "uint256"
        }
      ],
      "name": "receiveStrategy",
      "outputs": [],
      "stateMutability": "nonpayable",
      "type": "function"
    },
    {
      "inputs": [],
      "name": "renounceOwnership",
      "outputs": [],
      "stateMutability": "nonpayable",
      "type": "function"
    },
    {
      "inputs": [
        {
          "internalType": "address",
          "name": "_avatar",
          "type": "address"
        }
      ],
      "name": "setAvatar",
      "outputs": [],
      "stateMutability": "nonpayable",
      "type": "function"
    },
    {
      "inputs": [
        {
          "internalType": "address",
          "name": "_guard",
          "type": "address"
        }
      ],
      "name": "setGuard",
      "outputs": [],
      "stateMutability": "nonpayable",
      "type": "function"
    },
    {
      "inputs": [
        {
          "internalType": "address",
          "name": "_target",
          "type": "address"
        }
      ],
      "name": "setTarget",
      "outputs": [],
      "stateMutability": "nonpayable",
      "type": "function"
    },
    {
      "inputs": [
        {
          "internalType": "bytes",
          "name": "initParams",
          "type": "bytes"
        }
      ],
      "name": "setUp",
      "outputs": [],
      "stateMutability": "nonpayable",
      "type": "function"
    },
    {
      "inputs": [
        {
          "internalType": "uint256",
          "name": "proposalId",
          "type": "uint256"
        }
      ],
      "name": "state",
      "outputs": [
        {
          "internalType": "enum Usul.ProposalState",
          "name": "",
          "type": "uint8"
        }
      ],
      "stateMutability": "view",
      "type": "function"
    },
    {
      "inputs": [
        {
          "internalType": "bytes32[]",
          "name": "txHashes",
          "type": "bytes32[]"
        },
        {
          "internalType": "address",
          "name": "strategy",
          "type": "address"
        },
        {
          "internalType": "bytes",
          "name": "data",
          "type": "bytes"
        }
      ],
      "name": "submitProposal",
      "outputs": [],
      "stateMutability": "nonpayable",
      "type": "function"
    },
    {
      "inputs": [],
      "name": "target",
      "outputs": [
        {
          "internalType": "address",
          "name": "",
          "type": "address"
        }
      ],
      "stateMutability": "view",
      "type": "function"
    },
    {
      "inputs": [],
      "name": "totalProposalCount",
      "outputs": [
        {
          "internalType": "uint256",
          "name": "",
          "type": "uint256"
        }
      ],
      "stateMutability": "view",
      "type": "function"
    },
    {
      "inputs": [
        {
          "internalType": "address",
          "name": "newOwner",
          "type": "address"
        }
      ],
      "name": "transferOwnership",
      "outputs": [],
      "stateMutability": "nonpayable",
      "type": "function"
    }
  ],
  "transactionHash": "0x498d3b75b38a557ec31f25eee34a42bbc7319a18d7b62424032a01ee923e5ad2",
  "args": [
    "0x0000000000000000000000000000000000000001",
    "0x0000000000000000000000000000000000000001",
    "0x0000000000000000000000000000000000000001",
    [
      "0x0000000000000000000000000000000000000002"
    ]
  ],
  "solcInputHash": "d0b4647745462b72c7949d559e034e2c",
  "bytecode": "0x60806040523480156200001157600080fd5b506040516200646138038062006461833981810160405281019062000037919062000cae565b60008484848460405160200162000052949392919062000f13565b604051602081830303815290604052905062000074816200007f60201b60201c565b50505050506200146a565b600060019054906101000a900460ff16620000a95760008054906101000a900460ff1615620000ba565b620000b9620002cd60201b60201c565b5b620000fc576040517f08c379a0000000000000000000000000000000000000000000000000000000008152600401620000f39062000f89565b60405180910390fd5b60008060019054906101000a900460ff1615905080156200014d576001600060016101000a81548160ff02191690831515021790555060016000806101000a81548160ff0219169083151502179055505b6000806000808580602001905181019062000169919062000c1d565b935093509350935062000181620002eb60201b60201c565b82606660006101000a81548173ffffffffffffffffffffffffffffffffffffffff021916908373ffffffffffffffffffffffffffffffffffffffff16021790555081606760006101000a81548173ffffffffffffffffffffffffffffffffffffffff021916908373ffffffffffffffffffffffffffffffffffffffff16021790555062000214816200034f60201b60201c565b6200022584620004f660201b60201c565b8273ffffffffffffffffffffffffffffffffffffffff168473ffffffffffffffffffffffffffffffffffffffff163373ffffffffffffffffffffffffffffffffffffffff167ffb449138a79e741e04958f3e25fcf032b7c7080142fe9d7b9dc8e1935c8905e7856040516200029b919062000ef6565b60405180910390a4505050508015620002c95760008060016101000a81548160ff0219169083151502179055505b5050565b6000620002e5306200060c60201b620026a71760201c565b15905090565b600060019054906101000a900460ff166200033d576040517f08c379a0000000000000000000000000000000000000000000000000000000008152600401620003349062001011565b60405180910390fd5b6200034d6200062f60201b60201c565b565b600073ffffffffffffffffffffffffffffffffffffffff16606a6000600173ffffffffffffffffffffffffffffffffffffffff1673ffffffffffffffffffffffffffffffffffffffff16815260200190815260200160002060009054906101000a900473ffffffffffffffffffffffffffffffffffffffff1673ffffffffffffffffffffffffffffffffffffffff161462000421576040517f08c379a0000000000000000000000000000000000000000000000000000000008152600401620004189062000fef565b60405180910390fd5b6001606a6000600173ffffffffffffffffffffffffffffffffffffffff1673ffffffffffffffffffffffffffffffffffffffff16815260200190815260200160002060006101000a81548173ffffffffffffffffffffffffffffffffffffffff021916908373ffffffffffffffffffffffffffffffffffffffff16021790555060005b8151811015620004f257620004dc828281518110620004c857620004c7620011fc565b5b6020026020010151620006a360201b60201c565b8080620004e9906200117f565b915050620004a4565b5050565b6200050662000a4960201b60201c565b73ffffffffffffffffffffffffffffffffffffffff166200052c62000a5160201b60201c565b73ffffffffffffffffffffffffffffffffffffffff161462000585576040517f08c379a00000000000000000000000000000000000000000000000000000000081526004016200057c9062000fab565b60405180910390fd5b600073ffffffffffffffffffffffffffffffffffffffff168173ffffffffffffffffffffffffffffffffffffffff161415620005f8576040517f08c379a0000000000000000000000000000000000000000000000000000000008152600401620005ef9062000f67565b60405180910390fd5b620006098162000a7b60201b60201c565b50565b6000808273ffffffffffffffffffffffffffffffffffffffff163b119050919050565b600060019054906101000a900460ff1662000681576040517f08c379a0000000000000000000000000000000000000000000000000000000008152600401620006789062001011565b60405180910390fd5b620006a16200069562000a4960201b60201c565b62000a7b60201b60201c565b565b620006b362000a4960201b60201c565b73ffffffffffffffffffffffffffffffffffffffff16620006d962000a5160201b60201c565b73ffffffffffffffffffffffffffffffffffffffff161462000732576040517f08c379a0000000000000000000000000000000000000000000000000000000008152600401620007299062000fab565b60405180910390fd5b600073ffffffffffffffffffffffffffffffffffffffff168173ffffffffffffffffffffffffffffffffffffffff16141580156200079d5750600173ffffffffffffffffffffffffffffffffffffffff168173ffffffffffffffffffffffffffffffffffffffff1614155b620007df576040517f08c379a0000000000000000000000000000000000000000000000000000000008152600401620007d69062001033565b60405180910390fd5b600073ffffffffffffffffffffffffffffffffffffffff16606a60008373ffffffffffffffffffffffffffffffffffffffff1673ffffffffffffffffffffffffffffffffffffffff16815260200190815260200160002060009054906101000a900473ffffffffffffffffffffffffffffffffffffffff1673ffffffffffffffffffffffffffffffffffffffff1614620008b0576040517f08c379a0000000000000000000000000000000000000000000000000000000008152600401620008a79062000fcd565b60405180910390fd5b606a6000600173ffffffffffffffffffffffffffffffffffffffff1673ffffffffffffffffffffffffffffffffffffffff16815260200190815260200160002060009054906101000a900473ffffffffffffffffffffffffffffffffffffffff16606a60008373ffffffffffffffffffffffffffffffffffffffff1673ffffffffffffffffffffffffffffffffffffffff16815260200190815260200160002060006101000a81548173ffffffffffffffffffffffffffffffffffffffff021916908373ffffffffffffffffffffffffffffffffffffffff16021790555080606a6000600173ffffffffffffffffffffffffffffffffffffffff1673ffffffffffffffffffffffffffffffffffffffff16815260200190815260200160002060006101000a81548173ffffffffffffffffffffffffffffffffffffffff021916908373ffffffffffffffffffffffffffffffffffffffff1602179055507f532492ef4d4edd78444556c1b5038901e11c232361675fe6d5e6bea2f0864e198160405162000a3e919062000ef6565b60405180910390a150565b600033905090565b6000603360009054906101000a900473ffffffffffffffffffffffffffffffffffffffff16905090565b6000603360009054906101000a900473ffffffffffffffffffffffffffffffffffffffff16905081603360006101000a81548173ffffffffffffffffffffffffffffffffffffffff021916908373ffffffffffffffffffffffffffffffffffffffff1602179055508173ffffffffffffffffffffffffffffffffffffffff168173ffffffffffffffffffffffffffffffffffffffff167f8be0079c531659141344cd1fd0a4f28419497f9722a3daafe3b4186f6b6457e060405160405180910390a35050565b600062000b5862000b52846200107e565b62001055565b9050808382526020820190508285602086028201111562000b7e5762000b7d6200125f565b5b60005b8581101562000bb2578162000b97888262000bbc565b84526020840193506020830192505060018101905062000b81565b5050509392505050565b60008151905062000bcd8162001436565b92915050565b60008151905062000be48162001450565b92915050565b600082601f83011262000c025762000c016200125a565b5b815162000c1484826020860162000b41565b91505092915050565b6000806000806080858703121562000c3a5762000c3962001269565b5b600062000c4a8782880162000bd3565b945050602062000c5d8782880162000bd3565b935050604062000c708782880162000bd3565b925050606085015167ffffffffffffffff81111562000c945762000c9362001264565b5b62000ca28782880162000bea565b91505092959194509250565b6000806000806080858703121562000ccb5762000cca62001269565b5b600062000cdb8782880162000bbc565b945050602062000cee8782880162000bbc565b935050604062000d018782880162000bbc565b925050606085015167ffffffffffffffff81111562000d255762000d2462001264565b5b62000d338782880162000bea565b91505092959194509250565b600062000d4d838362000d59565b60208301905092915050565b62000d6481620010f7565b82525050565b62000d7581620010f7565b82525050565b600062000d8882620010bd565b62000d948185620010d5565b935062000da183620010ad565b8060005b8381101562000dd857815162000dbc888262000d3f565b975062000dc983620010c8565b92505060018101905062000da5565b5085935050505092915050565b600062000df4602683620010e6565b915062000e01826200127f565b604082019050919050565b600062000e1b602e83620010e6565b915062000e2882620012ce565b604082019050919050565b600062000e42602083620010e6565b915062000e4f826200131d565b602082019050919050565b600062000e69601883620010e6565b915062000e768262001346565b602082019050919050565b600062000e90602483620010e6565b915062000e9d826200136f565b604082019050919050565b600062000eb7602b83620010e6565b915062000ec482620013be565b604082019050919050565b600062000ede601083620010e6565b915062000eeb826200140d565b602082019050919050565b600060208201905062000f0d600083018462000d6a565b92915050565b600060808201905062000f2a600083018762000d6a565b62000f39602083018662000d6a565b62000f48604083018562000d6a565b818103606083015262000f5c818462000d7b565b905095945050505050565b6000602082019050818103600083015262000f828162000de5565b9050919050565b6000602082019050818103600083015262000fa48162000e0c565b9050919050565b6000602082019050818103600083015262000fc68162000e33565b9050919050565b6000602082019050818103600083015262000fe88162000e5a565b9050919050565b600060208201905081810360008301526200100a8162000e81565b9050919050565b600060208201905081810360008301526200102c8162000ea8565b9050919050565b600060208201905081810360008301526200104e8162000ecf565b9050919050565b60006200106162001074565b90506200106f828262001149565b919050565b6000604051905090565b600067ffffffffffffffff8211156200109c576200109b6200122b565b5b602082029050602081019050919050565b6000819050602082019050919050565b600081519050919050565b6000602082019050919050565b600082825260208201905092915050565b600082825260208201905092915050565b600062001104826200111f565b9050919050565b600062001118826200111f565b9050919050565b600073ffffffffffffffffffffffffffffffffffffffff82169050919050565b6000819050919050565b62001154826200126e565b810181811067ffffffffffffffff821117156200117657620011756200122b565b5b80604052505050565b60006200118c826200113f565b91507fffffffffffffffffffffffffffffffffffffffffffffffffffffffffffffffff821415620011c257620011c1620011cd565b5b600182019050919050565b7f4e487b7100000000000000000000000000000000000000000000000000000000600052601160045260246000fd5b7f4e487b7100000000000000000000000000000000000000000000000000000000600052603260045260246000fd5b7f4e487b7100000000000000000000000000000000000000000000000000000000600052604160045260246000fd5b600080fd5b600080fd5b600080fd5b600080fd5b6000601f19601f8301169050919050565b7f4f776e61626c653a206e6577206f776e657220697320746865207a65726f206160008201527f6464726573730000000000000000000000000000000000000000000000000000602082015250565b7f496e697469616c697a61626c653a20636f6e747261637420697320616c72656160008201527f647920696e697469616c697a6564000000000000000000000000000000000000602082015250565b7f4f776e61626c653a2063616c6c6572206973206e6f7420746865206f776e6572600082015250565b7f537472617465677920616c726561647920656e61626c65640000000000000000600082015250565b7f73657455704d6f64756c65732068617320616c7265616479206265656e20636160008201527f6c6c656400000000000000000000000000000000000000000000000000000000602082015250565b7f496e697469616c697a61626c653a20636f6e7472616374206973206e6f74206960008201527f6e697469616c697a696e67000000000000000000000000000000000000000000602082015250565b7f496e76616c696420737472617465677900000000000000000000000000000000600082015250565b6200144181620010f7565b81146200144d57600080fd5b50565b6200145b816200110b565b81146200146757600080fd5b50565b614fe7806200147a6000396000f3fe608060405234801561001057600080fd5b50600436106101cf5760003560e01c8063776d1a0111610104578063c9106389116100a2578063ea49ba9711610071578063ea49ba971461051c578063ead0eedf1461054c578063f2fde38b1461056a578063f72d9c3a14610586576101cf565b8063c9106389146104a8578063cdb1b193146104c6578063d4b83992146104e2578063e19a9dd914610500576101cf565b80638da5cb5b116100de5780638da5cb5b14610421578063a4f9edbf1461043f578063b48673791461045b578063c01e39aa14610477576101cf565b8063776d1a01146103c95780637ceab3b1146103e557806388633b7b14610403576101cf565b80634fd61348116101715780636258ba201161014b5780636258ba20146103435780636a0ae77f146103735780636e6ebbbc1461038f578063715018a6146103bf576101cf565b80634fd61348146102ed5780635aef7de614610309578063608244a614610327576101cf565b8063300c661f116101ad578063300c661f146102415780633742fcc9146102715780633e4f49e61461028d578063425a2a3c146102bd576101cf565b8063013cf08b146101d4578063086cfca8146102075780631db61b5414610223575b600080fd5b6101ee60048036038101906101e991906135c0565b6105a2565b6040516101fe9493929190613eee565b60405180910390f35b610221600480360381019061021c919061322c565b6105ff565b005b61022b610741565b6040516102389190613f33565b60405180910390f35b61025b6004803603810190610256919061335c565b610768565b6040516102689190613f33565b60405180910390f35b61028b6004803603810190610286919061322c565b610789565b005b6102a760048036038101906102a291906135c0565b610b13565b6040516102b4919061404c565b60405180910390f35b6102d760048036038101906102d291906133df565b610c4e565b6040516102e4919061402a565b60405180910390f35b6103076004803603810190610302919061376f565b610d42565b005b610311610f9d565b60405161031e9190613d4c565b60405180910390f35b610341600480360381019061033c91906132dc565b610fc3565b005b61035d6004803603810190610358919061376f565b61134c565b60405161036a9190613ed3565b60405180910390f35b61038d600480360381019061038891906135ed565b6113ca565b005b6103a960048036038101906103a4919061376f565b61158b565b6040516103b69190613f33565b60405180910390f35b6103c76115c8565b005b6103e360048036038101906103de919061322c565b611650565b005b6103ed611792565b6040516103fa9190613d4c565b60405180910390f35b61040b6117b8565b6040516104189190613f33565b60405180910390f35b6104296117df565b6040516104369190613d4c565b60405180910390f35b61045960048036038101906104549190613577565b611809565b005b61047560048036038101906104709190613684565b611a2c565b005b610491600480360381019061048c919061331c565b611c5a565b60405161049f929190613ea3565b60405180910390f35b6104b0611e5b565b6040516104bd9190613d4c565b60405180910390f35b6104e060048036038101906104db9190613501565b611e85565b005b6104ea612069565b6040516104f79190613d4c565b60405180910390f35b61051a6004803603810190610515919061322c565b61208f565b005b6105366004803603810190610531919061322c565b6122c5565b6040516105439190613ed3565b60405180910390f35b610554612397565b6040516105619190614367565b60405180910390f35b610584600480360381019061057f919061322c565b61239d565b005b6105a0600480360381019061059b9190613476565b612495565b005b60696020528060005260406000206000915090508060000160009054906101000a900460ff16908060010154908060030154908060040160009054906101000a900473ffffffffffffffffffffffffffffffffffffffff16905084565b6106076126ca565b73ffffffffffffffffffffffffffffffffffffffff166106256117df565b73ffffffffffffffffffffffffffffffffffffffff161461067b576040517f08c379a0000000000000000000000000000000000000000000000000000000008152600401610672906141e7565b60405180910390fd5b6000606660009054906101000a900473ffffffffffffffffffffffffffffffffffffffff16905081606660006101000a81548173ffffffffffffffffffffffffffffffffffffffff021916908373ffffffffffffffffffffffffffffffffffffffff1602179055508173ffffffffffffffffffffffffffffffffffffffff168173ffffffffffffffffffffffffffffffffffffffff167f52ae88b092de36f87fb43fe794eb1381023b9c1bce563a871154022c63dce34260405160405180910390a35050565b7f47e79534a245952e8b16893a336b85a3d9ea9fa8c573f3d803afb92a7946921860001b81565b6000610778858585856000610c4e565b805190602001209050949350505050565b6107916126ca565b73ffffffffffffffffffffffffffffffffffffffff166107af6117df565b73ffffffffffffffffffffffffffffffffffffffff1614610805576040517f08c379a00000000000000000000000000000000000000000000000000000000081526004016107fc906141e7565b60405180910390fd5b600073ffffffffffffffffffffffffffffffffffffffff168173ffffffffffffffffffffffffffffffffffffffff161415801561086f5750600173ffffffffffffffffffffffffffffffffffffffff168173ffffffffffffffffffffffffffffffffffffffff1614155b6108ae576040517f08c379a00000000000000000000000000000000000000000000000000000000081526004016108a590614307565b60405180910390fd5b600073ffffffffffffffffffffffffffffffffffffffff16606a60008373ffffffffffffffffffffffffffffffffffffffff1673ffffffffffffffffffffffffffffffffffffffff16815260200190815260200160002060009054906101000a900473ffffffffffffffffffffffffffffffffffffffff1673ffffffffffffffffffffffffffffffffffffffff161461097c576040517f08c379a000000000000000000000000000000000000000000000000000000000815260040161097390614247565b60405180910390fd5b606a6000600173ffffffffffffffffffffffffffffffffffffffff1673ffffffffffffffffffffffffffffffffffffffff16815260200190815260200160002060009054906101000a900473ffffffffffffffffffffffffffffffffffffffff16606a60008373ffffffffffffffffffffffffffffffffffffffff1673ffffffffffffffffffffffffffffffffffffffff16815260200190815260200160002060006101000a81548173ffffffffffffffffffffffffffffffffffffffff021916908373ffffffffffffffffffffffffffffffffffffffff16021790555080606a6000600173ffffffffffffffffffffffffffffffffffffffff1673ffffffffffffffffffffffffffffffffffffffff16815260200190815260200160002060006101000a81548173ffffffffffffffffffffffffffffffffffffffff021916908373ffffffffffffffffffffffffffffffffffffffff1602179055507f532492ef4d4edd78444556c1b5038901e11c232361675fe6d5e6bea2f0864e1981604051610b089190613d4c565b60405180910390a150565b600080606960008481526020019081526020016000209050600073ffffffffffffffffffffffffffffffffffffffff168160040160009054906101000a900473ffffffffffffffffffffffffffffffffffffffff1673ffffffffffffffffffffffffffffffffffffffff161415610b8e576005915050610c49565b806002018054905081600301541415610bab576003915050610c49565b8060000160009054906101000a900460ff1615610bcc576001915050610c49565b600081600101541415610be3576000915050610c49565b8060010154421015610bf9576002915050610c49565b80600101544210610c0e576004915050610c49565b6040517f08c379a0000000000000000000000000000000000000000000000000000000008152600401610c40906141a7565b60405180910390fd5b919050565b6060600046905060007f47e79534a245952e8b16893a336b85a3d9ea9fa8c573f3d803afb92a7946921860001b8230604051602001610c8f93929190613fd8565b60405160208183030381529060405280519060200120905060007f72e9670a7ee00f5fbf1049b8c38e3f22fab7e9b85029e85cf9412f17fdd5c2ad60001b898989805190602001208989604051602001610cee96959493929190613f4e565b604051602081830303815290604052805190602001209050601960f81b600160f81b8383604051602001610d259493929190613cfe565b604051602081830303815290604052935050505095945050505050565b600073ffffffffffffffffffffffffffffffffffffffff16606a60003373ffffffffffffffffffffffffffffffffffffffff1673ffffffffffffffffffffffffffffffffffffffff16815260200190815260200160002060009054906101000a900473ffffffffffffffffffffffffffffffffffffffff1673ffffffffffffffffffffffffffffffffffffffff161415610e11576040517f08c379a0000000000000000000000000000000000000000000000000000000008152600401610e0890614167565b60405180910390fd5b60006005811115610e2557610e246148af565b5b610e2e83610b13565b6005811115610e4057610e3f6148af565b5b14610e80576040517f08c379a0000000000000000000000000000000000000000000000000000000008152600401610e7790614087565b60405180910390fd5b6069600083815260200190815260200160002060040160009054906101000a900473ffffffffffffffffffffffffffffffffffffffff1673ffffffffffffffffffffffffffffffffffffffff163373ffffffffffffffffffffffffffffffffffffffff1614610f24576040517f08c379a0000000000000000000000000000000000000000000000000000000008152600401610f1b90614207565b60405180910390fd5b8042610f3091906145ea565b60696000848152602001908152602001600020600101819055507fddd1068f5a3093178d520e5e3668df545971ab7813fdc20476f674ae69972b9b826069600085815260200190815260200160002060010154604051610f919291906143f0565b60405180910390a15050565b606660009054906101000a900473ffffffffffffffffffffffffffffffffffffffff1681565b610fcb6126ca565b73ffffffffffffffffffffffffffffffffffffffff16610fe96117df565b73ffffffffffffffffffffffffffffffffffffffff161461103f576040517f08c379a0000000000000000000000000000000000000000000000000000000008152600401611036906141e7565b60405180910390fd5b600073ffffffffffffffffffffffffffffffffffffffff168173ffffffffffffffffffffffffffffffffffffffff16141580156110a95750600173ffffffffffffffffffffffffffffffffffffffff168173ffffffffffffffffffffffffffffffffffffffff1614155b6110e8576040517f08c379a00000000000000000000000000000000000000000000000000000000081526004016110df90614307565b60405180910390fd5b8073ffffffffffffffffffffffffffffffffffffffff16606a60008473ffffffffffffffffffffffffffffffffffffffff1673ffffffffffffffffffffffffffffffffffffffff16815260200190815260200160002060009054906101000a900473ffffffffffffffffffffffffffffffffffffffff1673ffffffffffffffffffffffffffffffffffffffff16146111b5576040517f08c379a00000000000000000000000000000000000000000000000000000000081526004016111ac906142a7565b60405180910390fd5b606a60008273ffffffffffffffffffffffffffffffffffffffff1673ffffffffffffffffffffffffffffffffffffffff16815260200190815260200160002060009054906101000a900473ffffffffffffffffffffffffffffffffffffffff16606a60008473ffffffffffffffffffffffffffffffffffffffff1673ffffffffffffffffffffffffffffffffffffffff16815260200190815260200160002060006101000a81548173ffffffffffffffffffffffffffffffffffffffff021916908373ffffffffffffffffffffffffffffffffffffffff1602179055506000606a60008373ffffffffffffffffffffffffffffffffffffffff1673ffffffffffffffffffffffffffffffffffffffff16815260200190815260200160002060006101000a81548173ffffffffffffffffffffffffffffffffffffffff021916908373ffffffffffffffffffffffffffffffffffffffff1602179055507fc31c3a4f175b634ee48f8db1a8cc8c16f594ea7511e6552684b87a1481f63b6f816040516113409190613d4c565b60405180910390a15050565b6000806069600085815260200190815260200160002060020180549050116113a9576040517f08c379a00000000000000000000000000000000000000000000000000000000081526004016113a090614327565b60405180910390fd5b81606960008581526020019081526020016000206003015411905092915050565b600460058111156113de576113dd6148af565b5b6113e786610b13565b60058111156113f9576113f86148af565b5b14611439576040517f08c379a000000000000000000000000000000000000000000000000000000000815260040161143090614147565b60405180910390fd5b600061144785858585610768565b90508060696000888152602001908152602001600020600201606960008981526020019081526020016000206003015481548110611488576114876148de565b5b9060005260206000200154146114d3576040517f08c379a00000000000000000000000000000000000000000000000000000000081526004016114ca90614227565b60405180910390fd5b6069600087815260200190815260200160002060030160008154809291906114fa90614823565b919050555061150b858585856126d2565b61154a576040517f08c379a000000000000000000000000000000000000000000000000000000000815260040161154190614347565b60405180910390fd5b7f94af79ab7dddd04777ef61b705862c47297c6a52c6643535059d88ff1af54df7868260405161157b9291906143c7565b60405180910390a1505050505050565b60006069600084815260200190815260200160002060020182815481106115b5576115b46148de565b5b9060005260206000200154905092915050565b6115d06126ca565b73ffffffffffffffffffffffffffffffffffffffff166115ee6117df565b73ffffffffffffffffffffffffffffffffffffffff1614611644576040517f08c379a000000000000000000000000000000000000000000000000000000000815260040161163b906141e7565b60405180910390fd5b61164e60006129c7565b565b6116586126ca565b73ffffffffffffffffffffffffffffffffffffffff166116766117df565b73ffffffffffffffffffffffffffffffffffffffff16146116cc576040517f08c379a00000000000000000000000000000000000000000000000000000000081526004016116c3906141e7565b60405180910390fd5b6000606760009054906101000a900473ffffffffffffffffffffffffffffffffffffffff16905081606760006101000a81548173ffffffffffffffffffffffffffffffffffffffff021916908373ffffffffffffffffffffffffffffffffffffffff1602179055508173ffffffffffffffffffffffffffffffffffffffff168173ffffffffffffffffffffffffffffffffffffffff167f90cc2f570a6eb594b1580ea3e41247d2d73a55281889e86bd4ec2fc29c7e62d660405160405180910390a35050565b606560009054906101000a900473ffffffffffffffffffffffffffffffffffffffff1681565b7f72e9670a7ee00f5fbf1049b8c38e3f22fab7e9b85029e85cf9412f17fdd5c2ad60001b81565b6000603360009054906101000a900473ffffffffffffffffffffffffffffffffffffffff16905090565b600060019054906101000a900460ff166118315760008054906101000a900460ff161561183a565b611839612a8d565b5b611879576040517f08c379a000000000000000000000000000000000000000000000000000000000815260040161187090614187565b60405180910390fd5b60008060019054906101000a900460ff1615905080156118c9576001600060016101000a81548160ff02191690831515021790555060016000806101000a81548160ff0219169083151502179055505b600080600080858060200190518101906118e39190613259565b93509350935093506118f3612a9e565b82606660006101000a81548173ffffffffffffffffffffffffffffffffffffffff021916908373ffffffffffffffffffffffffffffffffffffffff16021790555081606760006101000a81548173ffffffffffffffffffffffffffffffffffffffff021916908373ffffffffffffffffffffffffffffffffffffffff16021790555061197e81612af7565b6119878461239d565b8273ffffffffffffffffffffffffffffffffffffffff168473ffffffffffffffffffffffffffffffffffffffff163373ffffffffffffffffffffffffffffffffffffffff167ffb449138a79e741e04958f3e25fcf032b7c7080142fe9d7b9dc8e1935c8905e7856040516119fb9190613d4c565b60405180910390a4505050508015611a285760008060016101000a81548160ff0219169083151502179055505b5050565b600084511415611a71576040517f08c379a0000000000000000000000000000000000000000000000000000000008152600401611a6890614127565b60405180910390fd5b82518451148015611a83575081518451145b8015611a90575080518451145b611acf576040517f08c379a0000000000000000000000000000000000000000000000000000000008152600401611ac6906142e7565b60405180910390fd5b606960008681526020019081526020016000206002018054905084516069600088815260200190815260200160002060030154611b0c91906145ea565b1115611b4d576040517f08c379a0000000000000000000000000000000000000000000000000000000008152600401611b44906140c7565b60405180910390fd5b60005b8451811015611be157611bce86868381518110611b7057611b6f6148de565b5b6020026020010151868481518110611b8b57611b8a6148de565b5b6020026020010151868581518110611ba657611ba56148de565b5b6020026020010151868681518110611bc157611bc06148de565b5b60200260200101516113ca565b8080611bd990614823565b915050611b50565b507ff87dcceadfc09a0716e4b6e12b449f55c80930f97d97f0e45ddec6105c236d13606960008781526020019081526020016000206003015485516069600089815260200190815260200160002060030154611c3d91906145ea565b604051611c4b9291906143f0565b60405180910390a15050505050565b606060008267ffffffffffffffff811115611c7857611c7761490d565b5b604051908082528060200260200182016040528015611ca65781602001602082028036833780820191505090505b509150600080606a60008773ffffffffffffffffffffffffffffffffffffffff1673ffffffffffffffffffffffffffffffffffffffff16815260200190815260200160002060009054906101000a900473ffffffffffffffffffffffffffffffffffffffff1690505b600073ffffffffffffffffffffffffffffffffffffffff168173ffffffffffffffffffffffffffffffffffffffff1614158015611d795750600173ffffffffffffffffffffffffffffffffffffffff168173ffffffffffffffffffffffffffffffffffffffff1614155b8015611d8457508482105b15611e4c5780848381518110611d9d57611d9c6148de565b5b602002602001019073ffffffffffffffffffffffffffffffffffffffff16908173ffffffffffffffffffffffffffffffffffffffff1681525050606a60008273ffffffffffffffffffffffffffffffffffffffff1673ffffffffffffffffffffffffffffffffffffffff16815260200190815260200160002060009054906101000a900473ffffffffffffffffffffffffffffffffffffffff1690508180611e4490614823565b925050611d0f565b80925081845250509250929050565b6000606560009054906101000a900473ffffffffffffffffffffffffffffffffffffffff16905090565b611e8d6126ca565b73ffffffffffffffffffffffffffffffffffffffff16611eab6117df565b73ffffffffffffffffffffffffffffffffffffffff1614611f01576040517f08c379a0000000000000000000000000000000000000000000000000000000008152600401611ef8906141e7565b60405180910390fd5b60005b815181101561206557600060696000848481518110611f2657611f256148de565b5b6020026020010151815260200190815260200160002090508060020180549050816003015410611f8b576040517f08c379a0000000000000000000000000000000000000000000000000000000008152600401611f8290614107565b60405180910390fd5b600015158160000160009054906101000a900460ff16151514611fe3576040517f08c379a0000000000000000000000000000000000000000000000000000000008152600401611fda906141c7565b60405180910390fd5b60018160000160006101000a81548160ff0219169083151502179055507f789cf55be980739dad1d0699b93b58e806b51c9d96619bfa8fe0a28abaa7b30c838381518110612034576120336148de565b5b60200260200101516040516120499190614367565b60405180910390a150808061205d90614823565b915050611f04565b5050565b606760009054906101000a900473ffffffffffffffffffffffffffffffffffffffff1681565b6120976126ca565b73ffffffffffffffffffffffffffffffffffffffff166120b56117df565b73ffffffffffffffffffffffffffffffffffffffff161461210b576040517f08c379a0000000000000000000000000000000000000000000000000000000008152600401612102906141e7565b60405180910390fd5b600073ffffffffffffffffffffffffffffffffffffffff168173ffffffffffffffffffffffffffffffffffffffff1614612228578073ffffffffffffffffffffffffffffffffffffffff166301ffc9a77fe6d7a83a000000000000000000000000000000000000000000000000000000006040518263ffffffff1660e01b8152600401612198919061400f565b60206040518083038186803b1580156121b057600080fd5b505afa1580156121c4573d6000803e3d6000fd5b505050506040513d601f19601f820116820180604052508101906121e8919061354a565b612227576040517f08c379a000000000000000000000000000000000000000000000000000000000815260040161221e90614267565b60405180910390fd5b5b80606560006101000a81548173ffffffffffffffffffffffffffffffffffffffff021916908373ffffffffffffffffffffffffffffffffffffffff1602179055507f1151116914515bc0891ff9047a6cb32cf902546f83066499bcf8ba33d2353fa2606560009054906101000a900473ffffffffffffffffffffffffffffffffffffffff166040516122ba9190613d4c565b60405180910390a150565b60008173ffffffffffffffffffffffffffffffffffffffff16600173ffffffffffffffffffffffffffffffffffffffff16141580156123905750600073ffffffffffffffffffffffffffffffffffffffff16606a60008473ffffffffffffffffffffffffffffffffffffffff1673ffffffffffffffffffffffffffffffffffffffff16815260200190815260200160002060009054906101000a900473ffffffffffffffffffffffffffffffffffffffff1673ffffffffffffffffffffffffffffffffffffffff1614155b9050919050565b60685481565b6123a56126ca565b73ffffffffffffffffffffffffffffffffffffffff166123c36117df565b73ffffffffffffffffffffffffffffffffffffffff1614612419576040517f08c379a0000000000000000000000000000000000000000000000000000000008152600401612410906141e7565b60405180910390fd5b600073ffffffffffffffffffffffffffffffffffffffff168173ffffffffffffffffffffffffffffffffffffffff161415612489576040517f08c379a0000000000000000000000000000000000000000000000000000000008152600401612480906140a7565b60405180910390fd5b612492816129c7565b50565b61249e826122c5565b6124dd576040517f08c379a00000000000000000000000000000000000000000000000000000000081526004016124d490614067565b60405180910390fd5b6000835111612521576040517f08c379a0000000000000000000000000000000000000000000000000000000008152600401612518906140e7565b60405180910390fd5b82606960006068548152602001908152602001600020600201908051906020019061254d929190612ced565b508160696000606854815260200190815260200160002060040160006101000a81548173ffffffffffffffffffffffffffffffffffffffff021916908373ffffffffffffffffffffffffffffffffffffffff160217905550606860008154809291906125b890614823565b91905055508173ffffffffffffffffffffffffffffffffffffffff1663224f326360016068546125e89190614640565b85846040516020016125fc93929190614382565b6040516020818303038152906040526040518263ffffffff1660e01b8152600401612627919061402a565b600060405180830381600087803b15801561264157600080fd5b505af1158015612655573d6000803e3d6000fd5b505050507fe669ca381c47a2c25df06ebbe580c111183f1e92460fd3ab51050d2306b3402782600160685461268a9190614640565b3360405161269a93929190613d67565b60405180910390a1505050565b6000808273ffffffffffffffffffffffffffffffffffffffff163b119050919050565b600033905090565b60008073ffffffffffffffffffffffffffffffffffffffff16606560009054906101000a900473ffffffffffffffffffffffffffffffffffffffff1673ffffffffffffffffffffffffffffffffffffffff161461280457606560009054906101000a900473ffffffffffffffffffffffffffffffffffffffff1673ffffffffffffffffffffffffffffffffffffffff166375f0bb528686868660008060008060006040518060400160405280600281526020017f307800000000000000000000000000000000000000000000000000000000000081525060006040518c63ffffffff1660e01b81526004016127d19b9a99989796959493929190613dea565b600060405180830381600087803b1580156127eb57600080fd5b505af11580156127ff573d6000803e3d6000fd5b505050505b606760009054906101000a900473ffffffffffffffffffffffffffffffffffffffff1673ffffffffffffffffffffffffffffffffffffffff1663468721a7868686866040518563ffffffff1660e01b81526004016128659493929190613d9e565b602060405180830381600087803b15801561287f57600080fd5b505af1158015612893573d6000803e3d6000fd5b505050506040513d601f19601f820116820180604052508101906128b7919061354a565b9050600073ffffffffffffffffffffffffffffffffffffffff16606560009054906101000a900473ffffffffffffffffffffffffffffffffffffffff1673ffffffffffffffffffffffffffffffffffffffff16146129bf57606560009054906101000a900473ffffffffffffffffffffffffffffffffffffffff1673ffffffffffffffffffffffffffffffffffffffff1663932713687f3078000000000000000000000000000000000000000000000000000000000000836040518363ffffffff1660e01b815260040161298c929190613faf565b600060405180830381600087803b1580156129a657600080fd5b505af11580156129ba573d6000803e3d6000fd5b505050505b949350505050565b6000603360009054906101000a900473ffffffffffffffffffffffffffffffffffffffff16905081603360006101000a81548173ffffffffffffffffffffffffffffffffffffffff021916908373ffffffffffffffffffffffffffffffffffffffff1602179055508173ffffffffffffffffffffffffffffffffffffffff168173ffffffffffffffffffffffffffffffffffffffff167f8be0079c531659141344cd1fd0a4f28419497f9722a3daafe3b4186f6b6457e060405160405180910390a35050565b6000612a98306126a7565b15905090565b600060019054906101000a900460ff16612aed576040517f08c379a0000000000000000000000000000000000000000000000000000000008152600401612ae4906142c7565b60405180910390fd5b612af5612c8c565b565b600073ffffffffffffffffffffffffffffffffffffffff16606a6000600173ffffffffffffffffffffffffffffffffffffffff1673ffffffffffffffffffffffffffffffffffffffff16815260200190815260200160002060009054906101000a900473ffffffffffffffffffffffffffffffffffffffff1673ffffffffffffffffffffffffffffffffffffffff1614612bc6576040517f08c379a0000000000000000000000000000000000000000000000000000000008152600401612bbd90614287565b60405180910390fd5b6001606a6000600173ffffffffffffffffffffffffffffffffffffffff1673ffffffffffffffffffffffffffffffffffffffff16815260200190815260200160002060006101000a81548173ffffffffffffffffffffffffffffffffffffffff021916908373ffffffffffffffffffffffffffffffffffffffff16021790555060005b8151811015612c8857612c75828281518110612c6857612c676148de565b5b6020026020010151610789565b8080612c8090614823565b915050612c49565b5050565b600060019054906101000a900460ff16612cdb576040517f08c379a0000000000000000000000000000000000000000000000000000000008152600401612cd2906142c7565b60405180910390fd5b612ceb612ce66126ca565b6129c7565b565b828054828255906000526020600020908101928215612d29579160200282015b82811115612d28578251825591602001919060010190612d0d565b5b509050612d369190612d3a565b5090565b5b80821115612d53576000816000905550600101612d3b565b5090565b6000612d6a612d658461443e565b614419565b90508083825260208201905082856020860282011115612d8d57612d8c614941565b5b60005b85811015612dbd5781612da38882613057565b845260208401935060208301925050600181019050612d90565b5050509392505050565b6000612dda612dd58461443e565b614419565b90508083825260208201905082856020860282011115612dfd57612dfc614941565b5b60005b85811015612e2d5781612e13888261306c565b845260208401935060208301925050600181019050612e00565b5050509392505050565b6000612e4a612e458461446a565b614419565b90508083825260208201905082856020860282011115612e6d57612e6c614941565b5b60005b85811015612e9d5781612e8388826131bf565b845260208401935060208301925050600181019050612e70565b5050509392505050565b6000612eba612eb584614496565b614419565b90508083825260208201905082856020860282011115612edd57612edc614941565b5b60005b85811015612f2b57813567ffffffffffffffff811115612f0357612f0261493c565b5b808601612f1089826131d4565b85526020850194506020840193505050600181019050612ee0565b5050509392505050565b6000612f48612f43846144c2565b614419565b90508083825260208201905082856020860282011115612f6b57612f6a614941565b5b60005b85811015612f9b5781612f818882613202565b845260208401935060208301925050600181019050612f6e565b5050509392505050565b6000612fb8612fb3846144ee565b614419565b90508083825260208201905082856020860282011115612fdb57612fda614941565b5b60005b8581101561300b5781612ff18882613217565b845260208401935060208301925050600181019050612fde565b5050509392505050565b60006130286130238461451a565b614419565b90508281526020810184848401111561304457613043614946565b5b61304f8482856147b0565b509392505050565b60008135905061306681614f2e565b92915050565b60008151905061307b81614f2e565b92915050565b60008151905061309081614f45565b92915050565b600082601f8301126130ab576130aa61493c565b5b81356130bb848260208601612d57565b91505092915050565b600082601f8301126130d9576130d861493c565b5b81516130e9848260208601612dc7565b91505092915050565b600082601f8301126131075761310661493c565b5b8135613117848260208601612e37565b91505092915050565b600082601f8301126131355761313461493c565b5b8135613145848260208601612ea7565b91505092915050565b600082601f8301126131635761316261493c565b5b8135613173848260208601612f35565b91505092915050565b600082601f8301126131915761319061493c565b5b81356131a1848260208601612fa5565b91505092915050565b6000815190506131b981614f5c565b92915050565b6000813590506131ce81614f73565b92915050565b600082601f8301126131e9576131e861493c565b5b81356131f9848260208601613015565b91505092915050565b60008135905061321181614f8a565b92915050565b60008135905061322681614f9a565b92915050565b60006020828403121561324257613241614950565b5b600061325084828501613057565b91505092915050565b6000806000806080858703121561327357613272614950565b5b600061328187828801613081565b945050602061329287828801613081565b93505060406132a387828801613081565b925050606085015167ffffffffffffffff8111156132c4576132c361494b565b5b6132d0878288016130c4565b91505092959194509250565b600080604083850312156132f3576132f2614950565b5b600061330185828601613057565b925050602061331285828601613057565b9150509250929050565b6000806040838503121561333357613332614950565b5b600061334185828601613057565b925050602061335285828601613217565b9150509250929050565b6000806000806080858703121561337657613375614950565b5b600061338487828801613057565b945050602061339587828801613217565b935050604085013567ffffffffffffffff8111156133b6576133b561494b565b5b6133c2878288016131d4565b92505060606133d387828801613202565b91505092959194509250565b600080600080600060a086880312156133fb576133fa614950565b5b600061340988828901613057565b955050602061341a88828901613217565b945050604086013567ffffffffffffffff81111561343b5761343a61494b565b5b613447888289016131d4565b935050606061345888828901613202565b925050608061346988828901613217565b9150509295509295909350565b60008060006060848603121561348f5761348e614950565b5b600084013567ffffffffffffffff8111156134ad576134ac61494b565b5b6134b9868287016130f2565b93505060206134ca86828701613057565b925050604084013567ffffffffffffffff8111156134eb576134ea61494b565b5b6134f7868287016131d4565b9150509250925092565b60006020828403121561351757613516614950565b5b600082013567ffffffffffffffff8111156135355761353461494b565b5b6135418482850161317c565b91505092915050565b6000602082840312156135605761355f614950565b5b600061356e848285016131aa565b91505092915050565b60006020828403121561358d5761358c614950565b5b600082013567ffffffffffffffff8111156135ab576135aa61494b565b5b6135b7848285016131d4565b91505092915050565b6000602082840312156135d6576135d5614950565b5b60006135e484828501613217565b91505092915050565b600080600080600060a0868803121561360957613608614950565b5b600061361788828901613217565b955050602061362888828901613057565b945050604061363988828901613217565b935050606086013567ffffffffffffffff81111561365a5761365961494b565b5b613666888289016131d4565b925050608061367788828901613202565b9150509295509295909350565b600080600080600060a086880312156136a05761369f614950565b5b60006136ae88828901613217565b955050602086013567ffffffffffffffff8111156136cf576136ce61494b565b5b6136db88828901613096565b945050604086013567ffffffffffffffff8111156136fc576136fb61494b565b5b6137088882890161317c565b935050606086013567ffffffffffffffff8111156137295761372861494b565b5b61373588828901613120565b925050608086013567ffffffffffffffff8111156137565761375561494b565b5b6137628882890161314e565b9150509295509295909350565b6000806040838503121561378657613785614950565b5b600061379485828601613217565b92505060206137a585828601613217565b9150509250929050565b60006137bb83836137ee565b60208301905092915050565b60006137d383836138ee565b60208301905092915050565b6137e881614686565b82525050565b6137f781614674565b82525050565b61380681614674565b82525050565b60006138178261456b565b61382181856145a6565b935061382c8361454b565b8060005b8381101561385d57815161384488826137af565b975061384f8361458c565b925050600181019050613830565b5085935050505092915050565b600061387582614576565b61387f81856145b7565b935061388a8361455b565b8060005b838110156138bb5781516138a288826137c7565b97506138ad83614599565b92505060018101905061388e565b5085935050505092915050565b6138d181614698565b82525050565b6138e86138e3826146a4565b61486c565b82525050565b6138f7816146d0565b82525050565b613906816146d0565b82525050565b61391d613918826146d0565b614876565b82525050565b61392c816146da565b82525050565b600061393d82614581565b61394781856145c8565b93506139578185602086016147bf565b61396081614955565b840191505092915050565b61397481614756565b82525050565b6139838161477a565b82525050565b6139928161478c565b82525050565b6139a18161479e565b82525050565b60006139b4602b836145d9565b91506139bf82614966565b604082019050919050565b60006139d7602f836145d9565b91506139e2826149b5565b604082019050919050565b60006139fa6026836145d9565b9150613a0582614a04565b604082019050919050565b6000613a1d602b836145d9565b9150613a2882614a53565b604082019050919050565b6000613a406022836145d9565b9150613a4b82614aa2565b604082019050919050565b6000613a636011836145d9565b9150613a6e82614af1565b602082019050919050565b6000613a86602c836145d9565b9150613a9182614b1a565b604082019050919050565b6000613aa96022836145d9565b9150613ab482614b69565b604082019050919050565b6000613acc6017836145d9565b9150613ad782614bb8565b602082019050919050565b6000613aef602e836145d9565b9150613afa82614be1565b604082019050919050565b6000613b126019836145d9565b9150613b1d82614c30565b602082019050919050565b6000613b35601c836145d9565b9150613b4082614c59565b602082019050919050565b6000613b586020836145d9565b9150613b6382614c82565b602082019050919050565b6000613b7b6038836145d9565b9150613b8682614cab565b604082019050919050565b6000613b9e602c836145d9565b9150613ba982614cfa565b604082019050919050565b6000613bc16018836145d9565b9150613bcc82614d49565b602082019050919050565b6000613be46020836145d9565b9150613bef82614d72565b602082019050919050565b6000613c076024836145d9565b9150613c1282614d9b565b604082019050919050565b6000613c2a6019836145d9565b9150613c3582614dea565b602082019050919050565b6000613c4d602b836145d9565b9150613c5882614e13565b604082019050919050565b6000613c70601e836145d9565b9150613c7b82614e62565b602082019050919050565b6000613c936010836145d9565b9150613c9e82614e8b565b602082019050919050565b6000613cb6601e836145d9565b9150613cc182614eb4565b602082019050919050565b6000613cd96019836145d9565b9150613ce482614edd565b602082019050919050565b613cf88161474c565b82525050565b6000613d0a82876138d7565b600182019150613d1a82866138d7565b600182019150613d2a828561390c565b602082019150613d3a828461390c565b60208201915081905095945050505050565b6000602082019050613d6160008301846137fd565b92915050565b6000606082019050613d7c60008301866137fd565b613d896020830185613cef565b613d9660408301846137fd565b949350505050565b6000608082019050613db360008301876137fd565b613dc06020830186613cef565b8181036040830152613dd28185613932565b9050613de1606083018461397a565b95945050505050565b600061016082019050613e00600083018e6137fd565b613e0d602083018d613cef565b8181036040830152613e1f818c613932565b9050613e2e606083018b61397a565b613e3b608083018a613998565b613e4860a0830189613998565b613e5560c0830188613998565b613e6260e08301876137fd565b613e706101008301866137df565b818103610120830152613e838185613932565b9050613e936101408301846137fd565b9c9b505050505050505050505050565b60006040820190508181036000830152613ebd818561380c565b9050613ecc60208301846137fd565b9392505050565b6000602082019050613ee860008301846138c8565b92915050565b6000608082019050613f0360008301876138c8565b613f106020830186613cef565b613f1d6040830185613cef565b613f2a60608301846137fd565b95945050505050565b6000602082019050613f4860008301846138fd565b92915050565b600060c082019050613f6360008301896138fd565b613f7060208301886137fd565b613f7d6040830187613cef565b613f8a60608301866138fd565b613f97608083018561397a565b613fa460a0830184613cef565b979650505050505050565b6000604082019050613fc460008301856138fd565b613fd160208301846138c8565b9392505050565b6000606082019050613fed60008301866138fd565b613ffa6020830185613cef565b614007604083018461396b565b949350505050565b60006020820190506140246000830184613923565b92915050565b600060208201905081810360008301526140448184613932565b905092915050565b60006020820190506140616000830184613989565b92915050565b60006020820190508181036000830152614080816139a7565b9050919050565b600060208201905081810360008301526140a0816139ca565b9050919050565b600060208201905081810360008301526140c0816139ed565b9050919050565b600060208201905081810360008301526140e081613a10565b9050919050565b6000602082019050818103600083015261410081613a33565b9050919050565b6000602082019050818103600083015261412081613a56565b9050919050565b6000602082019050818103600083015261414081613a79565b9050919050565b6000602082019050818103600083015261416081613a9c565b9050919050565b6000602082019050818103600083015261418081613abf565b9050919050565b600060208201905081810360008301526141a081613ae2565b9050919050565b600060208201905081810360008301526141c081613b05565b9050919050565b600060208201905081810360008301526141e081613b28565b9050919050565b6000602082019050818103600083015261420081613b4b565b9050919050565b6000602082019050818103600083015261422081613b6e565b9050919050565b6000602082019050818103600083015261424081613b91565b9050919050565b6000602082019050818103600083015261426081613bb4565b9050919050565b6000602082019050818103600083015261428081613bd7565b9050919050565b600060208201905081810360008301526142a081613bfa565b9050919050565b600060208201905081810360008301526142c081613c1d565b9050919050565b600060208201905081810360008301526142e081613c40565b9050919050565b6000602082019050818103600083015261430081613c63565b9050919050565b6000602082019050818103600083015261432081613c86565b9050919050565b6000602082019050818103600083015261434081613ca9565b9050919050565b6000602082019050818103600083015261436081613ccc565b9050919050565b600060208201905061437c6000830184613cef565b92915050565b60006060820190506143976000830186613cef565b81810360208301526143a9818561386a565b905081810360408301526143bd8184613932565b9050949350505050565b60006040820190506143dc6000830185613cef565b6143e960208301846138fd565b9392505050565b60006040820190506144056000830185613cef565b6144126020830184613cef565b9392505050565b6000614423614434565b905061442f82826147f2565b919050565b6000604051905090565b600067ffffffffffffffff8211156144595761445861490d565b5b602082029050602081019050919050565b600067ffffffffffffffff8211156144855761448461490d565b5b602082029050602081019050919050565b600067ffffffffffffffff8211156144b1576144b061490d565b5b602082029050602081019050919050565b600067ffffffffffffffff8211156144dd576144dc61490d565b5b602082029050602081019050919050565b600067ffffffffffffffff8211156145095761450861490d565b5b602082029050602081019050919050565b600067ffffffffffffffff8211156145355761453461490d565b5b61453e82614955565b9050602081019050919050565b6000819050602082019050919050565b6000819050602082019050919050565b600081519050919050565b600081519050919050565b600081519050919050565b6000602082019050919050565b6000602082019050919050565b600082825260208201905092915050565b600082825260208201905092915050565b600082825260208201905092915050565b600082825260208201905092915050565b60006145f58261474c565b91506146008361474c565b9250827fffffffffffffffffffffffffffffffffffffffffffffffffffffffffffffffff0382111561463557614634614880565b5b828201905092915050565b600061464b8261474c565b91506146568361474c565b92508282101561466957614668614880565b5b828203905092915050565b600061467f8261472c565b9050919050565b60006146918261472c565b9050919050565b60008115159050919050565b60007fff0000000000000000000000000000000000000000000000000000000000000082169050919050565b6000819050919050565b60007fffffffff0000000000000000000000000000000000000000000000000000000082169050919050565b600081905061471482614f06565b919050565b600081905061472782614f1a565b919050565b600073ffffffffffffffffffffffffffffffffffffffff82169050919050565b6000819050919050565b600061476182614768565b9050919050565b60006147738261472c565b9050919050565b600061478582614706565b9050919050565b600061479782614719565b9050919050565b60006147a98261474c565b9050919050565b82818337600083830152505050565b60005b838110156147dd5780820151818401526020810190506147c2565b838111156147ec576000848401525b50505050565b6147fb82614955565b810181811067ffffffffffffffff8211171561481a5761481961490d565b5b80604052505050565b600061482e8261474c565b91507fffffffffffffffffffffffffffffffffffffffffffffffffffffffffffffffff82141561486157614860614880565b5b600182019050919050565b6000819050919050565b6000819050919050565b7f4e487b7100000000000000000000000000000000000000000000000000000000600052601160045260246000fd5b7f4e487b7100000000000000000000000000000000000000000000000000000000600052602160045260246000fd5b7f4e487b7100000000000000000000000000000000000000000000000000000000600052603260045260246000fd5b7f4e487b7100000000000000000000000000000000000000000000000000000000600052604160045260246000fd5b600080fd5b600080fd5b600080fd5b600080fd5b600080fd5b6000601f19601f8301169050919050565b7f766f74696e67207374726174656779206973206e6f7420656e61626c6564206660008201527f6f722070726f706f73616c000000000000000000000000000000000000000000602082015250565b7f63616e6e6f7420726563656976652073747261746567792c2070726f706f736160008201527f6c206973206e6f74206163746976650000000000000000000000000000000000602082015250565b7f4f776e61626c653a206e6577206f776e657220697320746865207a65726f206160008201527f6464726573730000000000000000000000000000000000000000000000000000602082015250565b7f617474656d7074696e6720746f206578656375746520746f6f206d616e79207460008201527f72616e73616374696f6e73000000000000000000000000000000000000000000602082015250565b7f70726f706f73616c206d75737420636f6e7461696e207472616e73616374696f60008201527f6e73000000000000000000000000000000000000000000000000000000000000602082015250565b7f6e6f7468696e6720746f2063616e63656c000000000000000000000000000000600082015250565b7f6e6f207472616e73616374696f6e7320746f206578656375746520737570706c60008201527f69656420746f2062617463680000000000000000000000000000000000000000602082015250565b7f70726f706f73616c206973206e6f7420696e20657865637574696f6e2073746160008201527f7465000000000000000000000000000000000000000000000000000000000000602082015250565b7f5374726174656779206e6f7420617574686f72697a6564000000000000000000600082015250565b7f496e697469616c697a61626c653a20636f6e747261637420697320616c72656160008201527f647920696e697469616c697a6564000000000000000000000000000000000000602082015250565b7f756e6b6e6f776e2070726f706f73616c20696420737461746500000000000000600082015250565b7f70726f706f73616c20697320616c72656164792063616e63656c656400000000600082015250565b7f4f776e61626c653a2063616c6c6572206973206e6f7420746865206f776e6572600082015250565b7f63616e6e6f7420726563656976652073747261746567792c20696e636f72726560008201527f637420737472617465677920666f722070726f706f73616c0000000000000000602082015250565b7f7472616e73616374696f6e206861736820646f6573206e6f74206d617463682060008201527f696e646578656420686173680000000000000000000000000000000000000000602082015250565b7f537472617465677920616c726561647920656e61626c65640000000000000000600082015250565b7f477561726420646f6573206e6f7420696d706c656d656e742049455243313635600082015250565b7f73657455704d6f64756c65732068617320616c7265616479206265656e20636160008201527f6c6c656400000000000000000000000000000000000000000000000000000000602082015250565b7f537472617465677920616c72656164792064697361626c656400000000000000600082015250565b7f496e697469616c697a61626c653a20636f6e7472616374206973206e6f74206960008201527f6e697469616c697a696e67000000000000000000000000000000000000000000602082015250565b7f657865637574696f6e20706172616d6574657273206d6973736d617463680000600082015250565b7f496e76616c696420737472617465677900000000000000000000000000000000600082015250565b7f6e6f20657865637574696f6e7320696e20746869732070726f706f73616c0000600082015250565b7f4d6f64756c65207472616e73616374696f6e206661696c656400000000000000600082015250565b60028110614f1757614f166148af565b5b50565b60068110614f2b57614f2a6148af565b5b50565b614f3781614674565b8114614f4257600080fd5b50565b614f4e81614686565b8114614f5957600080fd5b50565b614f6581614698565b8114614f7057600080fd5b50565b614f7c816146d0565b8114614f8757600080fd5b50565b60028110614f9757600080fd5b50565b614fa38161474c565b8114614fae57600080fd5b5056fea26469706673582212200af206adadbdee86c3ecfc171d61ca49e04cf80e9c85ff7efb36b30e15d4edf764736f6c63430008060033",
  "devdoc": {
    "author": "Nathan Ginnever - <team@hyphal.xyz>",
    "kind": "dev",
    "methods": {
      "cancelProposals(uint256[])": {
        "details": "Cancels a proposal.",
        "params": {
          "proposalIds": "array of proposals to cancel."
        }
      },
      "disableStrategy(address,address)": {
        "details": "Disables a voting strategy on the module",
        "params": {
          "prevStrategy": "Strategy that pointed to the strategy to be removed in the linked list",
          "strategy": "Strategy to be removed"
        }
      },
      "enableStrategy(address)": {
        "details": "Enables a voting strategy that can vote on proposals",
        "params": {
          "strategy": "Address of the strategy to be enabled"
        }
      },
      "executeProposalBatch(uint256,address[],uint256[],bytes[],uint8[])": {
        "details": "Executes batches of transactions inside of a proposal.",
        "params": {
          "data": "the data to be executed from the calls",
          "operations": "Calls or Delegatecalls",
          "proposalId": "the identifier of the proposal",
          "targets": "the contracts to be called by the avatar",
          "values": "ether values to pass with the calls"
        }
      },
      "executeProposalByIndex(uint256,address,uint256,bytes,uint8)": {
        "details": "Executes a transaction inside of a proposal.",
        "params": {
          "data": "the data to be executed from the call",
          "operation": "Call or Delegatecall",
          "proposalId": "the identifier of the proposal",
          "target": "the contract to be called by the avatar",
          "value": "ether value to pass with the call"
        }
      },
      "generateTransactionHashData(address,uint256,bytes,uint8,uint256)": {
        "details": "Generates the data for the module transaction hash (required for signing)"
      },
      "getStrategiesPaginated(address,uint256)": {
        "details": "Returns array of strategy.",
        "params": {
          "pageSize": "Maximum number of strategy that should be returned.",
          "start": "Start of the page."
        },
        "returns": {
          "array": "Array of strategy.",
          "next": "Start of the next page."
        }
      },
      "getTxHash(uint256,uint256)": {
        "details": "Returns the hash of a transaction in a proposal.",
        "params": {
          "index": "the transaction to inspect.",
          "proposalId": "the proposal to inspect."
        },
        "returns": {
          "_0": "transaction hash."
        }
      },
      "isStrategyEnabled(address)": {
        "details": "Returns if a strategy is enabled",
        "returns": {
          "_0": "True if the strategy is enabled"
        }
      },
      "isTxExecuted(uint256,uint256)": {
        "details": "Returns true if a proposal transaction by index is exectuted.",
        "params": {
          "index": "the transaction to inspect.",
          "proposalId": "the proposal to inspect."
        },
        "returns": {
          "_0": "boolean."
        }
      },
      "owner()": {
        "details": "Returns the address of the current owner."
      },
      "receiveStrategy(uint256,uint256)": {
        "details": "Signals a successful proposal, timelock is optional",
        "params": {
          "proposalId": "the identifier of the proposal",
          "timeLockPeriod": "the optional delay time"
        }
      },
      "renounceOwnership()": {
        "details": "Leaves the contract without owner. It will not be possible to call `onlyOwner` functions anymore. Can only be called by the current owner. NOTE: Renouncing ownership will leave the contract without an owner, thereby removing any functionality that is only available to the owner."
      },
      "setAvatar(address)": {
        "details": "Sets the avatar to a new avatar (`newAvatar`)."
      },
      "setGuard(address)": {
        "details": "Set a guard that checks transactions before execution",
        "params": {
          "_guard": "The address of the guard to be used or the 0 address to disable the guard"
        }
      },
      "setTarget(address)": {
        "details": "Sets the target to a new target (`newTarget`)."
      },
      "state(uint256)": {
        "details": "Get the state of a proposal",
        "params": {
          "proposalId": "the identifier of the proposal"
        },
        "returns": {
          "_0": "ProposalState the enum of the state of the proposal"
        }
      },
      "submitProposal(bytes32[],address,bytes)": {
        "details": "Submits a new proposal.",
        "params": {
          "data": "any extra data to pass to the strategy",
          "strategy": "the voting strategy to be used with this proposal",
          "txHashes": "an array of hashed transaction data to execute"
        }
      },
      "transferOwnership(address)": {
        "details": "Transfers ownership of the contract to a new account (`newOwner`). Can only be called by the current owner."
      }
    },
    "title": "Usul Module - A Zodiac module that enables a voting agnostic proposal mechanism.",
    "version": 1
  },
  "userdoc": {
    "kind": "user",
    "methods": {
      "disableStrategy(address,address)": {
        "notice": "This can only be called by the owner"
      },
      "enableStrategy(address)": {
        "notice": "This can only be called by the owner"
      },
      "executeProposalBatch(uint256,address[],uint256[],bytes[],uint8[])": {
        "notice": "Transactions must be called in ascending index order"
      },
      "executeProposalByIndex(uint256,address,uint256,bytes,uint8)": {
        "notice": "Transactions must be called in ascending index order"
      },
      "setAvatar(address)": {
        "notice": "Can only be called by the current owner."
      },
      "setTarget(address)": {
        "notice": "Can only be called by the current owner."
      }
    },
    "version": 1
  },
  "storageLayout": {
    "storage": [
      {
        "astId": 3500,
        "contract": "contracts/Usul.sol:Usul",
        "label": "_initialized",
        "offset": 0,
        "slot": "0",
        "type": "t_bool"
      },
      {
        "astId": 3503,
        "contract": "contracts/Usul.sol:Usul",
        "label": "_initializing",
        "offset": 1,
        "slot": "0",
        "type": "t_bool"
      },
      {
        "astId": 3851,
        "contract": "contracts/Usul.sol:Usul",
        "label": "__gap",
        "offset": 0,
        "slot": "1",
        "type": "t_array(t_uint256)50_storage"
      },
      {
        "astId": 3380,
        "contract": "contracts/Usul.sol:Usul",
        "label": "_owner",
        "offset": 0,
        "slot": "51",
        "type": "t_address"
      },
      {
        "astId": 3492,
        "contract": "contracts/Usul.sol:Usul",
        "label": "__gap",
        "offset": 0,
        "slot": "52",
        "type": "t_array(t_uint256)49_storage"
      },
      {
        "astId": 3214,
        "contract": "contracts/Usul.sol:Usul",
        "label": "guard",
        "offset": 0,
        "slot": "101",
        "type": "t_address"
      },
      {
        "astId": 2801,
        "contract": "contracts/Usul.sol:Usul",
        "label": "avatar",
        "offset": 0,
        "slot": "102",
        "type": "t_address"
      },
      {
        "astId": 2804,
        "contract": "contracts/Usul.sol:Usul",
        "label": "target",
        "offset": 0,
        "slot": "103",
        "type": "t_address"
      },
      {
        "astId": 7435,
        "contract": "contracts/Usul.sol:Usul",
        "label": "totalProposalCount",
        "offset": 0,
        "slot": "104",
        "type": "t_uint256"
      },
      {
        "astId": 7446,
        "contract": "contracts/Usul.sol:Usul",
        "label": "proposals",
        "offset": 0,
        "slot": "105",
        "type": "t_mapping(t_uint256,t_struct(Proposal)7433_storage)"
      },
      {
        "astId": 7450,
        "contract": "contracts/Usul.sol:Usul",
        "label": "strategies",
        "offset": 0,
        "slot": "106",
        "type": "t_mapping(t_address,t_address)"
      }
    ],
    "types": {
      "t_address": {
        "encoding": "inplace",
        "label": "address",
        "numberOfBytes": "20"
      },
      "t_array(t_bytes32)dyn_storage": {
        "base": "t_bytes32",
        "encoding": "dynamic_array",
        "label": "bytes32[]",
        "numberOfBytes": "32"
      },
      "t_array(t_uint256)49_storage": {
        "base": "t_uint256",
        "encoding": "inplace",
        "label": "uint256[49]",
        "numberOfBytes": "1568"
      },
      "t_array(t_uint256)50_storage": {
        "base": "t_uint256",
        "encoding": "inplace",
        "label": "uint256[50]",
        "numberOfBytes": "1600"
      },
      "t_bool": {
        "encoding": "inplace",
        "label": "bool",
        "numberOfBytes": "1"
      },
      "t_bytes32": {
        "encoding": "inplace",
        "label": "bytes32",
        "numberOfBytes": "32"
      },
      "t_mapping(t_address,t_address)": {
        "encoding": "mapping",
        "key": "t_address",
        "label": "mapping(address => address)",
        "numberOfBytes": "32",
        "value": "t_address"
      },
      "t_mapping(t_uint256,t_struct(Proposal)7433_storage)": {
        "encoding": "mapping",
        "key": "t_uint256",
        "label": "mapping(uint256 => struct Usul.Proposal)",
        "numberOfBytes": "32",
        "value": "t_struct(Proposal)7433_storage"
      },
      "t_struct(Proposal)7433_storage": {
        "encoding": "inplace",
        "label": "struct Usul.Proposal",
        "members": [
          {
            "astId": 7423,
            "contract": "contracts/Usul.sol:Usul",
            "label": "canceled",
            "offset": 0,
            "slot": "0",
            "type": "t_bool"
          },
          {
            "astId": 7425,
            "contract": "contracts/Usul.sol:Usul",
            "label": "timeLockPeriod",
            "offset": 0,
            "slot": "1",
            "type": "t_uint256"
          },
          {
            "astId": 7428,
            "contract": "contracts/Usul.sol:Usul",
            "label": "txHashes",
            "offset": 0,
            "slot": "2",
            "type": "t_array(t_bytes32)dyn_storage"
          },
          {
            "astId": 7430,
            "contract": "contracts/Usul.sol:Usul",
            "label": "executionCounter",
            "offset": 0,
            "slot": "3",
            "type": "t_uint256"
          },
          {
            "astId": 7432,
            "contract": "contracts/Usul.sol:Usul",
            "label": "strategy",
            "offset": 0,
            "slot": "4",
            "type": "t_address"
          }
        ],
        "numberOfBytes": "160"
      },
      "t_uint256": {
        "encoding": "inplace",
        "label": "uint256",
        "numberOfBytes": "32"
      }
    }
  }
}