{
  "address": "0x60B775bBC5ffE68D669548E3630DfaA13C93caB5",
  "abi": [
    {
      "inputs": [
        {
          "internalType": "address",
          "name": "_owner",
          "type": "address"
        },
        {
          "internalType": "contract ERC20Votes",
          "name": "_governanceToken",
          "type": "address"
        },
        {
          "internalType": "address",
          "name": "_UsulModule",
          "type": "address"
        },
        {
          "internalType": "uint256",
          "name": "_votingPeriod",
          "type": "uint256"
        },
        {
          "internalType": "uint256",
          "name": "quorumNumerator_",
          "type": "uint256"
        },
        {
          "internalType": "uint256",
          "name": "_timeLockPeriod",
          "type": "uint256"
        },
        {
          "internalType": "string",
          "name": "name_",
          "type": "string"
        },
        {
          "internalType": "address[]",
          "name": "_members",
          "type": "address[]"
        }
      ],
      "stateMutability": "nonpayable",
      "type": "constructor"
    },
    {
      "anonymous": false,
      "inputs": [
        {
          "indexed": false,
          "internalType": "address",
          "name": "member",
          "type": "address"
        }
      ],
      "name": "MemberAdded",
      "type": "event"
    },
    {
      "anonymous": false,
      "inputs": [
        {
          "indexed": false,
          "internalType": "address",
          "name": "member",
          "type": "address"
        }
      ],
      "name": "MemberRemoved",
      "type": "event"
    },
    {
      "anonymous": false,
      "inputs": [
        {
          "indexed": true,
          "internalType": "address",
          "name": "previousOwner",
          "type": "address"
        },
        {
          "indexed": true,
          "internalType": "address",
          "name": "newOwner",
          "type": "address"
        }
      ],
      "name": "OwnershipTransferred",
      "type": "event"
    },
    {
      "anonymous": false,
      "inputs": [
        {
          "indexed": false,
          "internalType": "uint256",
          "name": "proposalId",
          "type": "uint256"
        },
        {
          "indexed": false,
          "internalType": "uint256",
          "name": "timestamp",
          "type": "uint256"
        }
      ],
      "name": "ProposalReceived",
      "type": "event"
    },
    {
      "anonymous": false,
      "inputs": [
        {
          "indexed": false,
          "internalType": "uint256",
          "name": "oldQuorumNumerator",
          "type": "uint256"
        },
        {
          "indexed": false,
          "internalType": "uint256",
          "name": "newQuorumNumerator",
          "type": "uint256"
        }
      ],
      "name": "QuorumNumeratorUpdated",
      "type": "event"
    },
    {
      "anonymous": false,
      "inputs": [
        {
          "indexed": true,
          "internalType": "address",
          "name": "UsulModule",
          "type": "address"
        },
        {
          "indexed": true,
          "internalType": "address",
          "name": "owner",
          "type": "address"
        }
      ],
      "name": "StrategySetup",
      "type": "event"
    },
    {
      "anonymous": false,
      "inputs": [
        {
          "indexed": false,
          "internalType": "uint256",
          "name": "previousTimeLock",
          "type": "uint256"
        },
        {
          "indexed": false,
          "internalType": "uint256",
          "name": "newTimeLockPeriod",
          "type": "uint256"
        }
      ],
      "name": "TimeLockUpdated",
      "type": "event"
    },
    {
      "anonymous": false,
      "inputs": [
        {
          "indexed": true,
          "internalType": "address",
          "name": "previousUsul",
          "type": "address"
        },
        {
          "indexed": true,
          "internalType": "address",
          "name": "newUsul",
          "type": "address"
        }
      ],
      "name": "UsulSet",
      "type": "event"
    },
    {
      "anonymous": false,
      "inputs": [
        {
          "indexed": false,
          "internalType": "uint256",
          "name": "proposalId",
          "type": "uint256"
        },
        {
          "indexed": false,
          "internalType": "uint256",
          "name": "timestamp",
          "type": "uint256"
        }
      ],
      "name": "VoteFinalized",
      "type": "event"
    },
    {
      "anonymous": false,
      "inputs": [
        {
          "indexed": false,
          "internalType": "address",
          "name": "voter",
          "type": "address"
        },
        {
          "indexed": false,
          "internalType": "uint256",
          "name": "proposalId",
          "type": "uint256"
        },
        {
          "indexed": false,
          "internalType": "uint8",
          "name": "support",
          "type": "uint8"
        },
        {
          "indexed": false,
          "internalType": "uint256",
          "name": "weight",
          "type": "uint256"
        }
      ],
      "name": "Voted",
      "type": "event"
    },
    {
      "anonymous": false,
      "inputs": [
        {
          "indexed": false,
          "internalType": "uint256",
          "name": "previousVotingPeriod",
          "type": "uint256"
        },
        {
          "indexed": false,
          "internalType": "uint256",
          "name": "newVotingPeriod",
          "type": "uint256"
        }
      ],
      "name": "VotingPeriodUpdated",
      "type": "event"
    },
    {
      "inputs": [],
      "name": "UsulModule",
      "outputs": [
        {
          "internalType": "address",
          "name": "",
          "type": "address"
        }
      ],
      "stateMutability": "view",
      "type": "function"
    },
    {
      "inputs": [],
      "name": "VOTE_TYPEHASH",
      "outputs": [
        {
          "internalType": "bytes32",
          "name": "",
          "type": "bytes32"
        }
      ],
      "stateMutability": "view",
      "type": "function"
    },
    {
      "inputs": [
        {
          "internalType": "address",
          "name": "member",
          "type": "address"
        }
      ],
      "name": "addMember",
      "outputs": [],
      "stateMutability": "nonpayable",
      "type": "function"
    },
    {
      "inputs": [
        {
          "internalType": "address",
          "name": "voter",
          "type": "address"
        },
        {
          "internalType": "uint256",
          "name": "proposalId",
          "type": "uint256"
        }
      ],
      "name": "calculateWeight",
      "outputs": [
        {
          "internalType": "uint256",
          "name": "",
          "type": "uint256"
        }
      ],
      "stateMutability": "view",
      "type": "function"
    },
    {
      "inputs": [
        {
          "internalType": "uint256",
          "name": "proposalId",
          "type": "uint256"
        }
      ],
      "name": "finalizeStrategy",
      "outputs": [],
      "stateMutability": "nonpayable",
      "type": "function"
    },
    {
      "inputs": [],
      "name": "governanceToken",
      "outputs": [
        {
          "internalType": "contract ERC20Votes",
          "name": "",
          "type": "address"
        }
      ],
      "stateMutability": "view",
      "type": "function"
    },
    {
      "inputs": [
        {
          "internalType": "uint256",
          "name": "proposalId",
          "type": "uint256"
        },
        {
          "internalType": "address",
          "name": "account",
          "type": "address"
        }
      ],
      "name": "hasVoted",
      "outputs": [
        {
          "internalType": "bool",
          "name": "",
          "type": "bool"
        }
      ],
      "stateMutability": "view",
      "type": "function"
    },
    {
      "inputs": [
        {
          "internalType": "uint256",
          "name": "proposalId",
          "type": "uint256"
        }
      ],
      "name": "isPassed",
      "outputs": [
        {
          "internalType": "bool",
          "name": "",
          "type": "bool"
        }
      ],
      "stateMutability": "view",
      "type": "function"
    },
    {
      "inputs": [],
      "name": "memberCount",
      "outputs": [
        {
          "internalType": "uint256",
          "name": "",
          "type": "uint256"
        }
      ],
      "stateMutability": "view",
      "type": "function"
    },
    {
      "inputs": [
        {
          "internalType": "address",
          "name": "",
          "type": "address"
        }
      ],
      "name": "members",
      "outputs": [
        {
          "internalType": "bool",
          "name": "",
          "type": "bool"
        }
      ],
      "stateMutability": "view",
      "type": "function"
    },
    {
      "inputs": [],
      "name": "name",
      "outputs": [
        {
          "internalType": "string",
          "name": "",
          "type": "string"
        }
      ],
      "stateMutability": "view",
      "type": "function"
    },
    {
      "inputs": [],
      "name": "owner",
      "outputs": [
        {
          "internalType": "address",
          "name": "",
          "type": "address"
        }
      ],
      "stateMutability": "view",
      "type": "function"
    },
    {
      "inputs": [
        {
          "internalType": "uint256",
          "name": "",
          "type": "uint256"
        }
      ],
      "name": "proposals",
      "outputs": [
        {
          "internalType": "uint256",
          "name": "yesVotes",
          "type": "uint256"
        },
        {
          "internalType": "uint256",
          "name": "noVotes",
          "type": "uint256"
        },
        {
          "internalType": "uint256",
          "name": "abstainVotes",
          "type": "uint256"
        },
        {
          "internalType": "uint256",
          "name": "deadline",
          "type": "uint256"
        },
        {
          "internalType": "uint256",
          "name": "startBlock",
          "type": "uint256"
        }
      ],
      "stateMutability": "view",
      "type": "function"
    },
    {
      "inputs": [
        {
          "internalType": "uint256",
          "name": "blockNumber",
          "type": "uint256"
        }
      ],
      "name": "quorum",
      "outputs": [
        {
          "internalType": "uint256",
          "name": "",
          "type": "uint256"
        }
      ],
      "stateMutability": "view",
      "type": "function"
    },
    {
      "inputs": [],
      "name": "quorumDenominator",
      "outputs": [
        {
          "internalType": "uint256",
          "name": "",
          "type": "uint256"
        }
      ],
      "stateMutability": "pure",
      "type": "function"
    },
    {
      "inputs": [],
      "name": "quorumNumerator",
      "outputs": [
        {
          "internalType": "uint256",
          "name": "",
          "type": "uint256"
        }
      ],
      "stateMutability": "view",
      "type": "function"
    },
    {
      "inputs": [
        {
          "internalType": "bytes",
          "name": "data",
          "type": "bytes"
        }
      ],
      "name": "receiveProposal",
      "outputs": [],
      "stateMutability": "nonpayable",
      "type": "function"
    },
    {
      "inputs": [
        {
          "internalType": "address",
          "name": "member",
          "type": "address"
        }
      ],
      "name": "removeMember",
      "outputs": [],
      "stateMutability": "nonpayable",
      "type": "function"
    },
    {
      "inputs": [],
      "name": "renounceOwnership",
      "outputs": [],
      "stateMutability": "nonpayable",
      "type": "function"
    },
    {
      "inputs": [
        {
          "internalType": "bytes",
          "name": "initParams",
          "type": "bytes"
        }
      ],
      "name": "setUp",
      "outputs": [],
      "stateMutability": "nonpayable",
      "type": "function"
    },
    {
      "inputs": [
        {
          "internalType": "address",
          "name": "_Usul",
          "type": "address"
        }
      ],
      "name": "setUsul",
      "outputs": [],
      "stateMutability": "nonpayable",
      "type": "function"
    },
    {
      "inputs": [],
      "name": "timeLockPeriod",
      "outputs": [
        {
          "internalType": "uint256",
          "name": "",
          "type": "uint256"
        }
      ],
      "stateMutability": "view",
      "type": "function"
    },
    {
      "inputs": [
        {
          "internalType": "address",
          "name": "newOwner",
          "type": "address"
        }
      ],
      "name": "transferOwnership",
      "outputs": [],
      "stateMutability": "nonpayable",
      "type": "function"
    },
    {
      "inputs": [
        {
          "internalType": "uint256",
          "name": "newQuorumNumerator",
          "type": "uint256"
        }
      ],
      "name": "updateQuorumNumerator",
      "outputs": [],
      "stateMutability": "nonpayable",
      "type": "function"
    },
    {
      "inputs": [
        {
          "internalType": "uint256",
          "name": "newTimeLockPeriod",
          "type": "uint256"
        }
      ],
      "name": "updateTimeLockPeriod",
      "outputs": [],
      "stateMutability": "nonpayable",
      "type": "function"
    },
    {
      "inputs": [
        {
          "internalType": "uint256",
          "name": "newPeriod",
          "type": "uint256"
        }
      ],
      "name": "updateVotingPeriod",
      "outputs": [],
      "stateMutability": "nonpayable",
      "type": "function"
    },
    {
      "inputs": [],
      "name": "version",
      "outputs": [
        {
          "internalType": "string",
          "name": "",
          "type": "string"
        }
      ],
      "stateMutability": "view",
      "type": "function"
    },
    {
      "inputs": [
        {
          "internalType": "uint256",
          "name": "proposalId",
          "type": "uint256"
        },
        {
          "internalType": "uint8",
          "name": "support",
          "type": "uint8"
        },
        {
          "internalType": "bytes",
          "name": "",
          "type": "bytes"
        }
      ],
      "name": "vote",
      "outputs": [],
      "stateMutability": "nonpayable",
      "type": "function"
    },
    {
      "inputs": [
        {
          "internalType": "uint256",
          "name": "proposalId",
          "type": "uint256"
        },
        {
          "internalType": "uint8",
          "name": "support",
          "type": "uint8"
        },
        {
          "internalType": "bytes",
          "name": "signature",
          "type": "bytes"
        },
        {
          "internalType": "bytes",
          "name": "",
          "type": "bytes"
        }
      ],
      "name": "voteSignature",
      "outputs": [],
      "stateMutability": "nonpayable",
      "type": "function"
    },
    {
      "inputs": [],
      "name": "votingPeriod",
      "outputs": [
        {
          "internalType": "uint256",
          "name": "",
          "type": "uint256"
        }
      ],
      "stateMutability": "view",
      "type": "function"
    }
  ],
  "transactionHash": "0x04c38081a73cd68f9d8e6bbf33075a0ccc56624576d31b682d115f4f8d1953e0",
  "args": [
    "0x0000000000000000000000000000000000000001",
    "0x0000000000000000000000000000000000000001",
    "0x0000000000000000000000000000000000000001",
    2,
    1,
    1,
    "SimpleMemberVoting",
    [
      "0x0000000000000000000000000000000000000001"
    ]
  ],
  "solcInputHash": "edce3d662e76b3807939966d8c7d0c2f",
  "bytecode": "0x60806040523480156200001157600080fd5b50604051620056b3380380620056b3833981810160405281019062000037919062000e78565b600088888888888888886040516020016200005a989796959493929190620011dd565b60405160208183030381529060405290506200007c816200008b60201b60201c565b505050505050505050620019cc565b600060019054906101000a900460ff16620000b55760008054906101000a900460ff1615620000c6565b620000c56200043660201b60201c565b5b62000108576040517f08c379a0000000000000000000000000000000000000000000000000000000008152600401620000ff9062001301565b60405180910390fd5b60008060019054906101000a900460ff16159050801562000159576001600060016101000a81548160ff02191690831515021790555060016000806101000a81548160ff0219169083151502179055505b600080600080600080600080898060200190518101906200017b919062000d71565b9750975097509750975097509750975060018511620001d1576040517f08c379a0000000000000000000000000000000000000000000000000000000008152600401620001c89062001279565b60405180910390fd5b600073ffffffffffffffffffffffffffffffffffffffff168773ffffffffffffffffffffffffffffffffffffffff16141562000244576040517f08c379a00000000000000000000000000000000000000000000000000000000081526004016200023b906200129b565b60405180910390fd5b620002546200045460201b60201c565b60005b8151811015620002a5576200028f8282815181106200027b576200027a620016d6565b5b6020026020010151620004b860201b60201c565b80806200029c906200162a565b91505062000257565b508660a160006101000a81548173ffffffffffffffffffffffffffffffffffffffff021916908373ffffffffffffffffffffffffffffffffffffffff1602179055506200030882620002fc6200068b60201b60201c565b620006c860201b60201c565b62000319846200074660201b60201c565b6200032a88620007e960201b60201c565b60018562000339919062001499565b609a8190555085606560006101000a81548173ffffffffffffffffffffffffffffffffffffffff021916908373ffffffffffffffffffffffffffffffffffffffff1602179055506001836200038f919062001499565b609b8190555081609c9080519060200190620003ad92919062000b39565b508773ffffffffffffffffffffffffffffffffffffffff168673ffffffffffffffffffffffffffffffffffffffff167f61586574b8b0edca97136ad4cb664eec4742d53de53403d531506632e6342a3960405160405180910390a350505050505050508015620004325760008060016101000a81548160ff0219169083151502179055505b5050565b60006200044e30620008ff60201b620019b51760201c565b15905090565b600060019054906101000a900460ff16620004a6576040517f08c379a00000000000000000000000000000000000000000000000000000000081526004016200049d9062001367565b60405180910390fd5b620004b66200092260201b60201c565b565b620004c86200099660201b60201c565b73ffffffffffffffffffffffffffffffffffffffff16620004ee6200099e60201b60201c565b73ffffffffffffffffffffffffffffffffffffffff161462000547576040517f08c379a00000000000000000000000000000000000000000000000000000000081526004016200053e9062001323565b60405180910390fd5b60001515609f60008373ffffffffffffffffffffffffffffffffffffffff1673ffffffffffffffffffffffffffffffffffffffff16815260200190815260200160002060009054906101000a900460ff16151514620005dd576040517f08c379a0000000000000000000000000000000000000000000000000000000008152600401620005d490620012df565b60405180910390fd5b6001609f60008373ffffffffffffffffffffffffffffffffffffffff1673ffffffffffffffffffffffffffffffffffffffff16815260200190815260200160002060006101000a81548160ff021916908315150217905550609e60008154809291906200064a906200162a565b91905055507fb251eb052afc73ffd02ffe85ad79990a8b3fed60d76dbc2fa2fdd7123dffd91481604051620006809190620011c0565b60405180910390a150565b60606040518060400160405280600181526020017f3100000000000000000000000000000000000000000000000000000000000000815250905090565b600060019054906101000a900460ff166200071a576040517f08c379a0000000000000000000000000000000000000000000000000000000008152600401620007119062001367565b60405180910390fd5b600082805190602001209050600082805190602001209050816066819055508060678190555050505050565b620007566200099660201b60201c565b73ffffffffffffffffffffffffffffffffffffffff166200077c6200099e60201b60201c565b73ffffffffffffffffffffffffffffffffffffffff1614620007d5576040517f08c379a0000000000000000000000000000000000000000000000000000000008152600401620007cc9062001323565b60405180910390fd5b620007e681620009c860201b60201c565b50565b620007f96200099660201b60201c565b73ffffffffffffffffffffffffffffffffffffffff166200081f6200099e60201b60201c565b73ffffffffffffffffffffffffffffffffffffffff161462000878576040517f08c379a00000000000000000000000000000000000000000000000000000000081526004016200086f9062001323565b60405180910390fd5b600073ffffffffffffffffffffffffffffffffffffffff168173ffffffffffffffffffffffffffffffffffffffff161415620008eb576040517f08c379a0000000000000000000000000000000000000000000000000000000008152600401620008e290620012bd565b60405180910390fd5b620008fc8162000a6a60201b60201c565b50565b6000808273ffffffffffffffffffffffffffffffffffffffff163b119050919050565b600060019054906101000a900460ff1662000974576040517f08c379a00000000000000000000000000000000000000000000000000000000081526004016200096b9062001367565b60405180910390fd5b62000994620009886200099660201b60201c565b62000a6a60201b60201c565b565b600033905090565b6000603360009054906101000a900473ffffffffffffffffffffffffffffffffffffffff16905090565b620009d862000b3060201b60201c565b81111562000a1d576040517f08c379a000000000000000000000000000000000000000000000000000000000815260040162000a149062001345565b60405180910390fd5b600060a05490508160a0819055507f0553476bf02ef2726e8ce5ced78d63e26e602e4a2257b1f559418e24b4633997818360405162000a5e92919062001389565b60405180910390a15050565b6000603360009054906101000a900473ffffffffffffffffffffffffffffffffffffffff16905081603360006101000a81548173ffffffffffffffffffffffffffffffffffffffff021916908373ffffffffffffffffffffffffffffffffffffffff1602179055508173ffffffffffffffffffffffffffffffffffffffff168173ffffffffffffffffffffffffffffffffffffffff167f8be0079c531659141344cd1fd0a4f28419497f9722a3daafe3b4186f6b6457e060405160405180910390a35050565b60006064905090565b82805462000b4790620015be565b90600052602060002090601f01602090048101928262000b6b576000855562000bb7565b82601f1062000b8657805160ff191683800117855562000bb7565b8280016001018555821562000bb7579182015b8281111562000bb657825182559160200191906001019062000b99565b5b50905062000bc6919062000bca565b5090565b5b8082111562000be557600081600090555060010162000bcb565b5090565b600062000c0062000bfa84620013df565b620013b6565b9050808382526020820190508285602086028201111562000c265762000c2562001739565b5b60005b8581101562000c5a578162000c3f888262000caf565b84526020840193506020830192505060018101905062000c29565b5050509392505050565b600062000c7b62000c75846200140e565b620013b6565b90508281526020810184848401111562000c9a5762000c996200173e565b5b62000ca784828562001588565b509392505050565b60008151905062000cc08162001964565b92915050565b60008151905062000cd7816200197e565b92915050565b600082601f83011262000cf55762000cf462001734565b5b815162000d0784826020860162000be9565b91505092915050565b60008151905062000d218162001998565b92915050565b600082601f83011262000d3f5762000d3e62001734565b5b815162000d5184826020860162000c64565b91505092915050565b60008151905062000d6b81620019b2565b92915050565b600080600080600080600080610100898b03121562000d955762000d9462001748565b5b600062000da58b828c0162000cc6565b985050602062000db88b828c0162000d10565b975050604062000dcb8b828c0162000cc6565b965050606062000dde8b828c0162000d5a565b955050608062000df18b828c0162000d5a565b94505060a062000e048b828c0162000d5a565b93505060c089015167ffffffffffffffff81111562000e285762000e2762001743565b5b62000e368b828c0162000d27565b92505060e089015167ffffffffffffffff81111562000e5a5762000e5962001743565b5b62000e688b828c0162000cdd565b9150509295985092959890939650565b600080600080600080600080610100898b03121562000e9c5762000e9b62001748565b5b600062000eac8b828c0162000caf565b985050602062000ebf8b828c0162000d10565b975050604062000ed28b828c0162000caf565b965050606062000ee58b828c0162000d5a565b955050608062000ef88b828c0162000d5a565b94505060a062000f0b8b828c0162000d5a565b93505060c089015167ffffffffffffffff81111562000f2f5762000f2e62001743565b5b62000f3d8b828c0162000d27565b92505060e089015167ffffffffffffffff81111562000f615762000f6062001743565b5b62000f6f8b828c0162000cdd565b9150509295985092959890939650565b600062000f8d838362000f99565b60208301905092915050565b62000fa481620014fa565b82525050565b62000fb581620014fa565b82525050565b600062000fc88262001454565b62000fd4818562001477565b935062000fe18362001444565b8060005b838110156200101857815162000ffc888262000f7f565b975062001009836200146a565b92505060018101905062000fe5565b5085935050505092915050565b620010308162001560565b82525050565b600062001043826200145f565b6200104f818562001488565b93506200106181856020860162001588565b6200106c816200174d565b840191505092915050565b60006200108660238362001488565b915062001093826200175e565b604082019050919050565b6000620010ad60208362001488565b9150620010ba82620017ad565b602082019050919050565b6000620010d460268362001488565b9150620010e182620017d6565b604082019050919050565b6000620010fb601c8362001488565b9150620011088262001825565b602082019050919050565b600062001122602e8362001488565b91506200112f826200184e565b604082019050919050565b60006200114960208362001488565b915062001156826200189d565b602082019050919050565b60006200117060268362001488565b91506200117d82620018c6565b604082019050919050565b600062001197602b8362001488565b9150620011a48262001915565b604082019050919050565b620011ba8162001556565b82525050565b6000602082019050620011d7600083018462000faa565b92915050565b600061010082019050620011f5600083018b62000faa565b62001204602083018a62001025565b62001213604083018962000faa565b620012226060830188620011af565b620012316080830187620011af565b6200124060a0830186620011af565b81810360c083015262001254818562001036565b905081810360e08301526200126a818462000fbb565b90509998505050505050505050565b60006020820190508181036000830152620012948162001077565b9050919050565b60006020820190508181036000830152620012b6816200109e565b9050919050565b60006020820190508181036000830152620012d881620010c5565b9050919050565b60006020820190508181036000830152620012fa81620010ec565b9050919050565b600060208201905081810360008301526200131c8162001113565b9050919050565b600060208201905081810360008301526200133e816200113a565b9050919050565b60006020820190508181036000830152620013608162001161565b9050919050565b60006020820190508181036000830152620013828162001188565b9050919050565b6000604082019050620013a06000830185620011af565b620013af6020830184620011af565b9392505050565b6000620013c2620013d5565b9050620013d08282620015f4565b919050565b6000604051905090565b600067ffffffffffffffff821115620013fd57620013fc62001705565b5b602082029050602081019050919050565b600067ffffffffffffffff8211156200142c576200142b62001705565b5b62001437826200174d565b9050602081019050919050565b6000819050602082019050919050565b600081519050919050565b600081519050919050565b6000602082019050919050565b600082825260208201905092915050565b600082825260208201905092915050565b6000620014a68262001556565b9150620014b38362001556565b9250817fffffffffffffffffffffffffffffffffffffffffffffffffffffffffffffffff0483118215151615620014ef57620014ee62001678565b5b828202905092915050565b6000620015078262001536565b9050919050565b60006200151b8262001536565b9050919050565b60006200152f82620014fa565b9050919050565b600073ffffffffffffffffffffffffffffffffffffffff82169050919050565b6000819050919050565b60006200156d8262001574565b9050919050565b6000620015818262001536565b9050919050565b60005b83811015620015a85780820151818401526020810190506200158b565b83811115620015b8576000848401525b50505050565b60006002820490506001821680620015d757607f821691505b60208210811415620015ee57620015ed620016a7565b5b50919050565b620015ff826200174d565b810181811067ffffffffffffffff8211171562001621576200162062001705565b5b80604052505050565b6000620016378262001556565b91507fffffffffffffffffffffffffffffffffffffffffffffffffffffffffffffffff8214156200166d576200166c62001678565b5b600182019050919050565b7f4e487b7100000000000000000000000000000000000000000000000000000000600052601160045260246000fd5b7f4e487b7100000000000000000000000000000000000000000000000000000000600052602260045260246000fd5b7f4e487b7100000000000000000000000000000000000000000000000000000000600052603260045260246000fd5b7f4e487b7100000000000000000000000000000000000000000000000000000000600052604160045260246000fd5b600080fd5b600080fd5b600080fd5b600080fd5b600080fd5b6000601f19601f8301169050919050565b7f766f74696e67506572696f64206d75737420626520677265617465722074686160008201527f6e20310000000000000000000000000000000000000000000000000000000000602082015250565b7f696e76616c696420676f7665726e616e636520746f6b656e2061646472657373600082015250565b7f4f776e61626c653a206e6577206f776e657220697320746865207a65726f206160008201527f6464726573730000000000000000000000000000000000000000000000000000602082015250565b7f6d656d62657220697320616c7265616479207265676973746572656400000000600082015250565b7f496e697469616c697a61626c653a20636f6e747261637420697320616c72656160008201527f647920696e697469616c697a6564000000000000000000000000000000000000602082015250565b7f4f776e61626c653a2063616c6c6572206973206e6f7420746865206f776e6572600082015250565b7f71756f72756d4e756d657261746f72206f7665722071756f72756d44656e6f6d60008201527f696e61746f720000000000000000000000000000000000000000000000000000602082015250565b7f496e697469616c697a61626c653a20636f6e7472616374206973206e6f74206960008201527f6e697469616c697a696e67000000000000000000000000000000000000000000602082015250565b6200196f81620014fa565b81146200197b57600080fd5b50565b62001989816200150e565b81146200199557600080fd5b50565b620019a38162001522565b8114620019af57600080fd5b50565b620019bd8162001556565b8114620019c957600080fd5b50565b613cd780620019dc6000396000f3fe608060405234801561001057600080fd5b50600436106101da5760003560e01c806379bfb08911610104578063a8a829c1116100a2578063ef00ef4311610071578063ef00ef4314610521578063f2fde38b1461053d578063f8ce560a14610559578063f96dae0a14610589576101da565b8063a8a829c11461049d578063bf1b5efd146104b9578063ca6d56dc146104d5578063d69be91c146104f1576101da565b80638da5cb5b116100de5780638da5cb5b1461042757806397c3d33414610445578063a4f9edbf14610463578063a7713a701461047f576101da565b806379bfb089146103d15780637a3ff4d2146103ed5780638652297314610409576101da565b80631f2c562e1161017c57806354fd4d501161014b57806354fd4d501461036d578063715018a61461038b578063747691df1461039557806378446bc1146103b3576101da565b80631f2c562e146102d5578063224f3263146102f1578063438596321461030d578063494031831461033d576101da565b806306fdde03116101b857806306fdde031461024d57806308ae4b0c1461026b5780630b1ca49a1461029b57806311aee380146102b7576101da565b8063013cf08b146101df57806302a251a31461021357806306f3f9e614610231575b600080fd5b6101f960048036038101906101f49190612823565b6105a7565b60405161020a95949392919061325d565b60405180910390f35b61021b6105dd565b6040516102289190613219565b60405180910390f35b61024b60048036038101906102469190612823565b6105e3565b005b61025561066b565b6040516102629190612f57565b60405180910390f35b6102856004803603810190610280919061267f565b6106f9565b6040516102929190612e37565b60405180910390f35b6102b560048036038101906102b0919061267f565b610719565b005b6102bf6108d2565b6040516102cc9190613219565b60405180910390f35b6102ef60048036038101906102ea919061292c565b6108d8565b005b61030b600480360381019061030691906127da565b61094a565b005b6103276004803603810190610322919061287d565b610a72565b6040516103349190612e37565b60405180910390f35b61035760048036038101906103529190612823565b610add565b6040516103649190612e37565b60405180910390f35b610375610c46565b6040516103829190612f57565b60405180910390f35b610393610c83565b005b61039d610d0b565b6040516103aa9190612dae565b60405180910390f35b6103bb610d31565b6040516103c89190613219565b60405180910390f35b6103eb60048036038101906103e69190612823565b610d37565b005b61040760048036038101906104029190612823565b610e13565b005b610411610eda565b60405161041e9190612e52565b60405180910390f35b61042f610efe565b60405161043c9190612dae565b60405180910390f35b61044d610f28565b60405161045a9190613219565b60405180910390f35b61047d600480360381019061047891906127da565b610f31565b005b610487611288565b6040516104949190613219565b60405180910390f35b6104b760048036038101906104b2919061267f565b611292565b005b6104d360048036038101906104ce91906128bd565b6113d4565b005b6104ef60048036038101906104ea919061267f565b6113e4565b005b61050b6004803603810190610506919061279a565b61159d565b6040516105189190613219565b60405180910390f35b61053b60048036038101906105369190612823565b6116f8565b005b6105576004803603810190610552919061267f565b6117bf565b005b610573600480360381019061056e9190612823565b6118b7565b6040516105809190613219565b60405180910390f35b61059161198f565b60405161059e9190612f3c565b60405180910390f35b609d6020528060005260406000206000915090508060000154908060010154908060020154908060030154908060040154905085565b609a5481565b6105eb6119d8565b73ffffffffffffffffffffffffffffffffffffffff16610609610efe565b73ffffffffffffffffffffffffffffffffffffffff161461065f576040517f08c379a000000000000000000000000000000000000000000000000000000000815260040161065690613139565b60405180910390fd5b610668816119e0565b50565b609c80546106789061357e565b80601f01602080910402602001604051908101604052809291908181526020018280546106a49061357e565b80156106f15780601f106106c6576101008083540402835291602001916106f1565b820191906000526020600020905b8154815290600101906020018083116106d457829003601f168201915b505050505081565b609f6020528060005260406000206000915054906101000a900460ff1681565b6107216119d8565b73ffffffffffffffffffffffffffffffffffffffff1661073f610efe565b73ffffffffffffffffffffffffffffffffffffffff1614610795576040517f08c379a000000000000000000000000000000000000000000000000000000000815260040161078c90613139565b60405180910390fd5b60011515609f60008373ffffffffffffffffffffffffffffffffffffffff1673ffffffffffffffffffffffffffffffffffffffff16815260200190815260200160002060009054906101000a900460ff16151514610828576040517f08c379a000000000000000000000000000000000000000000000000000000000815260040161081f906131b9565b60405180910390fd5b6000609f60008373ffffffffffffffffffffffffffffffffffffffff1673ffffffffffffffffffffffffffffffffffffffff16815260200190815260200160002060006101000a81548160ff021916908315150217905550609e600081548092919061089390613554565b91905055507f6e76fb4c77256006d9c38ec7d82b45a8c8f3c27b1d6766fffc42dfb8de684492816040516108c79190612dae565b60405180910390a150565b609e5481565b60006109366109307fb780761e36898d7ec1cc0fb66fdd6a8a42e635ee643709d6b20652c68a3b29f5878760405160200161091593929190612ec0565b60405160208183030381529060405280519060200120611a75565b84611a8f565b9050610943858286611ab6565b5050505050565b606560009054906101000a900473ffffffffffffffffffffffffffffffffffffffff1673ffffffffffffffffffffffffffffffffffffffff163373ffffffffffffffffffffffffffffffffffffffff16146109da576040517f08c379a00000000000000000000000000000000000000000000000000000000081526004016109d190613119565b60405180910390fd5b6000818060200190518101906109f09190612850565b905042609a54610a00919061338a565b609d60008381526020019081526020016000206003018190555043609d6000838152602001908152602001600020600401819055507f3aeda78f6230a590817748b94b63d690cec4d1a15d494dfc7006e0a39e77f81a8142604051610a66929190613234565b60405180910390a15050565b6000609d600084815260200190815260200160002060050160008373ffffffffffffffffffffffffffffffffffffffff1673ffffffffffffffffffffffffffffffffffffffff16815260200190815260200160002060009054906101000a900460ff16905092915050565b6000609d600083815260200190815260200160002060010154609d60008481526020019081526020016000206000015411610b4d576040517f08c379a0000000000000000000000000000000000000000000000000000000008152600401610b4490612fb9565b60405180910390fd5b610b6c609d6000848152602001908152602001600020600401546118b7565b609d600084815260200190815260200160002060020154609d600085815260200190815260200160002060000154610ba4919061338a565b1015610be5576040517f08c379a0000000000000000000000000000000000000000000000000000000008152600401610bdc90613039565b60405180910390fd5b42609d60008481526020019081526020016000206003015410610c3d576040517f08c379a0000000000000000000000000000000000000000000000000000000008152600401610c3490613159565b60405180910390fd5b60019050919050565b60606040518060400160405280600181526020017f3100000000000000000000000000000000000000000000000000000000000000815250905090565b610c8b6119d8565b73ffffffffffffffffffffffffffffffffffffffff16610ca9610efe565b73ffffffffffffffffffffffffffffffffffffffff1614610cff576040517f08c379a0000000000000000000000000000000000000000000000000000000008152600401610cf690613139565b60405180910390fd5b610d096000611d4b565b565b606560009054906101000a900473ffffffffffffffffffffffffffffffffffffffff1681565b609b5481565b610d4081610add565b15610dd757606560009054906101000a900473ffffffffffffffffffffffffffffffffffffffff1673ffffffffffffffffffffffffffffffffffffffff16634fd6134882609b546040518363ffffffff1660e01b8152600401610da4929190613234565b600060405180830381600087803b158015610dbe57600080fd5b505af1158015610dd2573d6000803e3d6000fd5b505050505b7f54ffcee03e8b80c05e4d1c55e3dc60602d9082a899e50337b680c9c4c4d80a3a8142604051610e08929190613234565b60405180910390a150565b610e1b6119d8565b73ffffffffffffffffffffffffffffffffffffffff16610e39610efe565b73ffffffffffffffffffffffffffffffffffffffff1614610e8f576040517f08c379a0000000000000000000000000000000000000000000000000000000008152600401610e8690613139565b60405180910390fd5b6000609b54905081609b819055507f2a72574d775756e698a258fc07c826b7185131fff8a96b868feacab45fb234328183604051610ece929190613234565b60405180910390a15050565b7fb780761e36898d7ec1cc0fb66fdd6a8a42e635ee643709d6b20652c68a3b29f581565b6000603360009054906101000a900473ffffffffffffffffffffffffffffffffffffffff16905090565b60006064905090565b600060019054906101000a900460ff16610f595760008054906101000a900460ff1615610f62565b610f61611e11565b5b610fa1576040517f08c379a0000000000000000000000000000000000000000000000000000000008152600401610f98906130d9565b60405180910390fd5b60008060019054906101000a900460ff161590508015610ff1576001600060016101000a81548160ff02191690831515021790555060016000806101000a81548160ff0219169083151502179055505b6000806000806000806000808980602001905181019061101191906126ac565b9750975097509750975097509750975060018511611064576040517f08c379a000000000000000000000000000000000000000000000000000000000815260040161105b90612f99565b60405180910390fd5b600073ffffffffffffffffffffffffffffffffffffffff168773ffffffffffffffffffffffffffffffffffffffff1614156110d4576040517f08c379a00000000000000000000000000000000000000000000000000000000081526004016110cb90612fd9565b60405180910390fd5b6110dc611e22565b60005b815181101561111e5761110b8282815181106110fe576110fd6136f0565b5b60200260200101516113e4565b8080611116906135e1565b9150506110df565b508660a160006101000a81548173ffffffffffffffffffffffffffffffffffffffff021916908373ffffffffffffffffffffffffffffffffffffffff1602179055506111718261116c610c46565b611e7b565b61117a846105e3565b611183886117bf565b6001856111909190613411565b609a8190555085606560006101000a81548173ffffffffffffffffffffffffffffffffffffffff021916908373ffffffffffffffffffffffffffffffffffffffff1602179055506001836111e49190613411565b609b8190555081609c90805190602001906112009291906123cb565b508773ffffffffffffffffffffffffffffffffffffffff168673ffffffffffffffffffffffffffffffffffffffff167f61586574b8b0edca97136ad4cb664eec4742d53de53403d531506632e6342a3960405160405180910390a3505050505050505080156112845760008060016101000a81548160ff0219169083151502179055505b5050565b600060a054905090565b61129a6119d8565b73ffffffffffffffffffffffffffffffffffffffff166112b8610efe565b73ffffffffffffffffffffffffffffffffffffffff161461130e576040517f08c379a000000000000000000000000000000000000000000000000000000000815260040161130590613139565b60405180910390fd5b6000606560009054906101000a900473ffffffffffffffffffffffffffffffffffffffff16905081606560006101000a81548173ffffffffffffffffffffffffffffffffffffffff021916908373ffffffffffffffffffffffffffffffffffffffff1602179055508173ffffffffffffffffffffffffffffffffffffffff168173ffffffffffffffffffffffffffffffffffffffff167f20c8544544aefaefdf339d996d855f2d4040cf93548344aa7dcb03b19e160cd160405160405180910390a35050565b6113df833384611ab6565b505050565b6113ec6119d8565b73ffffffffffffffffffffffffffffffffffffffff1661140a610efe565b73ffffffffffffffffffffffffffffffffffffffff1614611460576040517f08c379a000000000000000000000000000000000000000000000000000000000815260040161145790613139565b60405180910390fd5b60001515609f60008373ffffffffffffffffffffffffffffffffffffffff1673ffffffffffffffffffffffffffffffffffffffff16815260200190815260200160002060009054906101000a900460ff161515146114f3576040517f08c379a00000000000000000000000000000000000000000000000000000000081526004016114ea90613079565b60405180910390fd5b6001609f60008373ffffffffffffffffffffffffffffffffffffffff1673ffffffffffffffffffffffffffffffffffffffff16815260200190815260200160002060006101000a81548160ff021916908315150217905550609e600081548092919061155e906135e1565b91905055507fb251eb052afc73ffd02ffe85ad79990a8b3fed60d76dbc2fa2fdd7123dffd914816040516115929190612dae565b60405180910390a150565b600082609f60008273ffffffffffffffffffffffffffffffffffffffff1673ffffffffffffffffffffffffffffffffffffffff16815260200190815260200160002060009054906101000a900460ff1661162c576040517f08c379a000000000000000000000000000000000000000000000000000000000815260040161162390613199565b60405180910390fd5b60a160009054906101000a900473ffffffffffffffffffffffffffffffffffffffff1673ffffffffffffffffffffffffffffffffffffffff16633a46b1a885609d6000878152602001908152602001600020600401546040518363ffffffff1660e01b815260040161169f929190612dc9565b60206040518083038186803b1580156116b757600080fd5b505afa1580156116cb573d6000803e3d6000fd5b505050506040513d601f19601f820116820180604052508101906116ef9190612850565b91505092915050565b6117006119d8565b73ffffffffffffffffffffffffffffffffffffffff1661171e610efe565b73ffffffffffffffffffffffffffffffffffffffff1614611774576040517f08c379a000000000000000000000000000000000000000000000000000000000815260040161176b90613139565b60405180910390fd5b6000609a54905081609a819055507fffc708f072ca56e3d45ef0cb288b96cb9378f5f63e1646868bfbc9c38f4263a181836040516117b3929190613234565b60405180910390a15050565b6117c76119d8565b73ffffffffffffffffffffffffffffffffffffffff166117e5610efe565b73ffffffffffffffffffffffffffffffffffffffff161461183b576040517f08c379a000000000000000000000000000000000000000000000000000000000815260040161183290613139565b60405180910390fd5b600073ffffffffffffffffffffffffffffffffffffffff168173ffffffffffffffffffffffffffffffffffffffff1614156118ab576040517f08c379a00000000000000000000000000000000000000000000000000000000081526004016118a290613059565b60405180910390fd5b6118b481611d4b565b50565b60006118c1610f28565b6118c9611288565b60a160009054906101000a900473ffffffffffffffffffffffffffffffffffffffff1673ffffffffffffffffffffffffffffffffffffffff16638e539e8c856040518263ffffffff1660e01b81526004016119249190613219565b60206040518083038186803b15801561193c57600080fd5b505afa158015611950573d6000803e3d6000fd5b505050506040513d601f19601f820116820180604052508101906119749190612850565b61197e9190613411565b61198891906133e0565b9050919050565b60a160009054906101000a900473ffffffffffffffffffffffffffffffffffffffff1681565b6000808273ffffffffffffffffffffffffffffffffffffffff163b119050919050565b600033905090565b6119e8610f28565b811115611a2a576040517f08c379a0000000000000000000000000000000000000000000000000000000008152600401611a2190613179565b60405180910390fd5b600060a05490508160a0819055507f0553476bf02ef2726e8ce5ced78d63e26e602e4a2257b1f559418e24b46339978183604051611a69929190613234565b60405180910390a15050565b6000611a88611a82611ef6565b83611f36565b9050919050565b6000806000611a9e8585611f69565b91509150611aab81611fec565b819250505092915050565b609d600084815260200190815260200160002060030154421115611b0f576040517f08c379a0000000000000000000000000000000000000000000000000000000008152600401611b0690613019565b60405180910390fd5b611b198383610a72565b15611b59576040517f08c379a0000000000000000000000000000000000000000000000000000000008152600401611b50906130b9565b60405180910390fd5b6001609d600085815260200190815260200160002060050160008473ffffffffffffffffffffffffffffffffffffffff1673ffffffffffffffffffffffffffffffffffffffff16815260200190815260200160002060006101000a81548160ff0219169083151502179055506000611bd1838561159d565b905060006002811115611be757611be6613692565b5b60ff168260ff161415611c265780609d60008681526020019081526020016000206001016000828254611c1a919061338a565b92505081905550611d08565b60016002811115611c3a57611c39613692565b5b60ff168260ff161415611c795780609d60008681526020019081526020016000206000016000828254611c6d919061338a565b92505081905550611d07565b600280811115611c8c57611c8b613692565b5b60ff168260ff161415611ccb5780609d60008681526020019081526020016000206002016000828254611cbf919061338a565b92505081905550611d06565b6040517f08c379a0000000000000000000000000000000000000000000000000000000008152600401611cfd906131f9565b60405180910390fd5b5b5b7f27eb20ecadc80d52f641a540b295d208f7c3735545d321b08e505116c601319983858484604051611d3d9493929190612df2565b60405180910390a150505050565b6000603360009054906101000a900473ffffffffffffffffffffffffffffffffffffffff16905081603360006101000a81548173ffffffffffffffffffffffffffffffffffffffff021916908373ffffffffffffffffffffffffffffffffffffffff1602179055508173ffffffffffffffffffffffffffffffffffffffff168173ffffffffffffffffffffffffffffffffffffffff167f8be0079c531659141344cd1fd0a4f28419497f9722a3daafe3b4186f6b6457e060405160405180910390a35050565b6000611e1c306119b5565b15905090565b600060019054906101000a900460ff16611e71576040517f08c379a0000000000000000000000000000000000000000000000000000000008152600401611e68906131d9565b60405180910390fd5b611e796121c1565b565b600060019054906101000a900460ff16611eca576040517f08c379a0000000000000000000000000000000000000000000000000000000008152600401611ec1906131d9565b60405180910390fd5b600082805190602001209050600082805190602001209050816066819055508060678190555050505050565b6000611f317f8b73c3c69bb8fe3d512ecc4cf759cc79239f7b179b0ffacaa9a75d522b39400f611f24612222565b611f2c61222c565b612236565b905090565b60008282604051602001611f4b929190612d77565b60405160208183030381529060405280519060200120905092915050565b600080604183511415611fab5760008060006020860151925060408601519150606086015160001a9050611f9f87828585612270565b94509450505050611fe5565b604083511415611fdc576000806020850151915060408501519050611fd186838361237d565b935093505050611fe5565b60006002915091505b9250929050565b6000600481111561200057611fff613692565b5b81600481111561201357612012613692565b5b141561201e576121be565b6001600481111561203257612031613692565b5b81600481111561204557612044613692565b5b1415612086576040517f08c379a000000000000000000000000000000000000000000000000000000000815260040161207d90612f79565b60405180910390fd5b6002600481111561209a57612099613692565b5b8160048111156120ad576120ac613692565b5b14156120ee576040517f08c379a00000000000000000000000000000000000000000000000000000000081526004016120e590612ff9565b60405180910390fd5b6003600481111561210257612101613692565b5b81600481111561211557612114613692565b5b1415612156576040517f08c379a000000000000000000000000000000000000000000000000000000000815260040161214d90613099565b60405180910390fd5b60048081111561216957612168613692565b5b81600481111561217c5761217b613692565b5b14156121bd576040517f08c379a00000000000000000000000000000000000000000000000000000000081526004016121b4906130f9565b60405180910390fd5b5b50565b600060019054906101000a900460ff16612210576040517f08c379a0000000000000000000000000000000000000000000000000000000008152600401612207906131d9565b60405180910390fd5b61222061221b6119d8565b611d4b565b565b6000606654905090565b6000606754905090565b60008383834630604051602001612251959493929190612e6d565b6040516020818303038152906040528051906020012090509392505050565b6000807f7fffffffffffffffffffffffffffffff5d576e7357a4501ddfe92f46681b20a08360001c11156122ab576000600391509150612374565b601b8560ff16141580156122c35750601c8560ff1614155b156122d5576000600491509150612374565b6000600187878787604051600081526020016040526040516122fa9493929190612ef7565b6020604051602081039080840390855afa15801561231c573d6000803e3d6000fd5b505050602060405103519050600073ffffffffffffffffffffffffffffffffffffffff168173ffffffffffffffffffffffffffffffffffffffff16141561236b57600060019250925050612374565b80600092509250505b94509492505050565b6000806000807f7fffffffffffffffffffffffffffffffffffffffffffffffffffffffffffffff85169150601b8560ff1c0190506123bd87828885612270565b935093505050935093915050565b8280546123d79061357e565b90600052602060002090601f0160209004810192826123f95760008555612440565b82601f1061241257805160ff1916838001178555612440565b82800160010185558215612440579182015b8281111561243f578251825591602001919060010190612424565b5b50905061244d9190612451565b5090565b5b8082111561246a576000816000905550600101612452565b5090565b600061248161247c846132d5565b6132b0565b905080838252602082019050828560208602820111156124a4576124a3613753565b5b60005b858110156124d457816124ba8882612577565b8452602084019350602083019250506001810190506124a7565b5050509392505050565b60006124f16124ec84613301565b6132b0565b90508281526020810184848401111561250d5761250c613758565b5b612518848285613512565b509392505050565b600061253361252e84613332565b6132b0565b90508281526020810184848401111561254f5761254e613758565b5b61255a848285613521565b509392505050565b60008135905061257181613c2e565b92915050565b60008151905061258681613c2e565b92915050565b60008151905061259b81613c45565b92915050565b600082601f8301126125b6576125b561374e565b5b81516125c684826020860161246e565b91505092915050565b600082601f8301126125e4576125e361374e565b5b81356125f48482602086016124de565b91505092915050565b60008151905061260c81613c5c565b92915050565b600082601f8301126126275761262661374e565b5b8151612637848260208601612520565b91505092915050565b60008135905061264f81613c73565b92915050565b60008151905061266481613c73565b92915050565b60008135905061267981613c8a565b92915050565b60006020828403121561269557612694613762565b5b60006126a384828501612562565b91505092915050565b600080600080600080600080610100898b0312156126cd576126cc613762565b5b60006126db8b828c0161258c565b98505060206126ec8b828c016125fd565b97505060406126fd8b828c0161258c565b965050606061270e8b828c01612655565b955050608061271f8b828c01612655565b94505060a06127308b828c01612655565b93505060c089015167ffffffffffffffff8111156127515761275061375d565b5b61275d8b828c01612612565b92505060e089015167ffffffffffffffff81111561277e5761277d61375d565b5b61278a8b828c016125a1565b9150509295985092959890939650565b600080604083850312156127b1576127b0613762565b5b60006127bf85828601612562565b92505060206127d085828601612640565b9150509250929050565b6000602082840312156127f0576127ef613762565b5b600082013567ffffffffffffffff81111561280e5761280d61375d565b5b61281a848285016125cf565b91505092915050565b60006020828403121561283957612838613762565b5b600061284784828501612640565b91505092915050565b60006020828403121561286657612865613762565b5b600061287484828501612655565b91505092915050565b6000806040838503121561289457612893613762565b5b60006128a285828601612640565b92505060206128b385828601612562565b9150509250929050565b6000806000606084860312156128d6576128d5613762565b5b60006128e486828701612640565b93505060206128f58682870161266a565b925050604084013567ffffffffffffffff8111156129165761291561375d565b5b612922868287016125cf565b9150509250925092565b6000806000806080858703121561294657612945613762565b5b600061295487828801612640565b94505060206129658782880161266a565b935050604085013567ffffffffffffffff8111156129865761298561375d565b5b612992878288016125cf565b925050606085013567ffffffffffffffff8111156129b3576129b261375d565b5b6129bf878288016125cf565b91505092959194509250565b6129d48161346b565b82525050565b6129e38161348f565b82525050565b6129f28161349b565b82525050565b612a09612a048261349b565b61362a565b82525050565b612a18816134ee565b82525050565b6000612a2982613363565b612a33818561336e565b9350612a43818560208601613521565b612a4c81613767565b840191505092915050565b6000612a6460188361336e565b9150612a6f82613778565b602082019050919050565b6000612a8760238361336e565b9150612a92826137a1565b604082019050919050565b6000612aaa601d8361336e565b9150612ab5826137f0565b602082019050919050565b6000612acd60208361336e565b9150612ad882613819565b602082019050919050565b6000612af0601f8361336e565b9150612afb82613842565b602082019050919050565b6000612b1360188361336e565b9150612b1e8261386b565b602082019050919050565b6000612b36602e8361336e565b9150612b4182613894565b604082019050919050565b6000612b5960268361336e565b9150612b64826138e3565b604082019050919050565b6000612b7c60028361337f565b9150612b8782613932565b600282019050919050565b6000612b9f601c8361336e565b9150612baa8261395b565b602082019050919050565b6000612bc260228361336e565b9150612bcd82613984565b604082019050919050565b6000612be560178361336e565b9150612bf0826139d3565b602082019050919050565b6000612c08602e8361336e565b9150612c13826139fc565b604082019050919050565b6000612c2b60228361336e565b9150612c3682613a4b565b604082019050919050565b6000612c4e601a8361336e565b9150612c5982613a9a565b602082019050919050565b6000612c7160208361336e565b9150612c7c82613ac3565b602082019050919050565b6000612c9460208361336e565b9150612c9f82613aec565b602082019050919050565b6000612cb760268361336e565b9150612cc282613b15565b604082019050919050565b6000612cda60158361336e565b9150612ce582613b64565b602082019050919050565b6000612cfd60188361336e565b9150612d0882613b8d565b602082019050919050565b6000612d20602b8361336e565b9150612d2b82613bb6565b604082019050919050565b6000612d43601f8361336e565b9150612d4e82613c05565b602082019050919050565b612d62816134d7565b82525050565b612d71816134e1565b82525050565b6000612d8282612b6f565b9150612d8e82856129f8565b602082019150612d9e82846129f8565b6020820191508190509392505050565b6000602082019050612dc360008301846129cb565b92915050565b6000604082019050612dde60008301856129cb565b612deb6020830184612d59565b9392505050565b6000608082019050612e0760008301876129cb565b612e146020830186612d59565b612e216040830185612d68565b612e2e6060830184612d59565b95945050505050565b6000602082019050612e4c60008301846129da565b92915050565b6000602082019050612e6760008301846129e9565b92915050565b600060a082019050612e8260008301886129e9565b612e8f60208301876129e9565b612e9c60408301866129e9565b612ea96060830185612d59565b612eb660808301846129cb565b9695505050505050565b6000606082019050612ed560008301866129e9565b612ee26020830185612d59565b612eef6040830184612d68565b949350505050565b6000608082019050612f0c60008301876129e9565b612f196020830186612d68565b612f2660408301856129e9565b612f3360608301846129e9565b95945050505050565b6000602082019050612f516000830184612a0f565b92915050565b60006020820190508181036000830152612f718184612a1e565b905092915050565b60006020820190508181036000830152612f9281612a57565b9050919050565b60006020820190508181036000830152612fb281612a7a565b9050919050565b60006020820190508181036000830152612fd281612a9d565b9050919050565b60006020820190508181036000830152612ff281612ac0565b9050919050565b6000602082019050818103600083015261301281612ae3565b9050919050565b6000602082019050818103600083015261303281612b06565b9050919050565b6000602082019050818103600083015261305281612b29565b9050919050565b6000602082019050818103600083015261307281612b4c565b9050919050565b6000602082019050818103600083015261309281612b92565b9050919050565b600060208201905081810360008301526130b281612bb5565b9050919050565b600060208201905081810360008301526130d281612bd8565b9050919050565b600060208201905081810360008301526130f281612bfb565b9050919050565b6000602082019050818103600083015261311281612c1e565b9050919050565b6000602082019050818103600083015261313281612c41565b9050919050565b6000602082019050818103600083015261315281612c64565b9050919050565b6000602082019050818103600083015261317281612c87565b9050919050565b6000602082019050818103600083015261319281612caa565b9050919050565b600060208201905081810360008301526131b281612ccd565b9050919050565b600060208201905081810360008301526131d281612cf0565b9050919050565b600060208201905081810360008301526131f281612d13565b9050919050565b6000602082019050818103600083015261321281612d36565b9050919050565b600060208201905061322e6000830184612d59565b92915050565b60006040820190506132496000830185612d59565b6132566020830184612d59565b9392505050565b600060a0820190506132726000830188612d59565b61327f6020830187612d59565b61328c6040830186612d59565b6132996060830185612d59565b6132a66080830184612d59565b9695505050505050565b60006132ba6132cb565b90506132c682826135b0565b919050565b6000604051905090565b600067ffffffffffffffff8211156132f0576132ef61371f565b5b602082029050602081019050919050565b600067ffffffffffffffff82111561331c5761331b61371f565b5b61332582613767565b9050602081019050919050565b600067ffffffffffffffff82111561334d5761334c61371f565b5b61335682613767565b9050602081019050919050565b600081519050919050565b600082825260208201905092915050565b600081905092915050565b6000613395826134d7565b91506133a0836134d7565b9250827fffffffffffffffffffffffffffffffffffffffffffffffffffffffffffffffff038211156133d5576133d4613634565b5b828201905092915050565b60006133eb826134d7565b91506133f6836134d7565b92508261340657613405613663565b5b828204905092915050565b600061341c826134d7565b9150613427836134d7565b9250817fffffffffffffffffffffffffffffffffffffffffffffffffffffffffffffffff04831182151516156134605761345f613634565b5b828202905092915050565b6000613476826134b7565b9050919050565b6000613488826134b7565b9050919050565b60008115159050919050565b6000819050919050565b60006134b08261346b565b9050919050565b600073ffffffffffffffffffffffffffffffffffffffff82169050919050565b6000819050919050565b600060ff82169050919050565b60006134f982613500565b9050919050565b600061350b826134b7565b9050919050565b82818337600083830152505050565b60005b8381101561353f578082015181840152602081019050613524565b8381111561354e576000848401525b50505050565b600061355f826134d7565b9150600082141561357357613572613634565b5b600182039050919050565b6000600282049050600182168061359657607f821691505b602082108114156135aa576135a96136c1565b5b50919050565b6135b982613767565b810181811067ffffffffffffffff821117156135d8576135d761371f565b5b80604052505050565b60006135ec826134d7565b91507fffffffffffffffffffffffffffffffffffffffffffffffffffffffffffffffff82141561361f5761361e613634565b5b600182019050919050565b6000819050919050565b7f4e487b7100000000000000000000000000000000000000000000000000000000600052601160045260246000fd5b7f4e487b7100000000000000000000000000000000000000000000000000000000600052601260045260246000fd5b7f4e487b7100000000000000000000000000000000000000000000000000000000600052602160045260246000fd5b7f4e487b7100000000000000000000000000000000000000000000000000000000600052602260045260246000fd5b7f4e487b7100000000000000000000000000000000000000000000000000000000600052603260045260246000fd5b7f4e487b7100000000000000000000000000000000000000000000000000000000600052604160045260246000fd5b600080fd5b600080fd5b600080fd5b600080fd5b600080fd5b6000601f19601f8301169050919050565b7f45434453413a20696e76616c6964207369676e61747572650000000000000000600082015250565b7f766f74696e67506572696f64206d75737420626520677265617465722074686160008201527f6e20310000000000000000000000000000000000000000000000000000000000602082015250565b7f6d616a6f7269747920796573566f746573206e6f742072656163686564000000600082015250565b7f696e76616c696420676f7665726e616e636520746f6b656e2061646472657373600082015250565b7f45434453413a20696e76616c6964207369676e6174757265206c656e67746800600082015250565b7f766f74696e6720706572696f6420686173207061737365640000000000000000600082015250565b7f612071756f72756d20686173206e6f74206265656e207265616368656420666f60008201527f72207468652070726f706f73616c000000000000000000000000000000000000602082015250565b7f4f776e61626c653a206e6577206f776e657220697320746865207a65726f206160008201527f6464726573730000000000000000000000000000000000000000000000000000602082015250565b7f1901000000000000000000000000000000000000000000000000000000000000600082015250565b7f6d656d62657220697320616c7265616479207265676973746572656400000000600082015250565b7f45434453413a20696e76616c6964207369676e6174757265202773272076616c60008201527f7565000000000000000000000000000000000000000000000000000000000000602082015250565b7f766f7465722068617320616c726561647920766f746564000000000000000000600082015250565b7f496e697469616c697a61626c653a20636f6e747261637420697320616c72656160008201527f647920696e697469616c697a6564000000000000000000000000000000000000602082015250565b7f45434453413a20696e76616c6964207369676e6174757265202776272076616c60008201527f7565000000000000000000000000000000000000000000000000000000000000602082015250565b7f6f6e6c79205573756c206d6f64756c65206d617920656e746572000000000000600082015250565b7f4f776e61626c653a2063616c6c6572206973206e6f7420746865206f776e6572600082015250565b7f766f74696e6720706572696f6420686173206e6f742070617373656420796574600082015250565b7f71756f72756d4e756d657261746f72206f7665722071756f72756d44656e6f6d60008201527f696e61746f720000000000000000000000000000000000000000000000000000602082015250565b7f766f746572206973206e6f742061206d656d6265720000000000000000000000600082015250565b7f6d656d626572206973206e6f7420726567697374657265640000000000000000600082015250565b7f496e697469616c697a61626c653a20636f6e7472616374206973206e6f74206960008201527f6e697469616c697a696e67000000000000000000000000000000000000000000602082015250565b7f696e76616c69642076616c756520666f7220656e756d20566f74655479706500600082015250565b613c378161346b565b8114613c4257600080fd5b50565b613c4e8161347d565b8114613c5957600080fd5b50565b613c65816134a5565b8114613c7057600080fd5b50565b613c7c816134d7565b8114613c8757600080fd5b50565b613c93816134e1565b8114613c9e57600080fd5b5056fea264697066735822122047085ac2c20bd7924ac568cae6dc6feebe67b3e083f1f03ebb694682b93fb77064736f6c63430008060033",
  "devdoc": {
    "author": "Nathan Ginnever - <team@sekerdao.com>",
    "kind": "dev",
    "methods": {
      "finalizeStrategy(uint256)": {
        "details": "Calls the proposal module to notify that a quorum has been reached.",
        "params": {
          "proposalId": "the proposal to vote for."
        }
      },
      "hasVoted(uint256,address)": {
        "details": "Returns true if an account has voted on a specific proposal.",
        "params": {
          "account": "the account to inspect.",
          "proposalId": "the proposal to inspect."
        },
        "returns": {
          "_0": "boolean."
        }
      },
      "isPassed(uint256)": {
        "details": "Determines if a proposal has succeeded.",
        "params": {
          "proposalId": "the proposal to vote for."
        },
        "returns": {
          "_0": "boolean."
        }
      },
      "owner()": {
        "details": "Returns the address of the current owner."
      },
      "receiveProposal(bytes)": {
        "details": "Called by the proposal module, this notifes the strategy of a new proposal.",
        "params": {
          "data": "any extra data to pass to the voting strategy"
        }
      },
      "renounceOwnership()": {
        "details": "Leaves the contract without owner. It will not be possible to call `onlyOwner` functions anymore. Can only be called by the current owner. NOTE: Renouncing ownership will leave the contract without an owner, thereby removing any functionality that is only available to the owner."
      },
      "setUsul(address)": {
        "details": "Sets the executor to a new account (`newExecutor`)."
      },
      "transferOwnership(address)": {
        "details": "Transfers ownership of the contract to a new account (`newOwner`). Can only be called by the current owner."
      },
      "updateTimeLockPeriod(uint256)": {
        "details": "Updates the grace period time after a proposal passed before it can execute.",
        "params": {
          "newTimeLockPeriod": "the new delay before execution."
        }
      },
      "updateVotingPeriod(uint256)": {
        "details": "Updates the time that proposals are active for voting.",
        "params": {
          "newPeriod": "the voting window."
        }
      },
      "version()": {
        "details": "ERC712 version."
      },
      "vote(uint256,uint8,bytes)": {
        "details": "Submits a vote for a proposal.",
        "params": {
          "proposalId": "the proposal to vote for.",
          "support": "against, for, or abstain."
        }
      },
      "voteSignature(uint256,uint8,bytes,bytes)": {
        "details": "Submits a vote for a proposal by ERC712 signature.",
        "params": {
          "proposalId": "the proposal to vote for.",
          "signature": "712 signed vote.",
          "support": "against, for, or abstain."
        }
      }
    },
    "title": "OpenZeppelin Linear Voting Strategy - A Usul strategy that enables compount like voting.",
    "version": 1
  },
  "userdoc": {
    "kind": "user",
    "methods": {
      "setUsul(address)": {
        "notice": "Can only be called by the current owner."
      }
    },
    "version": 1
  },
  "storageLayout": {
    "storage": [
      {
        "astId": 3500,
        "contract": "contracts/votingStrategies/MemberLinearVoting.sol:MemberLinearVoting",
        "label": "_initialized",
        "offset": 0,
        "slot": "0",
        "type": "t_bool"
      },
      {
        "astId": 3503,
        "contract": "contracts/votingStrategies/MemberLinearVoting.sol:MemberLinearVoting",
        "label": "_initializing",
        "offset": 1,
        "slot": "0",
        "type": "t_bool"
      },
      {
        "astId": 3851,
        "contract": "contracts/votingStrategies/MemberLinearVoting.sol:MemberLinearVoting",
        "label": "__gap",
        "offset": 0,
        "slot": "1",
        "type": "t_array(t_uint256)50_storage"
      },
      {
        "astId": 3380,
        "contract": "contracts/votingStrategies/MemberLinearVoting.sol:MemberLinearVoting",
        "label": "_owner",
        "offset": 0,
        "slot": "51",
        "type": "t_address"
      },
      {
        "astId": 3492,
        "contract": "contracts/votingStrategies/MemberLinearVoting.sol:MemberLinearVoting",
        "label": "__gap",
        "offset": 0,
        "slot": "52",
        "type": "t_array(t_uint256)49_storage"
      },
      {
        "astId": 7346,
        "contract": "contracts/votingStrategies/MemberLinearVoting.sol:MemberLinearVoting",
        "label": "UsulModule",
        "offset": 0,
        "slot": "101",
        "type": "t_address"
      },
      {
        "astId": 4471,
        "contract": "contracts/votingStrategies/MemberLinearVoting.sol:MemberLinearVoting",
        "label": "_HASHED_NAME",
        "offset": 0,
        "slot": "102",
        "type": "t_bytes32"
      },
      {
        "astId": 4473,
        "contract": "contracts/votingStrategies/MemberLinearVoting.sol:MemberLinearVoting",
        "label": "_HASHED_VERSION",
        "offset": 0,
        "slot": "103",
        "type": "t_bytes32"
      },
      {
        "astId": 4611,
        "contract": "contracts/votingStrategies/MemberLinearVoting.sol:MemberLinearVoting",
        "label": "__gap",
        "offset": 0,
        "slot": "104",
        "type": "t_array(t_uint256)50_storage"
      },
      {
        "astId": 9646,
        "contract": "contracts/votingStrategies/MemberLinearVoting.sol:MemberLinearVoting",
        "label": "votingPeriod",
        "offset": 0,
        "slot": "154",
        "type": "t_uint256"
      },
      {
        "astId": 9648,
        "contract": "contracts/votingStrategies/MemberLinearVoting.sol:MemberLinearVoting",
        "label": "timeLockPeriod",
        "offset": 0,
        "slot": "155",
        "type": "t_uint256"
      },
      {
        "astId": 9650,
        "contract": "contracts/votingStrategies/MemberLinearVoting.sol:MemberLinearVoting",
        "label": "name",
        "offset": 0,
        "slot": "156",
        "type": "t_string_storage"
      },
      {
        "astId": 9655,
        "contract": "contracts/votingStrategies/MemberLinearVoting.sol:MemberLinearVoting",
        "label": "proposals",
        "offset": 0,
        "slot": "157",
        "type": "t_mapping(t_uint256,t_struct(ProposalVoting)9644_storage)"
      },
      {
        "astId": 9162,
        "contract": "contracts/votingStrategies/MemberLinearVoting.sol:MemberLinearVoting",
        "label": "memberCount",
        "offset": 0,
        "slot": "158",
        "type": "t_uint256"
      },
      {
        "astId": 9166,
        "contract": "contracts/votingStrategies/MemberLinearVoting.sol:MemberLinearVoting",
        "label": "members",
        "offset": 0,
        "slot": "159",
        "type": "t_mapping(t_address,t_bool)"
      },
      {
        "astId": 9315,
        "contract": "contracts/votingStrategies/MemberLinearVoting.sol:MemberLinearVoting",
        "label": "_quorumNumerator",
        "offset": 0,
        "slot": "160",
        "type": "t_uint256"
      },
      {
        "astId": 12422,
        "contract": "contracts/votingStrategies/MemberLinearVoting.sol:MemberLinearVoting",
        "label": "governanceToken",
        "offset": 0,
        "slot": "161",
        "type": "t_contract(ERC20Votes)5882"
      }
    ],
    "types": {
      "t_address": {
        "encoding": "inplace",
        "label": "address",
        "numberOfBytes": "20"
      },
      "t_array(t_uint256)49_storage": {
        "base": "t_uint256",
        "encoding": "inplace",
        "label": "uint256[49]",
        "numberOfBytes": "1568"
      },
      "t_array(t_uint256)50_storage": {
        "base": "t_uint256",
        "encoding": "inplace",
        "label": "uint256[50]",
        "numberOfBytes": "1600"
      },
      "t_bool": {
        "encoding": "inplace",
        "label": "bool",
        "numberOfBytes": "1"
      },
      "t_bytes32": {
        "encoding": "inplace",
        "label": "bytes32",
        "numberOfBytes": "32"
      },
      "t_contract(ERC20Votes)5882": {
        "encoding": "inplace",
        "label": "contract ERC20Votes",
        "numberOfBytes": "20"
      },
      "t_mapping(t_address,t_bool)": {
        "encoding": "mapping",
        "key": "t_address",
        "label": "mapping(address => bool)",
        "numberOfBytes": "32",
        "value": "t_bool"
      },
      "t_mapping(t_uint256,t_struct(ProposalVoting)9644_storage)": {
        "encoding": "mapping",
        "key": "t_uint256",
        "label": "mapping(uint256 => struct BaseTokenVoting.ProposalVoting)",
        "numberOfBytes": "32",
        "value": "t_struct(ProposalVoting)9644_storage"
      },
      "t_string_storage": {
        "encoding": "bytes",
        "label": "string",
        "numberOfBytes": "32"
      },
      "t_struct(ProposalVoting)9644_storage": {
        "encoding": "inplace",
        "label": "struct BaseTokenVoting.ProposalVoting",
        "members": [
          {
            "astId": 9631,
            "contract": "contracts/votingStrategies/MemberLinearVoting.sol:MemberLinearVoting",
            "label": "yesVotes",
            "offset": 0,
            "slot": "0",
            "type": "t_uint256"
          },
          {
            "astId": 9633,
            "contract": "contracts/votingStrategies/MemberLinearVoting.sol:MemberLinearVoting",
            "label": "noVotes",
            "offset": 0,
            "slot": "1",
            "type": "t_uint256"
          },
          {
            "astId": 9635,
            "contract": "contracts/votingStrategies/MemberLinearVoting.sol:MemberLinearVoting",
            "label": "abstainVotes",
            "offset": 0,
            "slot": "2",
            "type": "t_uint256"
          },
          {
            "astId": 9637,
            "contract": "contracts/votingStrategies/MemberLinearVoting.sol:MemberLinearVoting",
            "label": "deadline",
            "offset": 0,
            "slot": "3",
            "type": "t_uint256"
          },
          {
            "astId": 9639,
            "contract": "contracts/votingStrategies/MemberLinearVoting.sol:MemberLinearVoting",
            "label": "startBlock",
            "offset": 0,
            "slot": "4",
            "type": "t_uint256"
          },
          {
            "astId": 9643,
            "contract": "contracts/votingStrategies/MemberLinearVoting.sol:MemberLinearVoting",
            "label": "hasVoted",
            "offset": 0,
            "slot": "5",
            "type": "t_mapping(t_address,t_bool)"
          }
        ],
        "numberOfBytes": "192"
      },
      "t_uint256": {
        "encoding": "inplace",
        "label": "uint256",
        "numberOfBytes": "32"
      }
    }
  }
}