{
  "address": "0xa70E848428c53A448d961A1415B358601adcd19B",
  "abi": [
    {
      "inputs": [
        {
          "internalType": "address",
          "name": "_owner",
          "type": "address"
        },
        {
          "internalType": "contract ERC20Votes",
          "name": "_governanceToken",
          "type": "address"
        },
        {
          "internalType": "address",
          "name": "_UsulModule",
          "type": "address"
        },
        {
          "internalType": "uint256",
          "name": "_votingPeriod",
          "type": "uint256"
        },
        {
          "internalType": "uint256",
          "name": "quorumNumerator_",
          "type": "uint256"
        },
        {
          "internalType": "uint256",
          "name": "_timeLockPeriod",
          "type": "uint256"
        },
        {
          "internalType": "string",
          "name": "name_",
          "type": "string"
        }
      ],
      "stateMutability": "nonpayable",
      "type": "constructor"
    },
    {
      "anonymous": false,
      "inputs": [
        {
          "indexed": true,
          "internalType": "address",
          "name": "previousOwner",
          "type": "address"
        },
        {
          "indexed": true,
          "internalType": "address",
          "name": "newOwner",
          "type": "address"
        }
      ],
      "name": "OwnershipTransferred",
      "type": "event"
    },
    {
      "anonymous": false,
      "inputs": [
        {
          "indexed": false,
          "internalType": "uint256",
          "name": "proposalId",
          "type": "uint256"
        },
        {
          "indexed": false,
          "internalType": "uint256",
          "name": "timestamp",
          "type": "uint256"
        }
      ],
      "name": "ProposalReceived",
      "type": "event"
    },
    {
      "anonymous": false,
      "inputs": [
        {
          "indexed": false,
          "internalType": "uint256",
          "name": "oldQuorumNumerator",
          "type": "uint256"
        },
        {
          "indexed": false,
          "internalType": "uint256",
          "name": "newQuorumNumerator",
          "type": "uint256"
        }
      ],
      "name": "QuorumNumeratorUpdated",
      "type": "event"
    },
    {
      "anonymous": false,
      "inputs": [
        {
          "indexed": true,
          "internalType": "address",
          "name": "UsulModule",
          "type": "address"
        },
        {
          "indexed": true,
          "internalType": "address",
          "name": "owner",
          "type": "address"
        }
      ],
      "name": "StrategySetup",
      "type": "event"
    },
    {
      "anonymous": false,
      "inputs": [
        {
          "indexed": false,
          "internalType": "uint256",
          "name": "previousTimeLock",
          "type": "uint256"
        },
        {
          "indexed": false,
          "internalType": "uint256",
          "name": "newTimeLockPeriod",
          "type": "uint256"
        }
      ],
      "name": "TimeLockUpdated",
      "type": "event"
    },
    {
      "anonymous": false,
      "inputs": [
        {
          "indexed": true,
          "internalType": "address",
          "name": "previousUsul",
          "type": "address"
        },
        {
          "indexed": true,
          "internalType": "address",
          "name": "newUsul",
          "type": "address"
        }
      ],
      "name": "UsulSet",
      "type": "event"
    },
    {
      "anonymous": false,
      "inputs": [
        {
          "indexed": false,
          "internalType": "uint256",
          "name": "proposalId",
          "type": "uint256"
        },
        {
          "indexed": false,
          "internalType": "uint256",
          "name": "timestamp",
          "type": "uint256"
        }
      ],
      "name": "VoteFinalized",
      "type": "event"
    },
    {
      "anonymous": false,
      "inputs": [
        {
          "indexed": false,
          "internalType": "address",
          "name": "voter",
          "type": "address"
        },
        {
          "indexed": false,
          "internalType": "uint256",
          "name": "proposalId",
          "type": "uint256"
        },
        {
          "indexed": false,
          "internalType": "uint8",
          "name": "support",
          "type": "uint8"
        },
        {
          "indexed": false,
          "internalType": "uint256",
          "name": "weight",
          "type": "uint256"
        }
      ],
      "name": "Voted",
      "type": "event"
    },
    {
      "anonymous": false,
      "inputs": [
        {
          "indexed": false,
          "internalType": "uint256",
          "name": "previousVotingPeriod",
          "type": "uint256"
        },
        {
          "indexed": false,
          "internalType": "uint256",
          "name": "newVotingPeriod",
          "type": "uint256"
        }
      ],
      "name": "VotingPeriodUpdated",
      "type": "event"
    },
    {
      "inputs": [],
      "name": "UsulModule",
      "outputs": [
        {
          "internalType": "address",
          "name": "",
          "type": "address"
        }
      ],
      "stateMutability": "view",
      "type": "function"
    },
    {
      "inputs": [],
      "name": "VOTE_TYPEHASH",
      "outputs": [
        {
          "internalType": "bytes32",
          "name": "",
          "type": "bytes32"
        }
      ],
      "stateMutability": "view",
      "type": "function"
    },
    {
      "inputs": [
        {
          "internalType": "address",
          "name": "delegatee",
          "type": "address"
        },
        {
          "internalType": "uint256",
          "name": "proposalId",
          "type": "uint256"
        }
      ],
      "name": "calculateWeight",
      "outputs": [
        {
          "internalType": "uint256",
          "name": "",
          "type": "uint256"
        }
      ],
      "stateMutability": "view",
      "type": "function"
    },
    {
      "inputs": [
        {
          "internalType": "uint256",
          "name": "proposalId",
          "type": "uint256"
        }
      ],
      "name": "finalizeStrategy",
      "outputs": [],
      "stateMutability": "nonpayable",
      "type": "function"
    },
    {
      "inputs": [],
      "name": "governanceToken",
      "outputs": [
        {
          "internalType": "contract ERC20Votes",
          "name": "",
          "type": "address"
        }
      ],
      "stateMutability": "view",
      "type": "function"
    },
    {
      "inputs": [
        {
          "internalType": "uint256",
          "name": "proposalId",
          "type": "uint256"
        },
        {
          "internalType": "address",
          "name": "account",
          "type": "address"
        }
      ],
      "name": "hasVoted",
      "outputs": [
        {
          "internalType": "bool",
          "name": "",
          "type": "bool"
        }
      ],
      "stateMutability": "view",
      "type": "function"
    },
    {
      "inputs": [
        {
          "internalType": "uint256",
          "name": "proposalId",
          "type": "uint256"
        }
      ],
      "name": "isPassed",
      "outputs": [
        {
          "internalType": "bool",
          "name": "",
          "type": "bool"
        }
      ],
      "stateMutability": "view",
      "type": "function"
    },
    {
      "inputs": [],
      "name": "name",
      "outputs": [
        {
          "internalType": "string",
          "name": "",
          "type": "string"
        }
      ],
      "stateMutability": "view",
      "type": "function"
    },
    {
      "inputs": [],
      "name": "owner",
      "outputs": [
        {
          "internalType": "address",
          "name": "",
          "type": "address"
        }
      ],
      "stateMutability": "view",
      "type": "function"
    },
    {
      "inputs": [
        {
          "internalType": "uint256",
          "name": "",
          "type": "uint256"
        }
      ],
      "name": "proposals",
      "outputs": [
        {
          "internalType": "uint256",
          "name": "yesVotes",
          "type": "uint256"
        },
        {
          "internalType": "uint256",
          "name": "noVotes",
          "type": "uint256"
        },
        {
          "internalType": "uint256",
          "name": "abstainVotes",
          "type": "uint256"
        },
        {
          "internalType": "uint256",
          "name": "deadline",
          "type": "uint256"
        },
        {
          "internalType": "uint256",
          "name": "startBlock",
          "type": "uint256"
        }
      ],
      "stateMutability": "view",
      "type": "function"
    },
    {
      "inputs": [
        {
          "internalType": "uint256",
          "name": "blockNumber",
          "type": "uint256"
        }
      ],
      "name": "quorum",
      "outputs": [
        {
          "internalType": "uint256",
          "name": "",
          "type": "uint256"
        }
      ],
      "stateMutability": "view",
      "type": "function"
    },
    {
      "inputs": [],
      "name": "quorumDenominator",
      "outputs": [
        {
          "internalType": "uint256",
          "name": "",
          "type": "uint256"
        }
      ],
      "stateMutability": "pure",
      "type": "function"
    },
    {
      "inputs": [],
      "name": "quorumNumerator",
      "outputs": [
        {
          "internalType": "uint256",
          "name": "",
          "type": "uint256"
        }
      ],
      "stateMutability": "view",
      "type": "function"
    },
    {
      "inputs": [
        {
          "internalType": "bytes",
          "name": "data",
          "type": "bytes"
        }
      ],
      "name": "receiveProposal",
      "outputs": [],
      "stateMutability": "nonpayable",
      "type": "function"
    },
    {
      "inputs": [],
      "name": "renounceOwnership",
      "outputs": [],
      "stateMutability": "nonpayable",
      "type": "function"
    },
    {
      "inputs": [
        {
          "internalType": "bytes",
          "name": "initParams",
          "type": "bytes"
        }
      ],
      "name": "setUp",
      "outputs": [],
      "stateMutability": "nonpayable",
      "type": "function"
    },
    {
      "inputs": [
        {
          "internalType": "address",
          "name": "_Usul",
          "type": "address"
        }
      ],
      "name": "setUsul",
      "outputs": [],
      "stateMutability": "nonpayable",
      "type": "function"
    },
    {
      "inputs": [],
      "name": "timeLockPeriod",
      "outputs": [
        {
          "internalType": "uint256",
          "name": "",
          "type": "uint256"
        }
      ],
      "stateMutability": "view",
      "type": "function"
    },
    {
      "inputs": [
        {
          "internalType": "address",
          "name": "newOwner",
          "type": "address"
        }
      ],
      "name": "transferOwnership",
      "outputs": [],
      "stateMutability": "nonpayable",
      "type": "function"
    },
    {
      "inputs": [
        {
          "internalType": "uint256",
          "name": "newQuorumNumerator",
          "type": "uint256"
        }
      ],
      "name": "updateQuorumNumerator",
      "outputs": [],
      "stateMutability": "nonpayable",
      "type": "function"
    },
    {
      "inputs": [
        {
          "internalType": "uint256",
          "name": "newTimeLockPeriod",
          "type": "uint256"
        }
      ],
      "name": "updateTimeLockPeriod",
      "outputs": [],
      "stateMutability": "nonpayable",
      "type": "function"
    },
    {
      "inputs": [
        {
          "internalType": "uint256",
          "name": "newPeriod",
          "type": "uint256"
        }
      ],
      "name": "updateVotingPeriod",
      "outputs": [],
      "stateMutability": "nonpayable",
      "type": "function"
    },
    {
      "inputs": [],
      "name": "version",
      "outputs": [
        {
          "internalType": "string",
          "name": "",
          "type": "string"
        }
      ],
      "stateMutability": "view",
      "type": "function"
    },
    {
      "inputs": [
        {
          "internalType": "uint256",
          "name": "proposalId",
          "type": "uint256"
        },
        {
          "internalType": "uint8",
          "name": "support",
          "type": "uint8"
        },
        {
          "internalType": "bytes",
          "name": "",
          "type": "bytes"
        }
      ],
      "name": "vote",
      "outputs": [],
      "stateMutability": "nonpayable",
      "type": "function"
    },
    {
      "inputs": [
        {
          "internalType": "uint256",
          "name": "proposalId",
          "type": "uint256"
        },
        {
          "internalType": "uint8",
          "name": "support",
          "type": "uint8"
        },
        {
          "internalType": "bytes",
          "name": "signature",
          "type": "bytes"
        },
        {
          "internalType": "bytes",
          "name": "",
          "type": "bytes"
        }
      ],
      "name": "voteSignature",
      "outputs": [],
      "stateMutability": "nonpayable",
      "type": "function"
    },
    {
      "inputs": [],
      "name": "votingPeriod",
      "outputs": [
        {
          "internalType": "uint256",
          "name": "",
          "type": "uint256"
        }
      ],
      "stateMutability": "view",
      "type": "function"
    }
  ],
  "transactionHash": "0x2971d59900d480f14488d2500df349e445a91fd0a2e143eb16cccfe5fdd98242",
  "args": [
    "0x0000000000000000000000000000000000000001",
    "0x0000000000000000000000000000000000000001",
    "0x0000000000000000000000000000000000000001",
    2,
    1,
    1,
    "SimpleMemberVoting"
  ],
  "solcInputHash": "edce3d662e76b3807939966d8c7d0c2f",
  "bytecode": "0x60806040523480156200001157600080fd5b506040516200491038038062004910833981810160405281019062000037919062000b69565b60008787878787878760405160200162000058979695949392919062000dc0565b60405160208183030381529060405290506200007a816200008860201b60201c565b505050505050505062001462565b600060019054906101000a900460ff16620000b25760008054906101000a900460ff1615620000c3565b620000c2620003dd60201b60201c565b5b62000105576040517f08c379a0000000000000000000000000000000000000000000000000000000008152600401620000fc9062000eaa565b60405180910390fd5b60008060019054906101000a900460ff16159050801562000156576001600060016101000a81548160ff02191690831515021790555060016000806101000a81548160ff0219169083151502179055505b60008060008060008060008880602001905181019062000177919062000a97565b965096509650965096509650965060018411620001cb576040517f08c379a0000000000000000000000000000000000000000000000000000000008152600401620001c29062000e44565b60405180910390fd5b600073ffffffffffffffffffffffffffffffffffffffff168673ffffffffffffffffffffffffffffffffffffffff1614156200023e576040517f08c379a0000000000000000000000000000000000000000000000000000000008152600401620002359062000e66565b60405180910390fd5b85609f60006101000a81548173ffffffffffffffffffffffffffffffffffffffff021916908373ffffffffffffffffffffffffffffffffffffffff1602179055506200028f620003fb60201b60201c565b620002b081620002a46200045f60201b60201c565b6200049c60201b60201c565b620002c1836200051a60201b60201c565b620002d287620005bd60201b60201c565b600184620002e1919062000fda565b609a8190555084606560006101000a81548173ffffffffffffffffffffffffffffffffffffffff021916908373ffffffffffffffffffffffffffffffffffffffff16021790555060018262000337919062000fda565b609b8190555080609c9080519060200190620003559291906200090d565b508673ffffffffffffffffffffffffffffffffffffffff168573ffffffffffffffffffffffffffffffffffffffff167f61586574b8b0edca97136ad4cb664eec4742d53de53403d531506632e6342a3960405160405180910390a3505050505050508015620003d95760008060016101000a81548160ff0219169083151502179055505b5050565b6000620003f530620006d360201b620014761760201c565b15905090565b600060019054906101000a900460ff166200044d576040517f08c379a0000000000000000000000000000000000000000000000000000000008152600401620004449062000f10565b60405180910390fd5b6200045d620006f660201b60201c565b565b60606040518060400160405280600181526020017f3100000000000000000000000000000000000000000000000000000000000000815250905090565b600060019054906101000a900460ff16620004ee576040517f08c379a0000000000000000000000000000000000000000000000000000000008152600401620004e59062000f10565b60405180910390fd5b600082805190602001209050600082805190602001209050816066819055508060678190555050505050565b6200052a6200076a60201b60201c565b73ffffffffffffffffffffffffffffffffffffffff16620005506200077260201b60201c565b73ffffffffffffffffffffffffffffffffffffffff1614620005a9576040517f08c379a0000000000000000000000000000000000000000000000000000000008152600401620005a09062000ecc565b60405180910390fd5b620005ba816200079c60201b60201c565b50565b620005cd6200076a60201b60201c565b73ffffffffffffffffffffffffffffffffffffffff16620005f36200077260201b60201c565b73ffffffffffffffffffffffffffffffffffffffff16146200064c576040517f08c379a0000000000000000000000000000000000000000000000000000000008152600401620006439062000ecc565b60405180910390fd5b600073ffffffffffffffffffffffffffffffffffffffff168173ffffffffffffffffffffffffffffffffffffffff161415620006bf576040517f08c379a0000000000000000000000000000000000000000000000000000000008152600401620006b69062000e88565b60405180910390fd5b620006d0816200083e60201b60201c565b50565b6000808273ffffffffffffffffffffffffffffffffffffffff163b119050919050565b600060019054906101000a900460ff1662000748576040517f08c379a00000000000000000000000000000000000000000000000000000000081526004016200073f9062000f10565b60405180910390fd5b620007686200075c6200076a60201b60201c565b6200083e60201b60201c565b565b600033905090565b6000603360009054906101000a900473ffffffffffffffffffffffffffffffffffffffff16905090565b620007ac6200090460201b60201c565b811115620007f1576040517f08c379a0000000000000000000000000000000000000000000000000000000008152600401620007e89062000eee565b60405180910390fd5b6000609e54905081609e819055507f0553476bf02ef2726e8ce5ced78d63e26e602e4a2257b1f559418e24b463399781836040516200083292919062000f32565b60405180910390a15050565b6000603360009054906101000a900473ffffffffffffffffffffffffffffffffffffffff16905081603360006101000a81548173ffffffffffffffffffffffffffffffffffffffff021916908373ffffffffffffffffffffffffffffffffffffffff1602179055508173ffffffffffffffffffffffffffffffffffffffff168173ffffffffffffffffffffffffffffffffffffffff167f8be0079c531659141344cd1fd0a4f28419497f9722a3daafe3b4186f6b6457e060405160405180910390a35050565b60006064905090565b8280546200091b90620010ff565b90600052602060002090601f0160209004810192826200093f57600085556200098b565b82601f106200095a57805160ff19168380011785556200098b565b828001600101855582156200098b579182015b828111156200098a5782518255916020019190600101906200096d565b5b5090506200099a91906200099e565b5090565b5b80821115620009b95760008160009055506001016200099f565b5090565b6000620009d4620009ce8462000f88565b62000f5f565b905082815260208101848484011115620009f357620009f2620011fd565b5b62000a00848285620010c9565b509392505050565b60008151905062000a1981620013fa565b92915050565b60008151905062000a308162001414565b92915050565b60008151905062000a47816200142e565b92915050565b600082601f83011262000a655762000a64620011f8565b5b815162000a77848260208601620009bd565b91505092915050565b60008151905062000a918162001448565b92915050565b600080600080600080600060e0888a03121562000ab95762000ab862001207565b5b600062000ac98a828b0162000a1f565b975050602062000adc8a828b0162000a36565b965050604062000aef8a828b0162000a1f565b955050606062000b028a828b0162000a80565b945050608062000b158a828b0162000a80565b93505060a062000b288a828b0162000a80565b92505060c088015167ffffffffffffffff81111562000b4c5762000b4b62001202565b5b62000b5a8a828b0162000a4d565b91505092959891949750929550565b600080600080600080600060e0888a03121562000b8b5762000b8a62001207565b5b600062000b9b8a828b0162000a08565b975050602062000bae8a828b0162000a36565b965050604062000bc18a828b0162000a08565b955050606062000bd48a828b0162000a80565b945050608062000be78a828b0162000a80565b93505060a062000bfa8a828b0162000a80565b92505060c088015167ffffffffffffffff81111562000c1e5762000c1d62001202565b5b62000c2c8a828b0162000a4d565b91505092959891949750929550565b62000c46816200103b565b82525050565b62000c5781620010a1565b82525050565b600062000c6a8262000fbe565b62000c76818562000fc9565b935062000c88818560208601620010c9565b62000c93816200120c565b840191505092915050565b600062000cad60238362000fc9565b915062000cba826200121d565b604082019050919050565b600062000cd460208362000fc9565b915062000ce1826200126c565b602082019050919050565b600062000cfb60268362000fc9565b915062000d088262001295565b604082019050919050565b600062000d22602e8362000fc9565b915062000d2f82620012e4565b604082019050919050565b600062000d4960208362000fc9565b915062000d568262001333565b602082019050919050565b600062000d7060268362000fc9565b915062000d7d826200135c565b604082019050919050565b600062000d97602b8362000fc9565b915062000da482620013ab565b604082019050919050565b62000dba8162001097565b82525050565b600060e08201905062000dd7600083018a62000c3b565b62000de6602083018962000c4c565b62000df5604083018862000c3b565b62000e04606083018762000daf565b62000e13608083018662000daf565b62000e2260a083018562000daf565b81810360c083015262000e36818462000c5d565b905098975050505050505050565b6000602082019050818103600083015262000e5f8162000c9e565b9050919050565b6000602082019050818103600083015262000e818162000cc5565b9050919050565b6000602082019050818103600083015262000ea38162000cec565b9050919050565b6000602082019050818103600083015262000ec58162000d13565b9050919050565b6000602082019050818103600083015262000ee78162000d3a565b9050919050565b6000602082019050818103600083015262000f098162000d61565b9050919050565b6000602082019050818103600083015262000f2b8162000d88565b9050919050565b600060408201905062000f49600083018562000daf565b62000f58602083018462000daf565b9392505050565b600062000f6b62000f7e565b905062000f79828262001135565b919050565b6000604051905090565b600067ffffffffffffffff82111562000fa65762000fa5620011c9565b5b62000fb1826200120c565b9050602081019050919050565b600081519050919050565b600082825260208201905092915050565b600062000fe78262001097565b915062000ff48362001097565b9250817fffffffffffffffffffffffffffffffffffffffffffffffffffffffffffffffff048311821515161562001030576200102f6200116b565b5b828202905092915050565b6000620010488262001077565b9050919050565b60006200105c8262001077565b9050919050565b600062001070826200103b565b9050919050565b600073ffffffffffffffffffffffffffffffffffffffff82169050919050565b6000819050919050565b6000620010ae82620010b5565b9050919050565b6000620010c28262001077565b9050919050565b60005b83811015620010e9578082015181840152602081019050620010cc565b83811115620010f9576000848401525b50505050565b600060028204905060018216806200111857607f821691505b602082108114156200112f576200112e6200119a565b5b50919050565b62001140826200120c565b810181811067ffffffffffffffff82111715620011625762001161620011c9565b5b80604052505050565b7f4e487b7100000000000000000000000000000000000000000000000000000000600052601160045260246000fd5b7f4e487b7100000000000000000000000000000000000000000000000000000000600052602260045260246000fd5b7f4e487b7100000000000000000000000000000000000000000000000000000000600052604160045260246000fd5b600080fd5b600080fd5b600080fd5b600080fd5b6000601f19601f8301169050919050565b7f766f74696e67506572696f64206d75737420626520677265617465722074686160008201527f6e20310000000000000000000000000000000000000000000000000000000000602082015250565b7f696e76616c696420676f7665726e616e636520746f6b656e2061646472657373600082015250565b7f4f776e61626c653a206e6577206f776e657220697320746865207a65726f206160008201527f6464726573730000000000000000000000000000000000000000000000000000602082015250565b7f496e697469616c697a61626c653a20636f6e747261637420697320616c72656160008201527f647920696e697469616c697a6564000000000000000000000000000000000000602082015250565b7f4f776e61626c653a2063616c6c6572206973206e6f7420746865206f776e6572600082015250565b7f71756f72756d4e756d657261746f72206f7665722071756f72756d44656e6f6d60008201527f696e61746f720000000000000000000000000000000000000000000000000000602082015250565b7f496e697469616c697a61626c653a20636f6e7472616374206973206e6f74206960008201527f6e697469616c697a696e67000000000000000000000000000000000000000000602082015250565b62001405816200103b565b81146200141157600080fd5b50565b6200141f816200104f565b81146200142b57600080fd5b50565b620014398162001063565b81146200144557600080fd5b50565b620014538162001097565b81146200145f57600080fd5b50565b61349e80620014726000396000f3fe608060405234801561001057600080fd5b506004361061018e5760003560e01c80637a3ff4d2116100de578063a8a829c111610097578063ef00ef4311610071578063ef00ef431461044f578063f2fde38b1461046b578063f8ce560a14610487578063f96dae0a146104b75761018e565b8063a8a829c1146103e7578063bf1b5efd14610403578063d69be91c1461041f5761018e565b80637a3ff4d21461033757806386522973146103535780638da5cb5b1461037157806397c3d3341461038f578063a4f9edbf146103ad578063a7713a70146103c95761018e565b8063438596321161014b578063715018a611610125578063715018a6146102d5578063747691df146102df57806378446bc1146102fd57806379bfb0891461031b5761018e565b80634385963214610257578063494031831461028757806354fd4d50146102b75761018e565b8063013cf08b1461019357806302a251a3146101c757806306f3f9e6146101e557806306fdde03146102015780631f2c562e1461021f578063224f32631461023b575b600080fd5b6101ad60048036038101906101a89190612201565b6104d5565b6040516101be959493929190612b72565b60405180910390f35b6101cf61050b565b6040516101dc9190612b2e565b60405180910390f35b6101ff60048036038101906101fa9190612201565b610511565b005b610209610599565b60405161021691906128cc565b60405180910390f35b6102396004803603810190610234919061230a565b610627565b005b610255600480360381019061025091906121b8565b610699565b005b610271600480360381019061026c919061225b565b6107c1565b60405161027e91906127ac565b60405180910390f35b6102a1600480360381019061029c9190612201565b61082c565b6040516102ae91906127ac565b60405180910390f35b6102bf610995565b6040516102cc91906128cc565b60405180910390f35b6102dd6109d2565b005b6102e7610a5a565b6040516102f49190612723565b60405180910390f35b610305610a80565b6040516103129190612b2e565b60405180910390f35b61033560048036038101906103309190612201565b610a86565b005b610351600480360381019061034c9190612201565b610b62565b005b61035b610c29565b60405161036891906127c7565b60405180910390f35b610379610c4d565b6040516103869190612723565b60405180910390f35b610397610c77565b6040516103a49190612b2e565b60405180910390f35b6103c760048036038101906103c291906121b8565b610c80565b005b6103d1610f90565b6040516103de9190612b2e565b60405180910390f35b61040160048036038101906103fc919061208d565b610f9a565b005b61041d6004803603810190610418919061229b565b6110dc565b005b61043960048036038101906104349190612178565b6110ec565b6040516104469190612b2e565b60405180910390f35b61046960048036038101906104649190612201565b6111b9565b005b6104856004803603810190610480919061208d565b611280565b005b6104a1600480360381019061049c9190612201565b611378565b6040516104ae9190612b2e565b60405180910390f35b6104bf611450565b6040516104cc91906128b1565b60405180910390f35b609d6020528060005260406000206000915090508060000154908060010154908060020154908060030154908060040154905085565b609a5481565b610519611499565b73ffffffffffffffffffffffffffffffffffffffff16610537610c4d565b73ffffffffffffffffffffffffffffffffffffffff161461058d576040517f08c379a000000000000000000000000000000000000000000000000000000000815260040161058490612a8e565b60405180910390fd5b610596816114a1565b50565b609c80546105a690612e3d565b80601f01602080910402602001604051908101604052809291908181526020018280546105d290612e3d565b801561061f5780601f106105f45761010080835404028352916020019161061f565b820191906000526020600020905b81548152906001019060200180831161060257829003601f168201915b505050505081565b600061068561067f7fb780761e36898d7ec1cc0fb66fdd6a8a42e635ee643709d6b20652c68a3b29f5878760405160200161066493929190612835565b60405160208183030381529060405280519060200120611536565b84611550565b9050610692858286611577565b5050505050565b606560009054906101000a900473ffffffffffffffffffffffffffffffffffffffff1673ffffffffffffffffffffffffffffffffffffffff163373ffffffffffffffffffffffffffffffffffffffff1614610729576040517f08c379a000000000000000000000000000000000000000000000000000000000815260040161072090612a6e565b60405180910390fd5b60008180602001905181019061073f919061222e565b905042609a5461074f9190612c73565b609d60008381526020019081526020016000206003018190555043609d6000838152602001908152602001600020600401819055507f3aeda78f6230a590817748b94b63d690cec4d1a15d494dfc7006e0a39e77f81a81426040516107b5929190612b49565b60405180910390a15050565b6000609d600084815260200190815260200160002060050160008373ffffffffffffffffffffffffffffffffffffffff1673ffffffffffffffffffffffffffffffffffffffff16815260200190815260200160002060009054906101000a900460ff16905092915050565b6000609d600083815260200190815260200160002060010154609d6000848152602001908152602001600020600001541161089c576040517f08c379a00000000000000000000000000000000000000000000000000000000081526004016108939061292e565b60405180910390fd5b6108bb609d600084815260200190815260200160002060040154611378565b609d600084815260200190815260200160002060020154609d6000858152602001908152602001600020600001546108f39190612c73565b1015610934576040517f08c379a000000000000000000000000000000000000000000000000000000000815260040161092b906129ae565b60405180910390fd5b42609d6000848152602001908152602001600020600301541061098c576040517f08c379a000000000000000000000000000000000000000000000000000000000815260040161098390612aae565b60405180910390fd5b60019050919050565b60606040518060400160405280600181526020017f3100000000000000000000000000000000000000000000000000000000000000815250905090565b6109da611499565b73ffffffffffffffffffffffffffffffffffffffff166109f8610c4d565b73ffffffffffffffffffffffffffffffffffffffff1614610a4e576040517f08c379a0000000000000000000000000000000000000000000000000000000008152600401610a4590612a8e565b60405180910390fd5b610a58600061180c565b565b606560009054906101000a900473ffffffffffffffffffffffffffffffffffffffff1681565b609b5481565b610a8f8161082c565b15610b2657606560009054906101000a900473ffffffffffffffffffffffffffffffffffffffff1673ffffffffffffffffffffffffffffffffffffffff16634fd6134882609b546040518363ffffffff1660e01b8152600401610af3929190612b49565b600060405180830381600087803b158015610b0d57600080fd5b505af1158015610b21573d6000803e3d6000fd5b505050505b7f54ffcee03e8b80c05e4d1c55e3dc60602d9082a899e50337b680c9c4c4d80a3a8142604051610b57929190612b49565b60405180910390a150565b610b6a611499565b73ffffffffffffffffffffffffffffffffffffffff16610b88610c4d565b73ffffffffffffffffffffffffffffffffffffffff1614610bde576040517f08c379a0000000000000000000000000000000000000000000000000000000008152600401610bd590612a8e565b60405180910390fd5b6000609b54905081609b819055507f2a72574d775756e698a258fc07c826b7185131fff8a96b868feacab45fb234328183604051610c1d929190612b49565b60405180910390a15050565b7fb780761e36898d7ec1cc0fb66fdd6a8a42e635ee643709d6b20652c68a3b29f581565b6000603360009054906101000a900473ffffffffffffffffffffffffffffffffffffffff16905090565b60006064905090565b600060019054906101000a900460ff16610ca85760008054906101000a900460ff1615610cb1565b610cb06118d2565b5b610cf0576040517f08c379a0000000000000000000000000000000000000000000000000000000008152600401610ce790612a2e565b60405180910390fd5b60008060019054906101000a900460ff161590508015610d40576001600060016101000a81548160ff02191690831515021790555060016000806101000a81548160ff0219169083151502179055505b600080600080600080600088806020019051810190610d5f91906120ba565b965096509650965096509650965060018411610db0576040517f08c379a0000000000000000000000000000000000000000000000000000000008152600401610da79061290e565b60405180910390fd5b600073ffffffffffffffffffffffffffffffffffffffff168673ffffffffffffffffffffffffffffffffffffffff161415610e20576040517f08c379a0000000000000000000000000000000000000000000000000000000008152600401610e179061294e565b60405180910390fd5b85609f60006101000a81548173ffffffffffffffffffffffffffffffffffffffff021916908373ffffffffffffffffffffffffffffffffffffffff160217905550610e696118e3565b610e7a81610e75610995565b61193c565b610e8383610511565b610e8c87611280565b600184610e999190612cfa565b609a8190555084606560006101000a81548173ffffffffffffffffffffffffffffffffffffffff021916908373ffffffffffffffffffffffffffffffffffffffff160217905550600182610eed9190612cfa565b609b8190555080609c9080519060200190610f09929190611e8c565b508673ffffffffffffffffffffffffffffffffffffffff168573ffffffffffffffffffffffffffffffffffffffff167f61586574b8b0edca97136ad4cb664eec4742d53de53403d531506632e6342a3960405160405180910390a3505050505050508015610f8c5760008060016101000a81548160ff0219169083151502179055505b5050565b6000609e54905090565b610fa2611499565b73ffffffffffffffffffffffffffffffffffffffff16610fc0610c4d565b73ffffffffffffffffffffffffffffffffffffffff1614611016576040517f08c379a000000000000000000000000000000000000000000000000000000000815260040161100d90612a8e565b60405180910390fd5b6000606560009054906101000a900473ffffffffffffffffffffffffffffffffffffffff16905081606560006101000a81548173ffffffffffffffffffffffffffffffffffffffff021916908373ffffffffffffffffffffffffffffffffffffffff1602179055508173ffffffffffffffffffffffffffffffffffffffff168173ffffffffffffffffffffffffffffffffffffffff167f20c8544544aefaefdf339d996d855f2d4040cf93548344aa7dcb03b19e160cd160405160405180910390a35050565b6110e7833384611577565b505050565b6000609f60009054906101000a900473ffffffffffffffffffffffffffffffffffffffff1673ffffffffffffffffffffffffffffffffffffffff16633a46b1a884609d6000868152602001908152602001600020600401546040518363ffffffff1660e01b815260040161116192919061273e565b60206040518083038186803b15801561117957600080fd5b505afa15801561118d573d6000803e3d6000fd5b505050506040513d601f19601f820116820180604052508101906111b1919061222e565b905092915050565b6111c1611499565b73ffffffffffffffffffffffffffffffffffffffff166111df610c4d565b73ffffffffffffffffffffffffffffffffffffffff1614611235576040517f08c379a000000000000000000000000000000000000000000000000000000000815260040161122c90612a8e565b60405180910390fd5b6000609a54905081609a819055507fffc708f072ca56e3d45ef0cb288b96cb9378f5f63e1646868bfbc9c38f4263a18183604051611274929190612b49565b60405180910390a15050565b611288611499565b73ffffffffffffffffffffffffffffffffffffffff166112a6610c4d565b73ffffffffffffffffffffffffffffffffffffffff16146112fc576040517f08c379a00000000000000000000000000000000000000000000000000000000081526004016112f390612a8e565b60405180910390fd5b600073ffffffffffffffffffffffffffffffffffffffff168173ffffffffffffffffffffffffffffffffffffffff16141561136c576040517f08c379a0000000000000000000000000000000000000000000000000000000008152600401611363906129ce565b60405180910390fd5b6113758161180c565b50565b6000611382610c77565b61138a610f90565b609f60009054906101000a900473ffffffffffffffffffffffffffffffffffffffff1673ffffffffffffffffffffffffffffffffffffffff16638e539e8c856040518263ffffffff1660e01b81526004016113e59190612b2e565b60206040518083038186803b1580156113fd57600080fd5b505afa158015611411573d6000803e3d6000fd5b505050506040513d601f19601f82011682018060405250810190611435919061222e565b61143f9190612cfa565b6114499190612cc9565b9050919050565b609f60009054906101000a900473ffffffffffffffffffffffffffffffffffffffff1681565b6000808273ffffffffffffffffffffffffffffffffffffffff163b119050919050565b600033905090565b6114a9610c77565b8111156114eb576040517f08c379a00000000000000000000000000000000000000000000000000000000081526004016114e290612ace565b60405180910390fd5b6000609e54905081609e819055507f0553476bf02ef2726e8ce5ced78d63e26e602e4a2257b1f559418e24b4633997818360405161152a929190612b49565b60405180910390a15050565b60006115496115436119b7565b836119f7565b9050919050565b600080600061155f8585611a2a565b9150915061156c81611aad565b819250505092915050565b609d6000848152602001908152602001600020600301544211156115d0576040517f08c379a00000000000000000000000000000000000000000000000000000000081526004016115c79061298e565b60405180910390fd5b6115da83836107c1565b1561161a576040517f08c379a000000000000000000000000000000000000000000000000000000000815260040161161190612a0e565b60405180910390fd5b6001609d600085815260200190815260200160002060050160008473ffffffffffffffffffffffffffffffffffffffff1673ffffffffffffffffffffffffffffffffffffffff16815260200190815260200160002060006101000a81548160ff021916908315150217905550600061169283856110ec565b9050600060028111156116a8576116a7612f08565b5b60ff168260ff1614156116e75780609d600086815260200190815260200160002060010160008282546116db9190612c73565b925050819055506117c9565b600160028111156116fb576116fa612f08565b5b60ff168260ff16141561173a5780609d6000868152602001908152602001600020600001600082825461172e9190612c73565b925050819055506117c8565b60028081111561174d5761174c612f08565b5b60ff168260ff16141561178c5780609d600086815260200190815260200160002060020160008282546117809190612c73565b925050819055506117c7565b6040517f08c379a00000000000000000000000000000000000000000000000000000000081526004016117be90612b0e565b60405180910390fd5b5b5b7f27eb20ecadc80d52f641a540b295d208f7c3735545d321b08e505116c6013199838584846040516117fe9493929190612767565b60405180910390a150505050565b6000603360009054906101000a900473ffffffffffffffffffffffffffffffffffffffff16905081603360006101000a81548173ffffffffffffffffffffffffffffffffffffffff021916908373ffffffffffffffffffffffffffffffffffffffff1602179055508173ffffffffffffffffffffffffffffffffffffffff168173ffffffffffffffffffffffffffffffffffffffff167f8be0079c531659141344cd1fd0a4f28419497f9722a3daafe3b4186f6b6457e060405160405180910390a35050565b60006118dd30611476565b15905090565b600060019054906101000a900460ff16611932576040517f08c379a000000000000000000000000000000000000000000000000000000000815260040161192990612aee565b60405180910390fd5b61193a611c82565b565b600060019054906101000a900460ff1661198b576040517f08c379a000000000000000000000000000000000000000000000000000000000815260040161198290612aee565b60405180910390fd5b600082805190602001209050600082805190602001209050816066819055508060678190555050505050565b60006119f27f8b73c3c69bb8fe3d512ecc4cf759cc79239f7b179b0ffacaa9a75d522b39400f6119e5611ce3565b6119ed611ced565b611cf7565b905090565b60008282604051602001611a0c9291906126ec565b60405160208183030381529060405280519060200120905092915050565b600080604183511415611a6c5760008060006020860151925060408601519150606086015160001a9050611a6087828585611d31565b94509450505050611aa6565b604083511415611a9d576000806020850151915060408501519050611a92868383611e3e565b935093505050611aa6565b60006002915091505b9250929050565b60006004811115611ac157611ac0612f08565b5b816004811115611ad457611ad3612f08565b5b1415611adf57611c7f565b60016004811115611af357611af2612f08565b5b816004811115611b0657611b05612f08565b5b1415611b47576040517f08c379a0000000000000000000000000000000000000000000000000000000008152600401611b3e906128ee565b60405180910390fd5b60026004811115611b5b57611b5a612f08565b5b816004811115611b6e57611b6d612f08565b5b1415611baf576040517f08c379a0000000000000000000000000000000000000000000000000000000008152600401611ba69061296e565b60405180910390fd5b60036004811115611bc357611bc2612f08565b5b816004811115611bd657611bd5612f08565b5b1415611c17576040517f08c379a0000000000000000000000000000000000000000000000000000000008152600401611c0e906129ee565b60405180910390fd5b600480811115611c2a57611c29612f08565b5b816004811115611c3d57611c3c612f08565b5b1415611c7e576040517f08c379a0000000000000000000000000000000000000000000000000000000008152600401611c7590612a4e565b60405180910390fd5b5b50565b600060019054906101000a900460ff16611cd1576040517f08c379a0000000000000000000000000000000000000000000000000000000008152600401611cc890612aee565b60405180910390fd5b611ce1611cdc611499565b61180c565b565b6000606654905090565b6000606754905090565b60008383834630604051602001611d129594939291906127e2565b6040516020818303038152906040528051906020012090509392505050565b6000807f7fffffffffffffffffffffffffffffff5d576e7357a4501ddfe92f46681b20a08360001c1115611d6c576000600391509150611e35565b601b8560ff1614158015611d845750601c8560ff1614155b15611d96576000600491509150611e35565b600060018787878760405160008152602001604052604051611dbb949392919061286c565b6020604051602081039080840390855afa158015611ddd573d6000803e3d6000fd5b505050602060405103519050600073ffffffffffffffffffffffffffffffffffffffff168173ffffffffffffffffffffffffffffffffffffffff161415611e2c57600060019250925050611e35565b80600092509250505b94509492505050565b6000806000807f7fffffffffffffffffffffffffffffffffffffffffffffffffffffffffffffff85169150601b8560ff1c019050611e7e87828885611d31565b935093505050935093915050565b828054611e9890612e3d565b90600052602060002090601f016020900481019282611eba5760008555611f01565b82601f10611ed357805160ff1916838001178555611f01565b82800160010185558215611f01579182015b82811115611f00578251825591602001919060010190611ee5565b5b509050611f0e9190611f12565b5090565b5b80821115611f2b576000816000905550600101611f13565b5090565b6000611f42611f3d84612bea565b612bc5565b905082815260208101848484011115611f5e57611f5d612f9a565b5b611f69848285612dfb565b509392505050565b6000611f84611f7f84612c1b565b612bc5565b905082815260208101848484011115611fa057611f9f612f9a565b5b611fab848285612e0a565b509392505050565b600081359050611fc2816133f5565b92915050565b600081519050611fd78161340c565b92915050565b600082601f830112611ff257611ff1612f95565b5b8135612002848260208601611f2f565b91505092915050565b60008151905061201a81613423565b92915050565b600082601f83011261203557612034612f95565b5b8151612045848260208601611f71565b91505092915050565b60008135905061205d8161343a565b92915050565b6000815190506120728161343a565b92915050565b60008135905061208781613451565b92915050565b6000602082840312156120a3576120a2612fa4565b5b60006120b184828501611fb3565b91505092915050565b600080600080600080600060e0888a0312156120d9576120d8612fa4565b5b60006120e78a828b01611fc8565b97505060206120f88a828b0161200b565b96505060406121098a828b01611fc8565b955050606061211a8a828b01612063565b945050608061212b8a828b01612063565b93505060a061213c8a828b01612063565b92505060c088015167ffffffffffffffff81111561215d5761215c612f9f565b5b6121698a828b01612020565b91505092959891949750929550565b6000806040838503121561218f5761218e612fa4565b5b600061219d85828601611fb3565b92505060206121ae8582860161204e565b9150509250929050565b6000602082840312156121ce576121cd612fa4565b5b600082013567ffffffffffffffff8111156121ec576121eb612f9f565b5b6121f884828501611fdd565b91505092915050565b60006020828403121561221757612216612fa4565b5b60006122258482850161204e565b91505092915050565b60006020828403121561224457612243612fa4565b5b600061225284828501612063565b91505092915050565b6000806040838503121561227257612271612fa4565b5b60006122808582860161204e565b925050602061229185828601611fb3565b9150509250929050565b6000806000606084860312156122b4576122b3612fa4565b5b60006122c28682870161204e565b93505060206122d386828701612078565b925050604084013567ffffffffffffffff8111156122f4576122f3612f9f565b5b61230086828701611fdd565b9150509250925092565b6000806000806080858703121561232457612323612fa4565b5b60006123328782880161204e565b945050602061234387828801612078565b935050604085013567ffffffffffffffff81111561236457612363612f9f565b5b61237087828801611fdd565b925050606085013567ffffffffffffffff81111561239157612390612f9f565b5b61239d87828801611fdd565b91505092959194509250565b6123b281612d54565b82525050565b6123c181612d78565b82525050565b6123d081612d84565b82525050565b6123e76123e282612d84565b612ea0565b82525050565b6123f681612dd7565b82525050565b600061240782612c4c565b6124118185612c57565b9350612421818560208601612e0a565b61242a81612fa9565b840191505092915050565b6000612442601883612c57565b915061244d82612fba565b602082019050919050565b6000612465602383612c57565b915061247082612fe3565b604082019050919050565b6000612488601d83612c57565b915061249382613032565b602082019050919050565b60006124ab602083612c57565b91506124b68261305b565b602082019050919050565b60006124ce601f83612c57565b91506124d982613084565b602082019050919050565b60006124f1601883612c57565b91506124fc826130ad565b602082019050919050565b6000612514602e83612c57565b915061251f826130d6565b604082019050919050565b6000612537602683612c57565b915061254282613125565b604082019050919050565b600061255a600283612c68565b915061256582613174565b600282019050919050565b600061257d602283612c57565b91506125888261319d565b604082019050919050565b60006125a0601783612c57565b91506125ab826131ec565b602082019050919050565b60006125c3602e83612c57565b91506125ce82613215565b604082019050919050565b60006125e6602283612c57565b91506125f182613264565b604082019050919050565b6000612609601a83612c57565b9150612614826132b3565b602082019050919050565b600061262c602083612c57565b9150612637826132dc565b602082019050919050565b600061264f602083612c57565b915061265a82613305565b602082019050919050565b6000612672602683612c57565b915061267d8261332e565b604082019050919050565b6000612695602b83612c57565b91506126a08261337d565b604082019050919050565b60006126b8601f83612c57565b91506126c3826133cc565b602082019050919050565b6126d781612dc0565b82525050565b6126e681612dca565b82525050565b60006126f78261254d565b915061270382856123d6565b60208201915061271382846123d6565b6020820191508190509392505050565b600060208201905061273860008301846123a9565b92915050565b600060408201905061275360008301856123a9565b61276060208301846126ce565b9392505050565b600060808201905061277c60008301876123a9565b61278960208301866126ce565b61279660408301856126dd565b6127a360608301846126ce565b95945050505050565b60006020820190506127c160008301846123b8565b92915050565b60006020820190506127dc60008301846123c7565b92915050565b600060a0820190506127f760008301886123c7565b61280460208301876123c7565b61281160408301866123c7565b61281e60608301856126ce565b61282b60808301846123a9565b9695505050505050565b600060608201905061284a60008301866123c7565b61285760208301856126ce565b61286460408301846126dd565b949350505050565b600060808201905061288160008301876123c7565b61288e60208301866126dd565b61289b60408301856123c7565b6128a860608301846123c7565b95945050505050565b60006020820190506128c660008301846123ed565b92915050565b600060208201905081810360008301526128e681846123fc565b905092915050565b6000602082019050818103600083015261290781612435565b9050919050565b6000602082019050818103600083015261292781612458565b9050919050565b600060208201905081810360008301526129478161247b565b9050919050565b600060208201905081810360008301526129678161249e565b9050919050565b60006020820190508181036000830152612987816124c1565b9050919050565b600060208201905081810360008301526129a7816124e4565b9050919050565b600060208201905081810360008301526129c781612507565b9050919050565b600060208201905081810360008301526129e78161252a565b9050919050565b60006020820190508181036000830152612a0781612570565b9050919050565b60006020820190508181036000830152612a2781612593565b9050919050565b60006020820190508181036000830152612a47816125b6565b9050919050565b60006020820190508181036000830152612a67816125d9565b9050919050565b60006020820190508181036000830152612a87816125fc565b9050919050565b60006020820190508181036000830152612aa78161261f565b9050919050565b60006020820190508181036000830152612ac781612642565b9050919050565b60006020820190508181036000830152612ae781612665565b9050919050565b60006020820190508181036000830152612b0781612688565b9050919050565b60006020820190508181036000830152612b27816126ab565b9050919050565b6000602082019050612b4360008301846126ce565b92915050565b6000604082019050612b5e60008301856126ce565b612b6b60208301846126ce565b9392505050565b600060a082019050612b8760008301886126ce565b612b9460208301876126ce565b612ba160408301866126ce565b612bae60608301856126ce565b612bbb60808301846126ce565b9695505050505050565b6000612bcf612be0565b9050612bdb8282612e6f565b919050565b6000604051905090565b600067ffffffffffffffff821115612c0557612c04612f66565b5b612c0e82612fa9565b9050602081019050919050565b600067ffffffffffffffff821115612c3657612c35612f66565b5b612c3f82612fa9565b9050602081019050919050565b600081519050919050565b600082825260208201905092915050565b600081905092915050565b6000612c7e82612dc0565b9150612c8983612dc0565b9250827fffffffffffffffffffffffffffffffffffffffffffffffffffffffffffffffff03821115612cbe57612cbd612eaa565b5b828201905092915050565b6000612cd482612dc0565b9150612cdf83612dc0565b925082612cef57612cee612ed9565b5b828204905092915050565b6000612d0582612dc0565b9150612d1083612dc0565b9250817fffffffffffffffffffffffffffffffffffffffffffffffffffffffffffffffff0483118215151615612d4957612d48612eaa565b5b828202905092915050565b6000612d5f82612da0565b9050919050565b6000612d7182612da0565b9050919050565b60008115159050919050565b6000819050919050565b6000612d9982612d54565b9050919050565b600073ffffffffffffffffffffffffffffffffffffffff82169050919050565b6000819050919050565b600060ff82169050919050565b6000612de282612de9565b9050919050565b6000612df482612da0565b9050919050565b82818337600083830152505050565b60005b83811015612e28578082015181840152602081019050612e0d565b83811115612e37576000848401525b50505050565b60006002820490506001821680612e5557607f821691505b60208210811415612e6957612e68612f37565b5b50919050565b612e7882612fa9565b810181811067ffffffffffffffff82111715612e9757612e96612f66565b5b80604052505050565b6000819050919050565b7f4e487b7100000000000000000000000000000000000000000000000000000000600052601160045260246000fd5b7f4e487b7100000000000000000000000000000000000000000000000000000000600052601260045260246000fd5b7f4e487b7100000000000000000000000000000000000000000000000000000000600052602160045260246000fd5b7f4e487b7100000000000000000000000000000000000000000000000000000000600052602260045260246000fd5b7f4e487b7100000000000000000000000000000000000000000000000000000000600052604160045260246000fd5b600080fd5b600080fd5b600080fd5b600080fd5b6000601f19601f8301169050919050565b7f45434453413a20696e76616c6964207369676e61747572650000000000000000600082015250565b7f766f74696e67506572696f64206d75737420626520677265617465722074686160008201527f6e20310000000000000000000000000000000000000000000000000000000000602082015250565b7f6d616a6f7269747920796573566f746573206e6f742072656163686564000000600082015250565b7f696e76616c696420676f7665726e616e636520746f6b656e2061646472657373600082015250565b7f45434453413a20696e76616c6964207369676e6174757265206c656e67746800600082015250565b7f766f74696e6720706572696f6420686173207061737365640000000000000000600082015250565b7f612071756f72756d20686173206e6f74206265656e207265616368656420666f60008201527f72207468652070726f706f73616c000000000000000000000000000000000000602082015250565b7f4f776e61626c653a206e6577206f776e657220697320746865207a65726f206160008201527f6464726573730000000000000000000000000000000000000000000000000000602082015250565b7f1901000000000000000000000000000000000000000000000000000000000000600082015250565b7f45434453413a20696e76616c6964207369676e6174757265202773272076616c60008201527f7565000000000000000000000000000000000000000000000000000000000000602082015250565b7f766f7465722068617320616c726561647920766f746564000000000000000000600082015250565b7f496e697469616c697a61626c653a20636f6e747261637420697320616c72656160008201527f647920696e697469616c697a6564000000000000000000000000000000000000602082015250565b7f45434453413a20696e76616c6964207369676e6174757265202776272076616c60008201527f7565000000000000000000000000000000000000000000000000000000000000602082015250565b7f6f6e6c79205573756c206d6f64756c65206d617920656e746572000000000000600082015250565b7f4f776e61626c653a2063616c6c6572206973206e6f7420746865206f776e6572600082015250565b7f766f74696e6720706572696f6420686173206e6f742070617373656420796574600082015250565b7f71756f72756d4e756d657261746f72206f7665722071756f72756d44656e6f6d60008201527f696e61746f720000000000000000000000000000000000000000000000000000602082015250565b7f496e697469616c697a61626c653a20636f6e7472616374206973206e6f74206960008201527f6e697469616c697a696e67000000000000000000000000000000000000000000602082015250565b7f696e76616c69642076616c756520666f7220656e756d20566f74655479706500600082015250565b6133fe81612d54565b811461340957600080fd5b50565b61341581612d66565b811461342057600080fd5b50565b61342c81612d8e565b811461343757600080fd5b50565b61344381612dc0565b811461344e57600080fd5b50565b61345a81612dca565b811461346557600080fd5b5056fea2646970667358221220d31d7629e24f8b2a77425a9d5eae0b8fa12bc915998ee2f1525e18e20dc1fc5b64736f6c63430008060033",
  "devdoc": {
    "author": "Nathan Ginnever - <team@hyphal.xyz>",
    "kind": "dev",
    "methods": {
      "finalizeStrategy(uint256)": {
        "details": "Calls the proposal module to notify that a quorum has been reached.",
        "params": {
          "proposalId": "the proposal to vote for."
        }
      },
      "hasVoted(uint256,address)": {
        "details": "Returns true if an account has voted on a specific proposal.",
        "params": {
          "account": "the account to inspect.",
          "proposalId": "the proposal to inspect."
        },
        "returns": {
          "_0": "boolean."
        }
      },
      "isPassed(uint256)": {
        "details": "Determines if a proposal has succeeded.",
        "params": {
          "proposalId": "the proposal to vote for."
        },
        "returns": {
          "_0": "boolean."
        }
      },
      "owner()": {
        "details": "Returns the address of the current owner."
      },
      "receiveProposal(bytes)": {
        "details": "Called by the proposal module, this notifes the strategy of a new proposal.",
        "params": {
          "data": "any extra data to pass to the voting strategy"
        }
      },
      "renounceOwnership()": {
        "details": "Leaves the contract without owner. It will not be possible to call `onlyOwner` functions anymore. Can only be called by the current owner. NOTE: Renouncing ownership will leave the contract without an owner, thereby removing any functionality that is only available to the owner."
      },
      "setUsul(address)": {
        "details": "Sets the executor to a new account (`newExecutor`)."
      },
      "transferOwnership(address)": {
        "details": "Transfers ownership of the contract to a new account (`newOwner`). Can only be called by the current owner."
      },
      "updateTimeLockPeriod(uint256)": {
        "details": "Updates the grace period time after a proposal passed before it can execute.",
        "params": {
          "newTimeLockPeriod": "the new delay before execution."
        }
      },
      "updateVotingPeriod(uint256)": {
        "details": "Updates the time that proposals are active for voting.",
        "params": {
          "newPeriod": "the voting window."
        }
      },
      "version()": {
        "details": "ERC712 version."
      },
      "vote(uint256,uint8,bytes)": {
        "details": "Submits a vote for a proposal.",
        "params": {
          "proposalId": "the proposal to vote for.",
          "support": "against, for, or abstain."
        }
      },
      "voteSignature(uint256,uint8,bytes,bytes)": {
        "details": "Submits a vote for a proposal by ERC712 signature.",
        "params": {
          "proposalId": "the proposal to vote for.",
          "signature": "712 signed vote.",
          "support": "against, for, or abstain."
        }
      }
    },
    "title": "OpenZeppelin Linear Voting Strategy - A Usul strategy that enables compound like voting.",
    "version": 1
  },
  "userdoc": {
    "kind": "user",
    "methods": {
      "setUsul(address)": {
        "notice": "Can only be called by the current owner."
      }
    },
    "version": 1
  },
  "storageLayout": {
    "storage": [
      {
        "astId": 3500,
        "contract": "contracts/votingStrategies/OZLinearVoting.sol:OZLinearVoting",
        "label": "_initialized",
        "offset": 0,
        "slot": "0",
        "type": "t_bool"
      },
      {
        "astId": 3503,
        "contract": "contracts/votingStrategies/OZLinearVoting.sol:OZLinearVoting",
        "label": "_initializing",
        "offset": 1,
        "slot": "0",
        "type": "t_bool"
      },
      {
        "astId": 3851,
        "contract": "contracts/votingStrategies/OZLinearVoting.sol:OZLinearVoting",
        "label": "__gap",
        "offset": 0,
        "slot": "1",
        "type": "t_array(t_uint256)50_storage"
      },
      {
        "astId": 3380,
        "contract": "contracts/votingStrategies/OZLinearVoting.sol:OZLinearVoting",
        "label": "_owner",
        "offset": 0,
        "slot": "51",
        "type": "t_address"
      },
      {
        "astId": 3492,
        "contract": "contracts/votingStrategies/OZLinearVoting.sol:OZLinearVoting",
        "label": "__gap",
        "offset": 0,
        "slot": "52",
        "type": "t_array(t_uint256)49_storage"
      },
      {
        "astId": 7346,
        "contract": "contracts/votingStrategies/OZLinearVoting.sol:OZLinearVoting",
        "label": "UsulModule",
        "offset": 0,
        "slot": "101",
        "type": "t_address"
      },
      {
        "astId": 4471,
        "contract": "contracts/votingStrategies/OZLinearVoting.sol:OZLinearVoting",
        "label": "_HASHED_NAME",
        "offset": 0,
        "slot": "102",
        "type": "t_bytes32"
      },
      {
        "astId": 4473,
        "contract": "contracts/votingStrategies/OZLinearVoting.sol:OZLinearVoting",
        "label": "_HASHED_VERSION",
        "offset": 0,
        "slot": "103",
        "type": "t_bytes32"
      },
      {
        "astId": 4611,
        "contract": "contracts/votingStrategies/OZLinearVoting.sol:OZLinearVoting",
        "label": "__gap",
        "offset": 0,
        "slot": "104",
        "type": "t_array(t_uint256)50_storage"
      },
      {
        "astId": 9646,
        "contract": "contracts/votingStrategies/OZLinearVoting.sol:OZLinearVoting",
        "label": "votingPeriod",
        "offset": 0,
        "slot": "154",
        "type": "t_uint256"
      },
      {
        "astId": 9648,
        "contract": "contracts/votingStrategies/OZLinearVoting.sol:OZLinearVoting",
        "label": "timeLockPeriod",
        "offset": 0,
        "slot": "155",
        "type": "t_uint256"
      },
      {
        "astId": 9650,
        "contract": "contracts/votingStrategies/OZLinearVoting.sol:OZLinearVoting",
        "label": "name",
        "offset": 0,
        "slot": "156",
        "type": "t_string_storage"
      },
      {
        "astId": 9655,
        "contract": "contracts/votingStrategies/OZLinearVoting.sol:OZLinearVoting",
        "label": "proposals",
        "offset": 0,
        "slot": "157",
        "type": "t_mapping(t_uint256,t_struct(ProposalVoting)9644_storage)"
      },
      {
        "astId": 9315,
        "contract": "contracts/votingStrategies/OZLinearVoting.sol:OZLinearVoting",
        "label": "_quorumNumerator",
        "offset": 0,
        "slot": "158",
        "type": "t_uint256"
      },
      {
        "astId": 13511,
        "contract": "contracts/votingStrategies/OZLinearVoting.sol:OZLinearVoting",
        "label": "governanceToken",
        "offset": 0,
        "slot": "159",
        "type": "t_contract(ERC20Votes)5882"
      }
    ],
    "types": {
      "t_address": {
        "encoding": "inplace",
        "label": "address",
        "numberOfBytes": "20"
      },
      "t_array(t_uint256)49_storage": {
        "base": "t_uint256",
        "encoding": "inplace",
        "label": "uint256[49]",
        "numberOfBytes": "1568"
      },
      "t_array(t_uint256)50_storage": {
        "base": "t_uint256",
        "encoding": "inplace",
        "label": "uint256[50]",
        "numberOfBytes": "1600"
      },
      "t_bool": {
        "encoding": "inplace",
        "label": "bool",
        "numberOfBytes": "1"
      },
      "t_bytes32": {
        "encoding": "inplace",
        "label": "bytes32",
        "numberOfBytes": "32"
      },
      "t_contract(ERC20Votes)5882": {
        "encoding": "inplace",
        "label": "contract ERC20Votes",
        "numberOfBytes": "20"
      },
      "t_mapping(t_address,t_bool)": {
        "encoding": "mapping",
        "key": "t_address",
        "label": "mapping(address => bool)",
        "numberOfBytes": "32",
        "value": "t_bool"
      },
      "t_mapping(t_uint256,t_struct(ProposalVoting)9644_storage)": {
        "encoding": "mapping",
        "key": "t_uint256",
        "label": "mapping(uint256 => struct BaseTokenVoting.ProposalVoting)",
        "numberOfBytes": "32",
        "value": "t_struct(ProposalVoting)9644_storage"
      },
      "t_string_storage": {
        "encoding": "bytes",
        "label": "string",
        "numberOfBytes": "32"
      },
      "t_struct(ProposalVoting)9644_storage": {
        "encoding": "inplace",
        "label": "struct BaseTokenVoting.ProposalVoting",
        "members": [
          {
            "astId": 9631,
            "contract": "contracts/votingStrategies/OZLinearVoting.sol:OZLinearVoting",
            "label": "yesVotes",
            "offset": 0,
            "slot": "0",
            "type": "t_uint256"
          },
          {
            "astId": 9633,
            "contract": "contracts/votingStrategies/OZLinearVoting.sol:OZLinearVoting",
            "label": "noVotes",
            "offset": 0,
            "slot": "1",
            "type": "t_uint256"
          },
          {
            "astId": 9635,
            "contract": "contracts/votingStrategies/OZLinearVoting.sol:OZLinearVoting",
            "label": "abstainVotes",
            "offset": 0,
            "slot": "2",
            "type": "t_uint256"
          },
          {
            "astId": 9637,
            "contract": "contracts/votingStrategies/OZLinearVoting.sol:OZLinearVoting",
            "label": "deadline",
            "offset": 0,
            "slot": "3",
            "type": "t_uint256"
          },
          {
            "astId": 9639,
            "contract": "contracts/votingStrategies/OZLinearVoting.sol:OZLinearVoting",
            "label": "startBlock",
            "offset": 0,
            "slot": "4",
            "type": "t_uint256"
          },
          {
            "astId": 9643,
            "contract": "contracts/votingStrategies/OZLinearVoting.sol:OZLinearVoting",
            "label": "hasVoted",
            "offset": 0,
            "slot": "5",
            "type": "t_mapping(t_address,t_bool)"
          }
        ],
        "numberOfBytes": "192"
      },
      "t_uint256": {
        "encoding": "inplace",
        "label": "uint256",
        "numberOfBytes": "32"
      }
    }
  }
}